S0140000434B5241364D355F64656D6F2E7372656333
S31500000000780A0020D93A000005390000D53A0000E8
S31500000010D53A0000D53A0000D53A0000D53A00009E
S31500000020000000000000000000000000D53A0000BB
S31500000030D53A000000000000D53A0000D53A00008D
S315000000401129000081280000A1290000E9290000EB
S315000000501533000055340000493500001136000004
S3150000006015330000553400004935000011360000F4
S31500000070000000000000000000000000000000007A
S31500000080000000000000000000000000000000006A
S31500000090000000000000000000000000000000005A
S315000000A0000000000000000000000000000000004A
S315000000B0000000000000000000000000000000003A
S315000000C0000000000000000000000000000000002A
S315000000D0000000000000000000000000000000001A
S315000000E0000000000000000000000000000000000A
S315000000F000000000000000000000000000000000FA
S3150000010000000000000000000000000000000000E9
S3150000011000000000000000000000000000000000D9
S3150000012000000000000000000000000000000000C9
S3150000013000000000000000000000000000000000B9
S3150000014000000000000000000000000000000000A9
S315000001500000000000000000000000000000000099
S315000001600000000000000000000000000000000089
S315000001700000000000000000000000000000000079
S315000001800000000000000000000000000000000069
S315000001900000000000000000000000000000000059
S315000001A00000000000000000000000000000000049
S315000001B00000000000000000000000000000000039
S315000001C0FFFFFFFFFFFFFFFFFFFFFFFFFFFFFFFF39
S315000001D0FFFFFFFFFFFFFFFFFFFFFFFFFFFFFFFF29
S315000001E0FFFFFFFFFFFFFFFFFFFFFFFFFFFFFFFF19
S315000001F0FFFFFFFFFFFFFFFFFFFFFFFFFFFFFFFF09
S3150000020010B5054C237833B9044B13B1044800E00C
S3150000021000BF0123237010BDE00100200000000094
S315000002207874000008B5034B1BB10349034800E08E
S3150000023000BF08BD00000000E40100207874000043
S31500000240022800D07047024B0248596802F070BD80
S31500000250046D0000840200200379022B02D10122E2
S31500000260014B1A70704700BF0102002008B5084B09
S315000002709B68D3E9011218681268904700B908BD57
S315000002804FF4C171034B044A044803F0FFFA00BF60
S3150000029000000020E0680000146B0000F468000015
S315000002A00379044A052B137002D00122024B1A70FF
S315000002B0704700BFFF0100200002002008B50122A0
S315000002C040F20731164802F0FBFB4FF47A710A2020
S315000002D003F0E4FA002240F20731114802F0F0FB85
S315000002E04FF47A710A2003F0D9FA012240F207315D
S315000002F00B4802F0E5FB4FF47A710A2003F0CEFAC0
S31500000300084BD3E9011218681268904700B908BD76
S3150000031040F2C911044B054A054803F0B7FA00BF7D
S3150000032084020020A86E0000E0680000F46A000065
S31500000330F468000000222DE9F0472F4B2F4C1E6871
S315000003409D68804688B030466B68227098470028C2
S3150000035044D12378002BFCD00023294FDFF8B4903A
S3150000036023703046EB684FF0000A984760BB23784D
S31500000370002BFCD0694630462B6984F800A09847CC
S31500000380B84217D0002830D12378002BFCD04FF08C
S31500000390000C4246694630466B6984F800C09847AF
S315000003A0C8B14845DDD04FF40871164B164A1748B8
S315000003B003F06CFA32204FF47A7103F06FFA30468C
S315000003C0EB6898470028D2D04FF4FC71104B0E4AC8
S315000003D00E4803F05BFA08B0BDE8F0874FF4F17100
S315000003E00B4B094A094803F051FA40F20921084B20
S315000003F0054A064803F04AFAA86E000000020020EB
S315000004000200030008690000486C0000F468000060
S31500000410E068000001000300037913B90122014BD3
S315000004201A707047FC01002008B5074BD3E901128A
S3150000043018681268904700B908BD40F24921034B7D
S31500000440034A044803F022FA646E0000E0680000E4
S31500000450286C0000F46800002DE9F0411F4B0746A8
S315000004601E689D6882B030466B68984740BB1C4C3E
S315000004702378002BFCD04FF0000884F8008030462B
S31500000480AB6801A9984710BB2378002BFCD03A46ED
S315000004903046EB6801A984F80080984748B1B0F56A
S315000004A0403FECD040F27B210E4B0F4A0F4803F041
S315000004B0EDF904200E4903F0F1F902B0BDE8F08130
S315000004C040F259210B4B084A084803F0DFF940F285
S315000004D06621084B044A054803F0D8F9646E00000B
S315000004E0FC01002008690000F06B0000F4680000C1
S315000004F040420F00E06800000379012B02D0012280
S31500000500014B1A70704700BFFE01002008B5074B6B
S31500000510D3E9011218681268904700B908BD40F285
S31500000520B921034B034A044803F0B0F9806E00007A
S31500000530E0680000D06B0000F468000000222DE99E
S31500000540F0432A4B2A4C1D68D3F8089007469DB005
S315000005502846D9F8043022708846984748BB237845
S31500000560002BFCD0002626702846D9F8243001A995
S315000005709847002832D12378002BFCD09DF806300E
S315000005802670002BF0D042462846D9F80C3004A934
S315000005909847E0B92378002BFCD0284600253A4638
S315000005A0D9F8103004A92570984748B91DB0BDE8A0
S315000005B0F08340F2D2210F4B0F4A104803F066F940
S315000005C040F201310B4B0C4A0C4803F05FF940F244
S315000005D0F621084B084A094803F058F94FF43A71D6
S315000005E0044B054A054803F051F900BF806E000030
S315000005F0FE010020E0680000A06B0000F468000027
S3150000060000222DE9F041294B294C1D68D3F80880BA
S3150000061007469CB02846D8F804302270984740BB5D
S315000006202378002BFCD0002626702846D8F82430E4
S3150000063001A99847002831D12378002BFCD09DF8DA
S315000006400C302670002BF0D02846D8F8143004A9B8
S315000006509847E0B92378002BFCD0284600253A4677
S31500000660D8F8183004A92570984748B91CB0BDE8D9
S31500000670F08140F219310F4B0F4A104803F006F98A
S315000006804FF452710B4B0C4A0C4803F0FFF840F242
S315000006903D31084B084A094803F0F8F840F22F317B
S315000006A0044B054A054803F0F1F800BF806E0000D0
S315000006B0FE010020E06800006C6B0000F46800009A
S315000006C008B5084B9B68D3E9011218681268904771
S315000006D000B908BD40F25531034B044A044803F003
S315000006E0D5F800BF0C000020E06800004C6B00004D
S315000006F0F4680000037913B90122014B1A707047A0
S31500000700FD01002008B5074BD3E9011218681268ED
S31500000710904700B908BD4FF45D71034B034A044886
S3150000072003F0B4F8106D0000E0680000346B0000C0
S31500000730F468000008B50649064802F0F9FA00B95F
S3150000074008BD4FF46171044B044A054803F09EF856
S31500000750CC6E000084020020E0680000DC6A000025
S31500000760F4680000F8B54FF4E867322600FB07F797
S31500000770264BBF08A3FB0737254DBF0807F50877AB
S31500000780012240F20F11284602F09AF908BB012215
S3150000079040F20451284602F093F9044670BB012149
S315000007A0384603F07BF8224640F20F11284602F045
S315000007B087F90246D8B940F20451284602F080F97A
S315000007C070B94FF47A71142003F068F8013ED7D15E
S315000007D0F8BD40F292310F4B0F4A104803F056F81D
S315000007E040F29B310B4B0C4A0C4803F04FF840F299
S315000007F09931084B084A094803F048F84FF46571E7
S31500000800044B054A054803F041F800BF176CC116B2
S3150000081084020020E0680000D06A0000F46800004E
S315000008202DE9F04F2DED028B024BCFB01D881DB97F
S31500000830FEE700BFA073000000245B68C4222146C7
S315000008401DA802931C9403F044FFC649C64801F054
S3150000085065FEFFF70BFDFFF733FFFFF7E5FDFFF73B
S315000008602DFDFFF753FEFFF74DFF41F26B033B22D1
S3150000087041F20141DFF828930DF1340AADF830104A
S31500000880ADF818308DF817200DF117030222B7487E
S3150000089006A9CDF82CA089F800400F94ADF8404089
S315000008A00E940A93CAF8004001F04AFD99F8003008
S315000008B0002BFBD04FF0000BFFF73CFF029BB2EE84
S315000008C0048A03EB450303935A235E46A84CDFF8DC
S315000008D0D482A54F01931CAD0198FFF743FFEFF3B8
S315000008E01082012383F31088A24B1B681BB9A2490F
S315000008F0CB704023CB709F490B6801330B6082F3AA
S3150000090010889E480299DDF80CC031F8022B130AB4
S315000009101B0153FA82F258F82230614503EA0003BC
S3150000092043EA0B0343F0040348F82230EDD1EFF31A
S315000009301082012383F310888E490B6813B10B686C
S31500000940013B0B608B4B1B681BB98B49CB7080231B
S31500000950CB7082F31088CBF1010308A85FFA83FB02
S31500000960FFF77AFD864B267093E8070085E80700B7
S31500000970284603F0D7FE29460246384601F088FD90
S31500000980237833B90121084602F088FF2378002B2B
S31500000990F8D0BDF92230BDF920207A49284603F067
S315000009A0A1FE2846267003F0BDFE294602463846BB
S315000009B001F06EFD237833B90121084602F06EFF7F
S315000009C02378002BF8D0BDF92630BDF924206E49D6
S315000009D0284603F087FE2846267003F0A3FE294624
S315000009E00246384601F054FD237833B90121084602
S315000009F002F054FF2378002BF8D016A8FFF79AFCD4
S31500000A00AC46624B26700FCBACE807002846ACF824
S31500000A10003003F087FE29460246384601F038FDCD
S31500000A20237833B90121084602F038FF2378002BDA
S31500000A30F8D0DDED167ABDEEE77AF8EEC76A77EE06
S31500000A40E67A67EE887AFDEEE77A17EE102A17EE59
S31500000A50903A4F49284603F045FE2846267003F093
S31500000A6061FE29460246384601F012FD237833B965
S31500000A700121084602F012FF2378002BF8D0DDEDA5
S31500000A80177ABDEEE77AF8EEC76A77EEE67A67EE92
S31500000A90887AFDEEE77A17EE102A17EE903A3D496E
S31500000AA0284603F01FFE2846267003F03BFE294623
S31500000AB00246384601F0ECFC237833B9012108469A
S31500000AC002F0ECFE2378002BF8D0DDED187ABDEEAF
S31500000AD0E77AF8EEC76A77EEE67A67EE887AFDEE91
S31500000AE0E77A17EE102A17EE903A2B49284603F0BC
S31500000AF0F9FD2846267003F015FE294602463846BB
S31500000B0001F0C6FC237833B90121084602F0C6FE7F
S31500000B102378002BF8D0DDED197ABDEEE77AF8EEF2
S31500000B20C76A77EEE67A67EE887AFDEEE77A17EE21
S31500000B30102A17EE903A1949284603F0D3FD2846A5
S31500000B40267003F0EFFD29460246384601F0A0FC68
S31500000B5023784BBB0121084602F0A0FE2378002B28
S31500000B60F8D021E0306E00000C0300208C0200203B
S31500000B7001020020D0040020000D0840FE3FFEFFC9
S31500000B80106900001C690000386900005469000003
S31500000B9064690000746900008469000094690000BB
S31500000BA0FD01002000080840DDED1A7ABDEEE77A67
S31500000BB0F8EEC76A77EEE67A67EE887AFDEEE77AB0
S31500000BC017EE102A17EE903ABE49284603F08AFD22
S31500000BD02846267003F0A6FD29460246384601F04F
S31500000BE057FC237833B90121084602F057FE2378D3
S31500000BF0002BF8D0DDED1B7ABDEEE77AF8EEC76A7A
S31500000C0077EEE67A67EE887AFDEEE77A17EE102A37
S31500000C1017EE903AAC49284603F064FD2846267044
S31500000C2003F080FD29460246384601F031FC237860
S31500000C3033B90121084602F031FE2378002BF8D0A3
S31500000C40002111A8FFF77AFCAC46DFF8ACE226706B
S31500000C50BEE80F00ACE80F00DEF800302846ACF81E
S31500000C60003003F05FFD29460246384601F010FCCD
S31500000C70237833B90121084602F010FE2378002BB1
S31500000C80F8D0119A9149284603F02CFD2846267083
S31500000C9003F048FD29460246384601F0F9FB237861
S31500000CA033B90121084602F0F9FD2378002BF8D06C
S31500000CB0129A8749284603F015FD2846267003F048
S31500000CC031FD29460246384601F0E2FB237833B966
S31500000CD00121084602F0E2FD2378002BF8D0139A92
S31500000CE07C49284603F0FEFC2846267003F01AFDD0
S31500000CF029460246384601F0CBFB237833B9012159
S31500000D00084602F0CBFD2378002BF8D0149A7249DE
S31500000D10284603F0E7FC2846267003F003FD294623
S31500000D200246384601F0B4FB237833B90121084660
S31500000D3002F0B4FD2378002BF8D0159A67492846AF
S31500000D4003F0D0FC2846267003F0ECFC2946024648
S31500000D50384601F09DFB237833B90121084602F09D
S31500000D609DFD2378002BF8D007A8FFF749FCAC4679
S31500000D70DFF888E12670BEE80F00ACE80F009EE8B9
S31500000D8003004CF8040BACF80010284603F0CAFC2C
S31500000D9029460246384601F07BFB237833B9012108
S31500000DA0084602F07BFD2378002BF8D0BDF81C2006
S31500000DB04B49284603F096FC2846267003F0B2FC01
S31500000DC029460246384601F063FB237833B90121F0
S31500000DD0084602F063FD2378002BF8D00AAB4148A1
S31500000DE00ECB89F8006001F0ADFA99F80030002BBF
S31500000DF0FBD0AC463C4B26700FCBACE80700284630
S31500000E008CF8003003F08EFC29460246384601F085
S31500000E103FFB237833B90121084602F03FFD2378D2
S31500000E20002BF8D0BAF80020304952BA92B22846C0
S31500000E3003F058FC2846267003F074FC2946024647
S31500000E40384601F025FB237833B90121084602F024
S31500000E5025FD2378002BF8D0BAF80220244952BA8F
S31500000E6092B2284603F03EFC2846267003F05AFC50
S31500000E7029460246384601F00BFB237833B9012197
S31500000E80084602F00BFD2378002BF8D0BAF80420B0
S31500000E90184952BA92B2284603F024FC2846267016
S31500000EA003F040FC29460246384601F0F1FA237861
S31500000EB033BB0121084602F0F1FC2378002BF8D061
S31500000EC01EE000BFA4690000B4690000D8690000F4
S31500000ED0EC690000006A0000146A0000286A00003D
S31500000EE0546A00008C0200206C6A00007C6A0000D4
S31500000EF0886A0000946A0000C46900003C6A000029
S31500000F00BAF80620484B52BA92B2A3FB0232120A32
S31500000F1046492432284603F0E5FB2846267003F0AE
S31500000F2001FC29460246384601F0B2FA237833B965
S31500000F300121084602F0B2FC2378002BF8D0BAF85B
S31500000F4008203B4952BA92B2284603F0CBFB28460A
S31500000F50267003F0E7FB29460246384601F098FA68
S31500000F60237833B90121084602F098FC2378002B38
S31500000F70F8D0BAF80A202F4952BA92B2284603F09E
S31500000F80B1FB2846267003F0CDFB294602463846BB
S31500000F9001F07EFA237833B90121084602F07EFC7F
S31500000FA02378002BF8D0BAF80C20234952BA92B213
S31500000FB0284603F097FB2846267003F0B3FB294624
S31500000FC00246384601F064FA237833B9012108460F
S31500000FD002F064FC2378002BF8D042F20F73BDF8C0
S31500000FE01C204FF47A719A4294BFB42300234FF425
S31500000FF0FA70019302F052FC104B28462B602670C3
S3150000100003F090FB29460246384601F041FA237860
S31500001010002B7FF461AC0121084602F03FFC2378E7
S31500001020002BF8D058E400BFC1C0C0C0A06A0000C1
S31500001030AC6A0000B86A0000C46A00001B5B480086
S3150000104008B5FFF7EDFB002008BD00BF062070477E
S31500001050062070470620704706207047C06D38B5D9
S31500001060056A14462B460A46D0E9061003F034F802
S31500001070002810DB2A686B68A9680128E8682260E6
S3150000108063602A696B69E060A1600448226118BF49
S315000010900020636138BD012038BD00BF0100030098
S315000010A008B5C36D93ED010AD3E9061002F014FEEC
S315000010B0003818BF012008BD06207047062070477B
S315000010C006207047062070470620704706207047A6
S315000010D0062070470620704706207047C36DDB6800
S315000010E05B691847C36DDB689B691847C36DDB688E
S315000010F0DB691847C36DDB681B6A1847C36DDB687D
S315000011005B6A1847C36DDB689B6A1847C36DDB686B
S31500001110DB6A18470346DB6D002083ED090AC3ED41
S315000011200A0A70474379002B4AD04FF0000C9FED16
S31500001130254ADFED254A9FED255ADFED255A70B584
S315000011401379846806EE903A0CF1010E14F80C50EF
S3150000115014F80E305479967803EB052304FA83F3DA
S3150000116007EE903AF8EEE66A07EE106AD378F8EEE4
S31500001170E77A06EE103AB8EE477A76EE846AB8EE6B
S31500001180C66A27EE057A67EEA67A37EE067A77EE16
S31500001190E47A67EE677A87EEA57AFCEEC77A17EEF1
S315000011A0903AC3F3072501F80C5001F80E30437945
S315000011B00CF102045FFA84FC6345C1D8002070BDBF
S315000011C000207047000020440000FA4800008043D9
S315000011D000803B4B10B50446836D9A6818685368C7
S315000011E09847236E13B1204600F090FB0020206044
S315000011F010BD00BF70B5144B0546006898421CBF71
S31500001200002385F85030AB6D9868C4681868A0470D
S315000012100646A8B90C4B2A689A4211D0652406E006
S31500001220013C01212846A4B200F04EFB54B195F8CA
S315000012305030002BF4D095F85230002B18BF1226F0
S31500001240304670BD1426FBE7444F4D5A93230146A2
S31500001250022221F8043FFFF7CDBF00BF022210B4DF
S315000012609324C16D80F84820896904714C6A011D78
S3150000127094F800C080F805C05DF8044BFFF7BABFCC
S3150000128070B584B001AC84E80E00164B02680546C2
S315000012909A421CBF002380F85030836D9A68186804
S315000012A0166994E80E00B0470646A8B90D4B2A68A1
S315000012B09A4211D0652406E0013C01212846A4B2D9
S315000012C000F002FB5CB195F85030002BF4D095F895
S315000012D05230002B18BF1226304604B070BD1426BB
S315000012E0FAE700BF444F4D5A90F84820012A01D032
S315000012F00F48704784B05FFA82FC8DF80CC04FF03F
S31500001300020C02460291C16D80F848C08B695B6A87
S3150000131093F8241002F8441F93F8253001928DF8B3
S315000013200D3004AB13E90E0004B0FFF7A9BF00BFF0
S315000013300200030003460121B72240F2011C84B0DB
S3150000134080F8471003F8442F011D0193ADF80CC037
S31500001350029104AB13E90E0004B0FFF791BF00BF82
S315000013602DE9F04F0B688A46C968044608460022F4
S3150000137002258BB00091DAF80410C4E915A3C4E97C
S315000013801701DAF808106166DAF81010A166DAF8C3
S31500001390141084F8462084F8485084F847209A6848
S315000013A0E1661268D3E9000190470546002846D158
S315000013B0236E23B1204600F08FFA00283ED1E36D5C
S315000013C09869D3E9042101611989026281811B7838
S315000013D00190022B37D03032019B04F1040B5A6284
S315000013E01EE027466FF06B0340F2011907F8443FF1
S315000013F0CDF81C800697ADF82090204696E80E00A2
S31500001400FFF73EFFD0B9C821204600F05DFAA8B923
S315000014109DF90C30002B18DAB5F57A7F00F094812F
S315000014204FF09303022259462046A380FFF7E2FEBF
S315000014300DF10C0806AE01350028D2D00546284627
S315000014400BB0BDE8F08F6032C6E7B5F57A7F00F0E5
S315000014507B8140F20123CDE9067BADF8203084F88C
S31500001460440096E80E002046FFF70AFF0028E5D163
S31500001470A388019A5BBA92899BB29A4201D006254B
S31500001480DDE706238DF821302023019D84F84430C2
S315000014906B1C0793204696E80E00FFF7F1FE002826
S315000014A0CCD1262384F844302B69204607936B6AF7
S315000014B093F82C308DF8213096E80E00FFF7E0FE09
S315000014C005460028BBD1B723E26D9269CDE9037BBF
S315000014D0ADF81490CDE90600CDE90800019284F834
S315000014E04430204698E80E00FFF7CAFE054600285D
S315000014F0A5D1019A3146106A0132FFF713FE05465F
S3150000150000289CD1019A136A1A7922715A7942B13C
S31500001510012311F8015B581C23441D71C3B29A4282
S31500001520F7D2594620460132FFF764FE05460028E9
S3150000153085D1019B1B6A1A7B22715A7B196901238B
S315000015403AB111F8015B581C23441D71C3B29A428B
S31500001550F7D2594620460132FFF74CFE05460028D1
S315000015607FF46DAF019B1B6A1A7D22715A7D9969C2
S3150000157001233AB111F8015B581C23441D71C3B213
S315000015809A42F7D2594620460132FFF733FE054606
S3150000159000287FF454AF019B1B6A1A7F22715A7F81
S315000015A0196A01233AB111F8015B581C23441D71D5
S315000015B0C3B29A42F7D2594620460132FFF71AFEC5
S315000015C0054600287FF43BAF236E0BB184F851002B
S315000015D093232371019B02221B6A59461B782046DE
S315000015E06371FFF707FE054600287FF428AF236ED8
S315000015F0002B00F0AB8094F85130002BFBD0002379
S3150000160084F851304FF00109019A2046136A93F885
S315000016102420039784F84420CDF810B08DF8149058
S3150000162093F825308DF8153098E80E00FFF728FE60
S31500001630054600287FF403AFA388019A5BBA53815D
S31500001640E38831465BBA1381E36D9F69CDE90600F5
S31500001650CDE9080007EB0902786AFFF763FD054646
S3150000166000287FF4ECAE7B6A1A7922715A7952B15E
S3150000167016F8011B09F10103A14489F804105FFA69
S3150000168083F94A45F4D2594620460132FFF7B2FDA6
S31500001690054600287FF4D3AE7B6A1A7B22715A7BFB
S315000016A0196901233AB111F8015B581C23441D71D5
S315000016B0C3B29A42F7D2594620460132FFF79AFD45
S315000016C0054600287FF4BBAE7B6A1A7D22715A7DDF
S315000016D0996901233AB111F8015B581C23441D7125
S315000016E0C3B29A42F7D2594620460132FFF782FD2D
S315000016F0054600287FF4A3AE7B6A1A7F22715A7FC3
S31500001700196A01233AB111F8015B581C23441D7173
S31500001710C3B29A42F7D2594620460132FFF76AFD14
S31500001720054600287FF48BAE009B5146DB682046B9
S315000017301B689847054600287FF481AE2846144B5F
S3150000174023600BB0BDE8F08F142578E64FF09409BE
S315000017500BE03221204600F0B7F800287FF46EAE89
S315000017609DF90B30002BBFF64DAF0DF10B03049323
S3150000177040F201130397ADF81430204698E80E00A6
S3150000178084F84490FFF77CFD0028E2D0054656E633
S31500001790444F4D5A03464FF0020C0121942200B5E6
S315000017A040F2011E85B080F848C080F8461003F864
S315000017B0442F00F145010193ADF80CE0029104AB12
S315000017C013E90E0005B05DF804EBFFF759BD00BF45
S315000017D030B503680279D96D586E83B08C69009074
S315000017E06AB105228DF804202A491868884220D05B
S315000017F0012183F8501083F8522003B030BD8DF8D4
S31500001800042024481D688542F2D193F8462062B32D
S315000018100A7802F0FB01012916D0092A14D093F99F
S315000018204520002A1ADB01228DF8042083F848207F
S3150000183017E093F8462093F847209B6E002BDCD0E8
S315000018406846984703B030BD626A93F84510527FE8
S3150000185001F01F015208013A8A42E4D002228DF8B3
S315000018600420002283F84620E7E793F84720002A61
S31500001870E3D01A79510608D4120644BF03228DF824
S315000018800420002283F84720D7E704228DF804209D
S31500001890F7E700BF444F4D5A03681A681AB9012288
S315000018A083F851207047012200B5586ED96E83B077
S315000018B000908DF8042083F8482009B168468847CF
S315000018C003B05DF804FB00BF08B508464FF47A7113
S315000018D001F0E4FF002008BD70B5046E0546D4E9AA
S315000018E0011320681B68984768B9A16803462A4611
S315000018F02068CD680449A84728B9A36820685B68B2
S31500001900BDE87040184770BD9918000008B5036E11
S315000019109A68186813699847002008BD0620704722
S3150000192010B5436A9C7EA31E032B04D8DFE803F0A0
S315000019301C1A02180C32043A01F10F0E8B7891F83A
S3150000194001C01B04087803F4702303EB0C23034443
S31500001950033142F8043F0CB98E45EFD1002010BD8B
S315000019601032E8E70832E6E70432E4E791F801C00E
S315000019700B78002003EB0C2313807047062070477A
S3150000198006207047062070471723426A82B00191ED
S31500001990037293796BB9BDF80430C3F30903D3839B
S315000019A00322190A817200F10801437202B000F0A5
S315000019B017BABDF80630C3F30903F0E710B50124E2
S315000019C04FF0230C022282B0ADF804109DF805E01A
S315000019D04477446AC9B2217384F805E0417200F184
S315000019E0080180F808C002B0BDE8104000F0F8B960
S315000019F010B483B002AB03E906009DF800209DF801
S31500001A000430012A12D04FF0020C0021446A9DF8DE
S31500001A1003206377227703F00F0342F0010284F874
S31500001A2004C003B05DF8044B00F040BB446A9DF867
S31500001A3001C0227100229DF8021084F808C061726C
S31500001A4041EA0C014FEA031CA37241F001015FFA5F
S31500001A508CF303B05DF8044B00F028BB436A4FF0EB
S31500001A60020C1B7940F20122022B04BF012383776B
S31500001A70034684B003F812CF01930291ADF80C200F
S31500001A8004AB13E90E0004B000F066B9436A84B0F3
S31500001A909A76F2B1A2F1020CBCF1030F1DD84FF0F9
S31500001AA0030C02EB42020132D2B21B790291012BE6
S31500001AB008BF83770346012103F8122F01938DF89F
S31500001AC00DC08DF80C1004AB13E90E0004B000F045
S31500001AD043B94FF00F0C0422E7E74FF0030C042242
S31500001AE0E3E700BF436A1B790BB10123837700222A
S31500001AF0114600F0CBBA00BF436AD97A93F807C003
S31500001B00DA7E41EA0C0142F0010241F0010100F0E7
S31500001B10BDBA00BF232170B5436A01721B7B00F179
S31500001B200805022229464372044600F059F900B11D
S31500001B3070BD2226636A26725B7E022229462046F3
S31500001B40637200F04DF90028F2D124230822666A58
S31500001B50237233692946C3F31303637223FA02FC23
S31500001B601B0C84F80AC0E37273692046C3F313039F
S31500001B70A3811B0CA373337EE37300F031F90028B5
S31500001B80D6D1636A2046597900F0A0FA0028CFD151
S31500001B901726636A2672DB8B0322C3F3090363727B
S31500001BA01B0A29462046A37200F01AF90028BFD165
S31500001BB0636A2046997900F095FA0028B8D119236E
S31500001BC0666A237296F8203096F824600222334320
S31500001BD029462046637200F003F90028A8D11B2687
S31500001BE0636A26725B8C032263721B0A29462046AF
S31500001BF0A37200F0F5F800289AD11A26636A2672B5
S31500001C0093F82A30022229462046637200F0E8F84B
S31500001C1000288DD11D23666A237296F82C3096F81B
S31500001C202B6003F07F03334302222946204663726A
S31500001C3000F0D6F800287FF47BAF1E23666A237275
S31500001C40F38C294663721B0AA372338D0522E37255
S31500001C501B0A2046237300F0C3F800287FF468AF00
S31500001C60A26A72B1656A2B79012B17D0022B0DD0AF
S31500001C7003460246014628712046BDE8704000F042
S31500001C8015BA616A13460A711146F5E72A7F6B7F1A
S31500001C90014642F0010203F00F03EDE72A7A697A62
S31500001CA0AB7A11431B01024641F00101DBB2E3E7C7
S31500001CB006207047436A1B685B681847436A1B68BF
S31500001CC09B681847436A1B68DB681847436A1B68AA
S31500001CD01B691847436A1B685B691847436A1B6898
S31500001CE09B691847436A1B68DB691847436A1B6888
S31500001CF01B6A1847436A82B01B68ADF80410019945
S31500001D00DB6A02B0184700BF436A82B01B680191C4
S31500001D101B6B02B0184700BF82B06B4683E8060013
S31500001D2093E80600436A1B689B6A02B0184700BF27
S31500001D30436A1B685B6B184710B50446036A9A68CA
S31500001D40186853689847A36A13B1204600F01CFA36
S31500001D500020206010BD00BF70B584B001AC84E8DF
S31500001D600E00144B026805469A421CBF00230374FA
S31500001D70036A9A681868166994E80E00B047064622
S31500001D8098B90C4B2A689A420FD0652406E0013CAC
S31500001D9001212846A4B200F0D5F94CB12B7C002BCA
S31500001DA0F5D06B7C002B18BF1226304604B070BDF0
S31500001DB01426FAE721572A630346002240F2012C33
S31500001DC084B0416103F8122F00F108010193ADF8C8
S31500001DD00CC0029104AB13E90E0004B0FFF7BCBFC0
S31500001DE070B5134B0546006898421CBF00232B7440
S31500001DF02B6A9868C4681868A047064698B90C4BC1
S31500001E002A689A420FD0652406E0013C0121284643
S31500001E10A4B200F097F944B12B7C002BF5D06B7C73
S31500001E20002B18BF1226304670BD1426FBE700BFF4
S31500001E3021572A63F0B50D4600234A680E694160B2
S31500001E4089680446C0E90961E96885B0C1626969C3
S31500001E5002620163A96903774361437783618377EC
S31500001E60936841631B68D2E90001984798B9A36A51
S31500001E701BB1204600F06EF968B94FF0150C00232F
S31500001E8004F10807032239462046A4F808C0A372C5
S31500001E90FFF7A6FF08B105B0F0BD48F21503022210
S31500001EA0394620462381FFF79BFF0028F3D10A21FC
S31500001EB0204600F047F90028EDD1234640F20122E2
S31500001EC003F8120F01930297ADF80C2004AB2046DD
S31500001ED013E90E00FFF740FF0028DCD133682946DE
S31500001EE020461B6898470028D5D1014B2360D2E7CE
S31500001EF021572A6330B502790468131E18BF0123DF
S31500001F00E06A87B08DF808305F4901902068884202
S31500001F1004D001222274637407B030BD002A3AD17E
S31500001F206369002B3ED094F90800217A0028B8BFD7
S31500001F3001221A7011F0020218BF012211F00101EC
S31500001F405A7016BF012299709A7094F90910627A34
S31500001F500029B4BF01210021D97012F0200118BF59
S31500001F600121197112F0100118BF0121597112F0E7
S31500001F70040118BF0121997112F0020118BF012155
S31500001F8012F0010218BF0122D9711A720022236BC6
S31500001F9062611BB9C0E7236B002BBDD001A898472F
S31500001FA007B030BDA369FBB1207A617A656A8842C1
S31500001FB028BF024695F82DC038BF00F120021870E0
S31500001FC04FF0000038BFD2B25970521AD2B2A17A7D
S31500001FD0BCF1040F08BF02F0FE029970DA70236BA1
S31500001FE0A061002BDAD197E7227F02F0FF011ABB2E
S31500001FF0637F03F0FF02002B31D1A37F002BCAD0F1
S31500002000234640F20121A27704F1080003F8122FBB
S3150000201004900393ADF8141006AB204613E90E00A6
S31500002020FFF79AFE00283FF477AF0122236B8DF865
S315000020300820002BB2D16FE7626A23771379214615
S31500002040032B04BF0123A37738230422204641F83B
S31500002050083FFFF7C5FE00283FF45EAFE5E74FF007
S315000020602E0C636A61775B79022243F009032046EE
S31500002070637204F1080184F808C0FFF7B1FE002876
S315000020803FF44AAFD1E700BF21572A6300B5944613
S315000020904FF0150E417280F808E080F80AC003225E
S315000020A05DF804EB00F10801FFF79ABE10B59646FD
S315000020B02B244172047280F80AE0C3720422BDE840
S315000020C0104000F10801FFF78BBE00BF4FF02E0C49
S315000020D041F009014172022280F808C000F10801AE
S315000020E0FFF77EBE4FF02F0C4172022280F808C027
S315000020F000F10801FFF774BE00B5036883B0596AA2
S31500002100D86A0A790090022A0DD0032A12D0012A31
S315000021100CD001228DF804205B6B0BB16846984702
S3150000212003B05DF804FB0A7F022A07D004228DF86B
S315000021300420F1E702228DF80420EDE703228DF852
S315000021400420E9E708B508464FF47A7101F0A6FBCA
S31500002150002008BD70B5846A0546D4E901132068DD
S315000021601B68984768B9A16803462A462068CD6867
S315000021700449A84728B9A36820685B68BDE8704091
S31500002180184770BDF920000008B5836A9A68186878
S3150000219013699847002008BD4FF0000CD1E90032C2
S315000021A010B54160C968C0E902329A6804461268EF
S315000021B0816180F810C0D3E90001904708B9014B4E
S315000021C0236010BD32443E43836810B59A680446C6
S315000021D01868536898470020206010BD0022014609
S315000021E0836810B402759C6818681431E3685DF85A
S315000021F0044B1847836810B49C6818680422A368C7
S315000022005DF8044B184700BF087810F0C0004AD1AB
S315000022100B889FED266A5BBA9BB207EE103AB8EEC2
S31500002220C77ADFED235A27EE067AC7EE256ABDEE9A
S31500002230E67A17EE103A1BB207EE903AF8EEE77A16
S3150000224076EEE76A66EE866AFDEEE66A138016EEBD
S31500002250903A5380CB78897803F0FC0343EA012354
S315000022609B1007EE903ADFED134AF8EEE77A67EE39
S31500002270A47A9FED115A87EEA57A77EE457ABDEEE0
S31500002280E77A17EE103A1BB207EE103AB8EEC77AA5
S3150000229077EEC77A67EE867AFDEEE77A938017EED9
S315000022A0903AD38070474FF4403070470000C842E0
S315000022B000FC7F46000025430000204206207047B0
S315000022C006207047062070470620704700B5027941
S315000022D00368003A18BF0122D868597C83B0009081
S315000022E08DF8042029B101219974DA7403B05DF8E0
S315000022F004FB9B69002BF9D06846984703B05DF84C
S3150000230004FB00BF034610B4CC68074AC3E90014B7
S315000023108C6800209C604C680969DA60C3E9064154
S315000023205DF8044B704700BF21332C320346002270
S31500002330596810464A60DA60704700BF00F05AB824
S3150000234000F070B884B00DF1040C8CE80E009CE827
S315000023500E0004B000F07EB870B5046803796268B8
S31500002360E169023B82B0012B9268009116D80025E4
S3150000237061698DF80450C1B1936810685E6822697E
S315000023802B46B047C4E9045530B10122A3698DF844
S3150000239004200BB16846984702B070BD9368106878
S315000023A0DB68984701238DF80430A369002BF1D12F
S315000023B002B070BD43685A68824217D070B59D68F6
S315000023C08368A96804460E691A7B99682868B0472D
S315000023D058B9A96862684E690346B4462868044934
S315000023E054602246BDE87040604770BD00207047CB
S315000023F05923000043682DE9F04104460D46164670
S315000024009F68FFF7D7FF58B9C4E904000346B868C8
S31500002410324644682946A4463868BDE8F04160471C
S31500002420BDE8F08143682DE9F04104460D461646A5
S315000024309F68FFF7BFFF58B9C4E904000346B868B0
S31500002440324684682946A4463868BDE8F0416047AC
S31500002450BDE8F08130B585B004AC04E90E004368F0
S3150000246004469D68FFF7A6FF80B9A968029A9DF801
S315000024700D3028688D68C4E90432AC4601239DF806
S315000024800C20019905B0BDE83040604705B030BD6D
S3150000249010B4046AA37803F07B03A370837803F077
S315000024A00303D21A0B440261A278C360837842F018
S315000024B0800203F00303022BA27005D00B780020E4
S315000024C0E3705DF8044B70470B88002043F47E43AD
S315000024D0E3815DF8044B7047F0B5846A85B0054624
S315000024E00F4694466E46B4B194E80F0086E80F0096
S315000024F0EB6920461B7884F804C02360EB6AC4E9C4
S3150000250002736B6A9847AC6A1CB196E80F0084E8C0
S315000025100F0005B0F0BD3446EAE700BF0022F0B573
S3150000252001240B78027003F5800303F58C531B021C
S3150000253003624B698D6943628378C16164F3010369
S315000025408262C56283704B7823B90222837862F374
S3150000255001038370012491F90B50C44A6B0905F0FD
S315000025601F07203304FA07F78E7A42F82370BFF369
S315000025704F8FBFF36F8FBE4B05F1C00753F827C0CF
S315000025806FF3104C43F827C053F82770B94F360144
S3150000259002EB050CF6B28CF8006347F8250091F9BA
S315000025A005500E794FEA551C05F01F0E0CF1200C54
S315000025B004FA0EFE42F82CE0BFF34F8FBFF36F8F85
S315000025C005F1C00C53F82CE06FF3104E43F82CE0E5
S315000025D053F82CC0360102EB050CF6B28CF80063FA
S315000025E047F8250091F907508E794FEA551C05F0FA
S315000025F01F0E0CF1200C04FA0EFE42F82CE0BFF37D
S315000026004F8FBFF36F8F05F1C00C53F82CE06FF3BB
S31500002610104E43F82CE053F82CC0360102EB050CA3
S31500002620F6B28CF8006347F8250091F909500E7A46
S315000026304FEA551C05F01F0E0CF1200C04FA0EFE95
S3150000264042F82CE0BFF34F8FBFF36F8F05F1C00C3C
S3150000265053F82CE06FF3104E43F82CE053F82C306F
S315000026603301DBB22A4482F8003347F82500EFF342
S31500002670108584F310884FF000447F4B0E785A681B
S31500002680F44022EA04025A605B6885F3108800224F
S3150000269040F2F934036A40F2F9359A701A715A72A7
S315000026A09A72DA725A830A7824FA02F2D60744BF7B
S315000026B04022DA740622CC691A770A784E78D54019
S315000026C0ED078F78CA7848BF4FF478414FEAC202C7
S315000026D048BF9982032E42EA071200F0C280002EFC
S315000026E014BFF221E221D2B21A709971227B082A14
S315000026F00EBF0A22520002F002025A736278A178D3
S31500002700D201490101F02001D2B20A430021197217
S3150000271094F800C0ACF10201012940F29880D2B2CF
S31500002720DA716268917855785970197865F3010104
S315000027301970D17812789974D97902F05C0201F097
S31500002740A3010A43DA710022C16902618261C26093
S31500002750426191F90550464B05F1C00153F82160DD
S3150000276062F3104643F8216053F82110BFF35F8FE0
S3150000277001266909890005F01F0501F1604101F58F
S31500002780614106FA05F5C1F880510D60C16991F9FC
S315000027900B5005F1C00153F8217062F3104743F85E
S315000027A0217053F82110BFF35F8F6909890005F086
S315000027B01F0501F1604106FA05F501F56141C1F811
S315000027C080510D60C16991F907E00EF1C00153F81F
S315000027D0215062F3104543F8215053F82110BFF3FE
S315000027E05F8F4FEA5E1189000EF01F0E01F1604106
S315000027F006FA0EF501F56141C1F880510D60C16917
S3150000280091F9091001F1C00553F8257062F31047DC
S3150000281043F8257053F82530BFF35F8F4B099B00B3
S3150000282001F01F0103F160438E4003F56143C3F8D5
S3150000283080611E60036A0CF0030C4CF0700C618919
S3150000284083F802C00D4B018143601046F0BDFF21A5
S31500002850BCF1020F08BF42F01002D2B25970DA7111
S3150000286071E7F22142F040023DE700BF00E100E0DF
S3150000287000600040D40400200040084055494353FE
S3150000288030B4EFF30383103B1F4A5BB203F1C00180
S3150000289052F821006FF3104042F8210052F821202F
S315000028A01A4A52F82300C3691B691BB103691BB19D
S315000028B030BC704703697BB9D0E9082400219378BE
S315000028C003F07F0343F004039370C160002CEFD044
S315000028D030BC8022FFF700BE827802F00301022995
S315000028E0C1680BD0046A91F800C084F803C002F0F6
S315000028F003029B1A0A44C0E90323D8E70C88056A39
S3150000290044F47E44EC81F2E700600040D4040020E9
S3150000291010B582B0EFF30383103B1F4A5BB203F19D
S31500002920C00152F821006FF3104042F8210052F81E
S3150000293021201A4A52F82340A27802F00303022B00
S31500002940236A0CBF198A5979A3690CBFC1F3080120
S31500002950C9B2019143B9636AB3B10422204602B0F9
S31500002960BDE81040FFF7B8BD02F0030201A9606997
S3150000297001F0A2FED4E90521A37803F003031A446B
S31500002980C91AC4E9052109B102B010BD636A002B5A
S31500002990FAD00122E2E700BF00600040D404002024
S315000029A010B5EFF303830E4A103B5CB252F82400D5
S315000029B0D0E90821937803F07B03937019B10222C2
S315000029C00021FFF789FD074A04F1C00352F82310DE
S315000029D06FF3104142F8231052F8233010BD00BFA8
S315000029E0D40400200060004010B5EFF303831A4AB8
S315000029F0103B5CB252F82400837803F00303022BE9
S31500002A00036A0CBF198A597993F804C00CBFC1F345
S31500002A100801C9B21CF0100F0CF0380206D093F86A
S31500002A201CC01CF0010F08BF42F0400293F804C01E
S31500002A300CF0C70C83F804C0436A0BB1FFF74CFDDA
S31500002A40064A04F1C00352F823106FF3104142F80E
S31500002A50231052F8233010BDD4040020006000403B
S31500002A600022034610461A60704700BF0B0A10B4D6
S31500002A701B01064C53FA81F154F821300020C3F3B0
S31500002A8040035DF8044B1370704700BF0008084010
S31500002A90090A490101F1804101F500214B68002036
S31500002AA013807047090A490123EA020C01F18041AB
S31500002AB01A4001F5002142EA0C4200208A60704764
S31500002AC00123C8B283404AB91A040B0A5B0103F119
S31500002AD0804303F5002300209A6070479AB2F4E71A
S31500002AE0090A490101F1804101F5002110B40C6881
S31500002AF002EA030C4CEA040C62EA030202EA0C0244
S31500002B0000205DF8044B0A60704700BF090A4901BE
S31500002B1001F1804101F500214B680020C3F30F430A
S31500002B2013807047012310B44FEA112C4FEA4C1C56
S31500002B300CF1804C0CF5002CDCF80440C9B203FA09
S31500002B4001F18BB201EA1441C91AB1FA81F14909BE
S31500002B5000205DF8044B1170704700BF090A490157
S31500002B6023EA020C01F180411A4001F5002142EAF4
S31500002B700C420020CA607047012A14D04FF48030FE
S31500002B800B0A5B0103F1804303F5002310B4CAB2BC
S31500002B90DC6800FA02F22243120C120400205DF8EF
S31500002BA0044BDA6070470B0A5B0103F1804303F5BF
S31500002BB00023D868C9B28A40024392B20020DA6084
S31500002BC0704700BF38B50488002C4CD000214368FC
S31500002BD040F20245043303EBC40040F2034C40F2DA
S31500002BE0044E0C460FE062452FD153F8042C02F038
S31500002BF0B852B2F1807F14BF41F0020144F00204E2
S31500002C000833834210D01A88AA42ECD153F8042C18
S31500002C10083302F0B852B2F1807F14BF41F00101CF
S31500002C2044F001048342EED1C943CDB2012000F045
S31500002C3005FF0E4B012093F8BB2414432C4083F868
S31500002C40BB44BDE8384000F0C9BE7245D8D153F840
S31500002C50042C02F0B852B2F1807F0CBF44F0040499
S31500002C6041F00401CCE7FF25E0E700BF00E00140AA
S31500002C70F8B50446FFF7A6FFEFF31082012383F3AE
S31500002C801088284E33681BB92749CB704023CB7078
S31500002C9033680133336082F3108823887BB362681C
S31500002CA003F1FF3E1FFA8EFE02F108011F4C01EBF5
S31500002CB0CE0E08E0D2B21B0113448E450A4644F8F4
S31500002CC023001CD008311068928810F4803F4FEA28
S31500002CD01223EFD0130AD2B202EB031C54F82C7065
S31500002CE01B01134420F480356FF310478E4544F8DA
S31500002CF02C700A4644F82C5044F82300E2D1EFF336
S31500002D001082012383F31088336813B13368013BC3
S31500002D10336033681BB980200349CB70C87082F3D7
S31500002D201088F8BDD0040020000D084000080840B7
S31500002D3008B5034B03600846FFF79AFF002008BD5D
S31500002D4054524F5008B50846FFF792FF002008BDC1
S31500002D5070B5012684B002AB68460C461546019351
S31500002D60ADF80060ADF80C100292FFF72BFFEFF301
S31500002D70108286F310881D490B681BB940261C4833
S31500002D80C370C6700B6801330B6082F31088EA03C8
S31500002D904FEA1423E4B219D41B01164A234442F81D
S31500002DA02350EFF31082012383F310880B6813B1CD
S31500002DB00B68013B0B600B681BB980200C49CB707C
S31500002DC0C87082F31088002004B070BD094A04EB75
S31500002DD0031052F820601B016FF3104642F8206082
S31500002DE025F4803642F82060D7E700BFD0040020E3
S31500002DF0000D0840000808400346002059601A727A
S31500002E00704700BF84460020CCE90E32CCF834105F
S31500002E10704700BF0346044ADB6800209B1AB3FADA
S31500002E2083F35B090B7070474349495230B5836B96
S31500002E3083B004460A466D46A3B193E8030085E8CD
S31500002E400300E16B1A711846626B19609047A36B19
S31500002E501BB195E8030083E80300002384F82B30B8
S31500002E6003B030BD2B46ECE730B4344B82B01B6A5E
S31500002E70026903F00F2301930199019D137C90F8D9
S31500002E802C409CB9C1F30321DBB2A1EB15618B4049
S31500002E909B0806D10823184602B030BC7047013B98
S31500002EA0F8D05178C909FAD1B323D371002390F829
S31500002EB02640016880F8274080F82830846980F829
S31500002EC02B30036280F82D3080F82E3080F82F30BA
S31500002ED080F830304B6AC46193F800C05C78BCF16E
S31500002EE0010F0CBF0523042343EA4403DBB2D3706E
S31500002EF0537943F00103537191F90F30002B08DB2E
S31500002F00012203F01F040E495B09A24041F8232069
S31500002F100269BF23D37190F82C1001F0FF0339B179
S31500002F200022134680F82C20184602B030BC7047A9
S31500002F3002211846517002B030BC704700E00140D3
S31500002F4000E100E090F808C0C0E90512BCF1010FED
S31500002F5080F82A3008D10022436880F826C05B003A
S31500002F6080F8243080F82520002380F82930FFF7E8
S31500002F707BBF00BF90F808C0C0E90512BCF1010F85
S31500002F8080F82A300AD10022436880F826C05B0008
S31500002F9043F0010380F8243080F82520012380F8CF
S31500002FA02930FFF761BF00BF2DE9F0434FF01F0C3A
S31500002FB05F27DF260269DFF89C9182F800C0177050
S31500002FC0167006684FF0000E776AD6F804C03E7990
S31500002FD04FF0B30846F0E0061674FE785A4C46F0F9
S31500002FE0E0065674BE78594D360106F0700646F076
S31500002FF0080696703E787F78012E0CBF05260426BB
S31500003000CC450CBF4FF0F70C4FF0770C46EA47065D
S31500003010F6B2D67082F805C082F806E082F807801C
S315000030204E7B91F911203601494BA718F6B287F865
S31500003030006302F1C00645F8220053F826706EF3CD
S31500003040104743F8267053F82660BFF35F8F4FF0A2
S31500003050010C5609B60002F01F0206F1604606F59D
S3150000306061460CFA02F2C6F8802132604E7B91F975
S315000030700F203601A718F6B287F8006302F1C006E2
S3150000308045F8220053F826706EF3104743F8267071
S3150000309053F82660BFF35F8F5609B60002F01F0291
S315000030A006F160460CFA02F206F56146C6F8802182
S315000030B032604E7B91F910203601A718F6B287F8D8
S315000030C0006302F1C00645F8220053F826706EF33D
S315000030D0104743F8267053F82660BFF35F8F5609F2
S315000030E0B60002F01F0206F160460CFA02F206F57F
S315000030F06146C6F8802132604E7B91F90E2031017F
S315000031001444C9B284F8001302F1C00145F8220044
S3150000311053F821406EF3104443F8214053F8213010
S31500003120BFF35F8F53099B0002F01F0203F1604358
S315000031300CFA02F203F56143C3F880211A609F225C
S3150000314003691A70BDE8F08300E100E0D4040020B2
S315000031500060004040420F0070B500250A7801600B
S3150000316002F5800202F51F62120202618A6842605D
S315000031700A7B0272CA6942630A6AC0E90E52EFF319
S31500003180108C012282F310880B78C3F109039A4050
S315000031900C4B5E6826EA02025A605B688CF3108864
S315000031A0FFF702FF084B80F82950C0E9075580F861
S315000031B02A50456180F82B50856180F82C50C360F9
S315000031C0284670BD0040084043494952C36913B9B7
S315000031D090F82C30A3B110B5002403690168DC71A6
S315000031E0FFF7E2FE90F82620836980F82820B322B4
S315000031F003620369C46180F82C400020DA7110BDB7
S3150000320090F82B30002BE6D1B32203690020DA7147
S31500003210704700BF38B5C3691BB990F82C30002B36
S315000032206ED0002403690168DC71FFF7BDFE90F8DB
S3150000323026208369C46180F82820036280F82C4028
S3150000324000214FF0B30C01230269056882F807C01C
S31500003250D171C16095F911202C4C4FEA521C02F035
S315000032601F0203FA02F20CF1200C44F82C20BFF3E3
S315000032704F8FBFF36F8F026892F90E204FEA521CF0
S3150000328002F01F0203FA02F20CF1200C44F82C2083
S31500003290BFF34F8FBFF36F8F026892F910204FEA8A
S315000032A0521C02F01F0203FA02F20CF1200C44F841
S315000032B02C20BFF34F8FBFF36F8F026892F90F2058
S315000032C04FEA521C02F01F0203FA02F20CF1200C24
S315000032D044F82C20BFF34F8FBFF36F8FEFF31084AA
S315000032E083F3108800680A4A0078C0F10900834019
S315000032F0506803435360536884F31088084638BD0A
S3150000330090F82B30002B9BD08BE700BF00E100E04C
S315000033100040084010B483B0EFF30383103B4A4AE1
S315000033205BB2C03352F823106FF3104142F82310FA
S3150000333052F82330EFF30383444A103B5BB252F852
S31500003340233093F82D20BAB99A69012A1A6982BFE7
S31500003350117941F040011171D969012917D0012174
S31500003360D27CD2B28DF807209DF8072083F82D1065
S3150000337003B05DF8044B7047DA69002AF8D0032AD7
S315000033800ED0022A4ED0012A21D019690DE01179FA
S3150000339041F010011171117941F008011171DEE758
S315000033A019690A7942F040020A71C87C1A6A596999
S315000033B08854D3E907210131013AC3E90721002ADC
S315000033C0D6D119690B7962F386130B71D0E793F89E
S315000033D02A1089B319681E4C91F90F10480901F09B
S315000033E01F0102FA01F1203044F82010BFF34F8F7D
S315000033F0BFF36F8F4FF0040C1969C87940F0800055
S31500003400C871087940F01000087108796FF3C3009D
S31500003410087181F801C048796FF30000487183F89C
S315000034202C20C2E719690A7942F010020A710A795A
S3150000343042F008020A71B8E7082019694A7A02F0D0
S31500003440F7024A724870B0E700600040D4040020DA
S3150000345000E100E0EFF30383103B384A5BB2C03370
S3150000346052F823106FF3104142F8231052F823301C
S31500003470EFF30383324A103B5BB252F8232092F8F3
S315000034802730002B3AD192F82930002B35D1D36959
S3150000349010B4002B44D11069C179C0236FF3C71152
S315000034A0C17101E0013B02D0C179C909FAD11368A3
S315000034B0224A93F9103003F1C00152F821406FF30C
S315000034C0104442F8214052F82120002B09DB01214B
S315000034D05A091C4C03F01F03603201FA03F344F847
S315000034E02230C3795DF8044B43F04003C371704743
S315000034F0022909D192F8300030B9704792F82610A7
S31500003500032992F82810F3D092F824C010690131EB
S31500003510013B80F812C082F8281082F827307047E5
S31500003520116AD2E90404645C013B01318474C2E986
S315000035300731002BB0D05DF8044B704700600040A7
S31500003540D404002000E100E010B4EFF303832D4A19
S31500003550103B5BB252F8233093F829201AB193F846
S315000035602720012A49D0DA69E2B11969CA79C0234C
S315000035706FF38612CA7101E0013B02D0CA79520686
S31500003580FAD4EFF30383103B1F4A5BB2C03352F801
S3150000359023106FF3104142F8231052F823305DF8E0
S315000035A0044B704793F82A10F9B14FF0010C1968D3
S315000035B0164C91F90F10480901F01F0120300CFA42
S315000035C001F144F82010BFF34F8FBFF36F8F1969D5
S315000035D0C87940F08000C87104204870487962F3C9
S315000035E00000487183F82CC0C0E7082219694B7A9D
S315000035F003F0F7034B724A70B8E793F83020002ABD
S31500003600B1D1B2E7D40400200060004000E100E040
S3150000361010B5EFF30383E0214C4A103B5BB252F83E
S31500003620230003695A7A59725FFA82FC02F0030496
S31500003630D2061DD55A78510649D40121C26980F8AF
S315000036402B10002A5FD000240168DC71FFF7ACFC68
S3150000365090F8261082690369C46180F82810026216
S3150000366080F82C40B3220121DA71FFF7DFFB12E06C
S31500003670002CE2D11CF0080F1CD090F82B20002A59
S315000036804AD190F82910B322002914BF0221032140
S31500003690DA71FFF7CBFBEFF30383103B2C4A5BB2E7
S315000036A0C03352F823106FF3104142F8231052F83A
S315000036B0233010BD90F82C20002AECD01CF0040F0B
S315000036C0E9D090F82B200121002AE2D1D9E7002C7D
S315000036D0B3D15A78C2F380115206CBD5082480F8AC
S315000036E02B105A7A016802F0F702496A5A725C7026
S315000036F00A78012A0CBF03220222DA705A7942F0B4
S3150000370001025A71C7E790F82C20002A9BD190F845
S315000037102B20002AA6D096E7C2696AB100228169E9
S3150000372090F82640C0E9072180F8284080F82C2030
S31500003730B3220121DA71ACE790F82C20002AEDD1F2
S3150000374090F82B20002AF3D0E8E700BFD40400202D
S3150000375000600040064B074993F826001A6A51F8A4
S315000037602030C2F302620449D3400B60704700BFA9
S3150000377000E00140C001002060060020F8B54AF2D2
S31500003780035001233749384AA1F8FE03A2F8043151
S31500003790B2F804319BB2002BFAD101214FF4004557
S315000037A04FF0090C314CDFF8DCE0314EC4F804E090
S315000037B0DFF8D4E02B48C4F80CE02E4FA2F8001135
S315000037C02D4AB16031606261276090F82620A560BD
S315000037D02561056A54F82220C5F30265EA40274DA3
S315000037E02A6080F8133480F8A2C090F8803493B32E
S315000037F000231C4981F8813481F8803481F8363001
S3150000380091F83C30DA07FBD543F212100023154A33
S31500003810088581F82A3092F83C309B06FBD50320B8
S315000038200523114981F81C0115490120116282F80E
S31500003830263092F82630116A54F82330C1F302611B
S31500003840CB402B604FF4254382F8300082F85200BB
S31500003850A2F8FE33F8BD80F8801440F2C44000F0B0
S315000038601DF8C5E700E0014000C00140C00100208E
S3150000387000700040002D3101AA21EF0960060020EA
S315000038802112012000127A0000366E0100BEFEE70A
S31500003890A0F101000028FBD1704700BF10B54FF41E
S315000038A07A72164C164B24684FF0000EB3FBF4FCEC
S315000038B04FF0FF3300FB01F1A1FB020483427EEBD4
S315000038C0040407D3B0FBFCF0800880B1BDE81040CB
S315000038D0FFF7DEBF4FEA8C0CB1FBFCF1A1FB021235
S315000038E08B427EEB020203D308460028EED110BDC0
S315000038F01846BDE81040FFF7CBBF00BF60060020AA
S3150000390000CA9A3B70B500240A4B0B4EB3F84051DF
S31500003910ADB225FA04F3DB07E0B203D556F824303E
S3150000392003B198470134102CF3D1024BA3F8305160
S3150000393070BD00BF006000409004002030B56FF0FD
S31500003940FF0585B0032000F079F84FF0FF311F4CDA
S315000039501F482246856400230125CDE90111039104
S3150000396004F1C00E32F8020F590960B104A800EB49
S31500003970810151F80C0C03F01F0C05FA0CFC20EA2F
S315000039800C0041F80C0C724503F10103EAD10199D0
S31500003990104B0F4A03201167C3F880120299516732
S315000039A0C3F8841203999167C3F8881200F016F8D9
S315000039B00023094803F1C00234F8021F0133602BCB
S315000039C040F82210F6D105B030BD00BF5A71000094
S315000039D00080004000E100E000600040EFF310814D
S315000039E0012383F31088124B33F8102092B22AB1C8
S315000039F033F81020013A92B223F8102033F8103031
S31500003A009BB293B90B4A10B4B2F8FE330A4C9BB280
S31500003A1034F8100043F4254323EA0003A2F8FE33EA
S31500003A2081F310885DF8044B704781F31088704766
S31500003A305406002000E001409873000030B4EFF314
S31500003A401081012383F310880E4A32F810309BB29E
S31500003A506BB90D4C0D4DB4F8FE3335F810C09BB262
S31500003A6043EA0C0343F425439BB2A4F8FE3332F831
S31500003A70103001339BB222F8103081F3108830BC2D
S31500003A80704700BF5406002000E001409873000014
S31500003A900D4908B50A6803464AB103330B4823F0BB
S31500003AA003031344834206D810460B6008BD08483A
S31500003AB002460860F1E700F0F9FD0C234FF0FF32F3
S31500003AC00360104608BD00BF5C0600207806002093
S31500003AD07806002000BE704708B500F003F8FDF731
S31500003AE0AFFAFEE74FF4700270B5244B244CC3F8CE
S31500003AF0882000209C60FCF7A3FBFFF73FFE012017
S31500003B00FCF79EFB2368A3F5806383F30A881D48B0
S31500003B101D4A0021121A00F0DCFD1C481C4A1D49F2
S31500003B20121A00F0C9FD1C4D1C4B5B1B002B07DD58
S31500003B3000249E1055F8043B01349847A642F9DC50
S31500003B40FFF708FE0320FFF779FF00234FF6FF700B
S31500003B50134903F108020133092B21F81200F8D1A9
S31500003B600320FFF73BFF0220FCF76AFBFFF7E6FEA8
S31500003B70BDE87040002000F015B800BF00ED00E081
S31500003B8000000000E0010020740600200000002074
S31500003B90C00100207C740000B8010020BC01002098
S31500003BA0000D0840704700BF42F2103370B58A8995
S31500003BB02DED028B9A4277D10B69F7EE086A1A78D7
S31500003BC0DFED3C7A07EE102AB8EEC77A27EE267AA2
S31500003BD0F7EE004AC7EE276AC4EEA67AC0ED0C7A65
S31500003BE05A789B7807EE902A9FED335AB8EE677A9B
S31500003BF006EE903A67EE057AF8EEE66ADFED2F5AA2
S31500003C0077EEA67A9FED2E6A67EEA57A87EE867A1C
S31500003C10B5EEC07AF1EE10FA04464FF0000580EDDD
S31500003C200D7A44D9B1EE408ADFED267A0026C8EE39
S31500003C30277A254B80ED000A4361067617EE900A37
S31500003C4000F004FC41EC100B01F0C6F9002053EC27
S31500003C50102B1E4900F09AFA00F0D8FCDFED1C7A12
S31500003C60C8EE277AA060256117EE900AE561256205
S31500003C706562A562E562A68100F0E8FB41EC100BE7
S31500003C8001F0AAF9002053EC102B104900F07EFA3F
S31500003C9000F0BCFC0F4BA563E563656460602364BC
S31500003CA03046BDEC028B70BD6FF01F06F8E76FF073
S31500003CB02006F5E700007F43000080438096984A7F
S31500003CC000FF7F47000096430000C8420000F03F17
S31500003CD0000020420000C843FFF766BFFFFFFFFF5A
S31500003CE038B52DED048B81ED000A037E0D46FF2BC2
S31500003CF004461AD00133DBB20F2B037615D8BDEC80
S31500003D00048B00234FF0000C4169DD4A80ED040A64
S31500003D10A4F80CC0012069602B61EB60AB606A619E
S31500003D20A363E3636364226438BDD4ED046A94ED4F
S31500003D30026A70EE667A67EE867A77EEA67A9FED6D
S31500003D40D17A70EE676AF4EEC76AF1EE10FA00F304
S31500003D5008819FEDCD6AF4EEC66AF1EE10FA4ABF0D
S31500003D6030EE077AC4ED047A70EE476ADFEDC77A63
S31500003D70F4EEE76A48BF84ED047AF1EE10FA00F338
S31500003D80FE80DFEDC37AF4EEE76AF1EE10FA00F199
S31500003D90F680A389002B40F05881DFEDBE7AB4EEA1
S31500003DA0E70AF1EE10FA07D5DFEDBB7AB4EEE70AC3
S31500003DB0F1EE10FA00F3378194ED057AF7EE007A0A
S31500003DC0C7EE876A87EE808A38EE668AB5EEC08AC5
S31500003DD0F1EE10FA206B48BF9FEDB08A00F036FB7B
S31500003DE0D4ED0D7A68EE277A41EC190B17EE900A9E
S31500003DF000F02CFBB0EE491AF0EE691A41EC100BFC
S31500003E0001F03AF9002251EC100BA54B02F0E4FA4E
S31500003E1000F0FCFBDFEDA37A08EE100AB4EEE78AA9
S31500003E20F1EE10FA00F1CB8000F010FBDFED9E8A78
S31500003E3041EC100B68EE288A9FED8B1B01F01CF9F4
S31500003E408BA3D3E9002351EC100B02F0C5FA00F066
S31500003E50DDFB237E07EE100A012B40F2B780D4ED7E
S31500003E60073A94ED016A78EEE36A66EE866AD4ED67
S31500003E700A7A76EEA36A042B76EEE77A40F2CE80D3
S31500003E8094ED005ADFED895A9FED894A65EE255A71
S31500003E90F1EE004A85EE846A26EE246AF4EEC67ACE
S31500003EA0F1EE10FA40F39B8094ED0B6A76EEE37A1E
S31500003EB077EE867AC4ED0B7A76EEE77ADFED7D5AF9
S31500003EC09FED7D6A67EEA57AF4EEC67AF1EE10FAFA
S31500003ED065D5DFED7A5AF0EE467A36EEE56A84ED80
S31500003EE00B6A94ED0E4AD4ED0F4A94ED115AD4EDB7
S31500003EF0105AB5EE006A38EE448A78EEE48A37EE58
S31500003F00457A77EEE57A28EE068A68EE868A27EE07
S31500003F10067A67EE867A38EE048A78EEA48A37EE59
S31500003F20057A77EEA57A616A226A636984ED0E8A5C
S31500003F30C4ED0F8AC4ED083AC4ED076A84ED117A20
S31500003F40C4ED107AA1626262002085ED048AC5ED97
S31500003F50038ABDEC048B85ED027AC5ED057A6B60AC
S31500003F6038BD30EE477ADFED497A70EE476AF4EEF7
S31500003F70E76AF1EE10FA84ED047A7FF702AFDFED1F
S31500003F804D6A94ED007AC6EE877AFCEEE77A17EE74
S31500003F90903A9BB2A381002B7FF40EAFFDE69FED16
S31500003FA0486AF4EEC67AF1EE10FA9ADD9FED456A9C
S31500003FB036EEC66AF0EE657A84ED0B6A91E7DFEDC0
S31500003FC0428A9FED2D0BB0EE678A35E7D4ED0B7A6A
S31500003FD0D4ED073AF0EE686A78EEE77A6EE79FED81
S31500003FE03B6A25EE065A85EE046A66EE244AF4EE2E
S31500003FF0E47AF1EE10FA11D5F7EE007AF4EEE73A2C
S31500004000F1EE10FA28DD94ED0B6A26EE866AC6EE0E
S31500004010237AC4ED0B7A76EEE77A4FE7D4ED0B7A86
S3150000402076EEE77A4AE794ED057AB4EEC07AF1EED9
S3150000403010FA70EE477AC4BFDFED256A67EEA67AFE
S3150000404037EE877A84ED057AB8E6013B9BB2A38109
S31500004050002B7FF4B1AEA0E60023F0EE667AE362B1
S315000040602CE700BFAFF30080000000000000D03F47
S315000040700000006066660A4000000060EF44813F71
S315000040800000C84300504348005043C800409C46C7
S3150000409000409CC60024F44900401C460000000075
S315000040A0000024407B270A3CD7A3F03F9A99993E0B
S315000040B000007042000096430000C843ABAAAA3F26
S315000040C000409C45555585416EDD813C9A9999BEC7
S315000040D072211536FFFFFFFF38B52DED028B1288D2
S315000040E0B1F80AE052BA92B2964504461D4691F8D6
S315000040F001C0088939D290420BD89FED1F8A294604
S31500004100B0EE480ABDEC028B2046BDE83840FFF70A
S31500004110E7BD07EE90CAA2EB0E03B8EEE77A07EE0C
S31500004120903A821AF8EEE76ADFED145A07EE902A03
S31500004130B8EEE76A67EE257A67EEA67A87EE868A94
S3150000414018EE100A00F082F909A3D3E9002300F063
S3150000415053FA0028D1D1DFED0A7AB4EE678AF1EE80
S3150000416010FA48BFB0EE678AC9E79FED058AC6E731
S31500004170000000A2941A6D42A5D4685300007A4448
S315000041800000C84281F0004102E000BF83F0004316
S3150000419030B54FEA41044FEA430594EA050F08BFDC
S315000041A090EA020F1FBF54EA000C55EA020C7FEAA0
S315000041B0645C7FEA655C00F0E2804FEA5454D4EB1D
S315000041C05555B8BF6D420CDD2C4480EA020281EAE7
S315000041D0030382EA000083EA010180EA020281EA1F
S315000041E00303362D88BF30BD11F0004F4FEA013171
S315000041F04FF4801C4CEA113102D0404261EB410180
S3150000420013F0004F4FEA03334CEA133302D0524205
S3150000421063EB430394EA050F00F0A780A4F10104C1
S31500004220D5F1200E0DDB02FA0EFC22FA05F28018FB
S3150000423041F1000103FA0EF2801843FA05F35941E1
S315000042400EE0A5F120050EF1200E012A03FA0EFC60
S3150000425028BF4CF0020C43FA05F3C01851EBE3718A
S3150000426001F0004507D54FF0000EDCF1000C7EEBA7
S3150000427000006EEB0101B1F5801F1BD3B1F5001FE5
S315000042800CD349085FEA30004FEA3C0C04F1010404
S315000042904FEA445212F5800F80F09A80BCF1004F2D
S315000042A008BF5FEA500C50F1000041EB045141EAAF
S315000042B0050130BD5FEA4C0C404141EB0101013C78
S315000042C028BFB1F5801FE9D291F0000F04BF014667
S315000042D00020B1FA81F308BF2033A3F10B03B3F139
S315000042E020020CDA0C3208DD02F1140CC2F10C02C9
S315000042F001FA0CF021FA02F10CE002F11402D8BF27
S31500004300C2F1200C01FA02F120FA0CFCDCBF41EAF2
S315000043100C019040E41AA2BF01EB0451294330BDC1
S315000043206FEA04041F3C1CDA0C340EDC04F114049E
S31500004330C4F1200220FA04F001FA02F340EA030075
S3150000434021FA04F345EA030130BDC4F10C04C4F1BB
S31500004350200220FA02F001FA04F340EA030029469B
S3150000436030BD21FA04F0294630BD94F0000F83F4E5
S31500004370801306BF81F480110134013D4EE77FEAC8
S31500004380645C18BF7FEA655C29D094EA050F08BF14
S3150000439090EA020F05D054EA000C04BF19461046F5
S315000043A030BD91EA030F1EBF0021002030BD5FEA39
S315000043B0545C05D14000494128BF41F0004130BD61
S315000043C014F580043CBF01F5801130BD01F00045B5
S315000043D045F0FE4141F470014FF0000030BD7FEA28
S315000043E0645C1ABF194610467FEA655C1CBF0B4623
S315000043F0024650EA013406BF52EA033591EA030F3A
S3150000440041F4002130BD00BF90F0000F04BF002131
S31500004410704730B54FF4806404F132044FF0000564
S315000044204FF0000150E700BF90F0000F04BF0021DD
S31500004430704730B54FF4806404F1320410F0004543
S3150000444048BF40424FF000013EE700BF42004FEA3E
S31500004450E2014FEA31014FEA02701FBF12F07F43BB
S3150000446093F07F4F81F06051704732F07F4208BF72
S31500004470704793F07F4F04BF41F40021704730B579
S315000044804FF4607401F0004521F000411CE700BFC5
S3150000449050EA010208BF704730B54FF000050AE048
S315000044A050EA010208BF704730B511F0004502D549
S315000044B0404261EB41014FF4806404F132045FEA4B
S315000044C0915C3FF4D8AE4FF003025FEADC0C18BFF4
S315000044D003325FEADC0C18BF033202EBDC02C2F1E6
S315000044E0200300FA03FC20FA02F001FA03FE40EA78
S315000044F00E0021FA02F11444BDE600BF4FF0FF3C66
S3150000450006E000BF4FF0010C02E000BF4FF0010CC7
S315000045104DF804CD4FEA410C7FEA6C5C4FEA430C40
S3150000452018BF7FEA6C5C1BD001B050EA410C0CBF8F
S3150000453052EA430C91EA030F02BF90EA020F0020F1
S31500004540704710F1000F91EA030F58BF994208BF58
S3150000455090422CBFD8176FEAE37040F00100704715
S315000045604FEA410C7FEA6C5C02D150EA013C07D16C
S315000045704FEA430C7FEA6C5CD6D152EA033CD3D0B7
S315000045805DF8040B704700BF8446104662468C46B1
S315000045901946634600E000BF01B5FFF7B7FF0028E4
S315000045A048BF10F1000F01BD4DF808EDFFF7F4FF0D
S315000045B00CBF012000205DF808FB00BF4DF808ED98
S315000045C0FFF7EAFF34BF012000205DF808FB00BFBB
S315000045D04DF808EDFFF7E0FF94BF012000205DF8DD
S315000045E008FB00BF4DF808EDFFF7CEFF94BF012092
S315000045F000205DF808FB00BF4DF808EDFFF7C4FF8B
S3150000460034BF012000205DF808FB00BF4FEA4102DD
S31500004610B2F1E04324BFB3F5001CDCF1FE5C0DD91A
S3150000462001F0004C4FEAC0024CEA5070B2F1004F64
S3150000463040EB830008BF20F00100704711F0804F67
S3150000464021D113F13872BCBF01F00040704741F42C
S3150000465080114FEA5252C2F11802C2F1200C10FA30
S315000046600CF320FA02F018BF40F001004FEAC12314
S315000046704FEAD32303FA0CFC40EA0C0023FA02F3B8
S315000046804FEA4303CCE77FEA625307D150EA01338E
S315000046901EBF4FF0FE4040F44000704701F000405E
S315000046A040F0FE4040F40000704700BF014B186820
S315000046B0704700BF540100200A44431E914200D1B6
S315000046C0704710B511F8014B914203F8014FF9D12B
S315000046D010BD02440346934200D1704703F8011B04
S315000046E0F9E7FFFF0EB400B59CB06FF000411DABBB
S315000046F002900690079104910848094953F8042B43
S31500004700059102A90068019300F070F8029B00224F
S315000047101A701CB05DF804EB03B07047540100201A
S315000047200802FFFF034613F8012B002AFBD1181AD3
S31500004730013870472DE9F0478E6882460C46904650
S315000047409E421F4638D88A8912F4906F32D0256867
S3150000475001330969A5EB0109656905EB45054B447C
S3150000476005EBD5756D109D4238BF1D46530531D5F5
S31500004770294600F065FB064650B90C234FF0FF3082
S31500004780CAF80030A38943F04003A381BDE8F0874F
S315000047904A462169FFF790FFA38923F4906343F00B
S315000047A08003A38126614E446561A5EB0905266059
S315000047B03E46A560BE4200D93E4632464146206886
S315000047C000F0B8FAA36800209B1BA360236833445B
S315000047D02360DBE72A4600F0A7FB06460028E1D166
S315000047E02169504600F0C0FAC7E7FFFF2DE9F04FF8
S315000047F098468B899DB007461B060D4614460ED576
S315000048000B6963B9402100F01BFB2860286120B9C1
S315000048100C233B604FF0FF30D1E040236B61002357
S31500004820CDF80C804FF00109DFF8AC810993202305
S315000048308DF8293030238DF82A3023469A4613F80E
S31500004840012B0AB1252AF9D1BAEB040B0BD05B4632
S31500004850224629463846FFF76DFF013000F0AA8050
S31500004860099A5A4409929AF80030002B00F0A28067
S3150000487000234FF0FF320AF1010A049307938DF8E3
S3150000488053301A93CDE9052354460522524814F8AD
S31500004890011B00F041FA049AD8B9D00644BF202380
S315000048A08DF85330110744BF2B238DF853309AF8F7
S315000048B000302A2B15D0079A544600204FF00A0CD8
S315000048C0214611F8013B303B092B4ED9B0B1079276
S315000048D014E0A0EB0803A24609FA03F3134304937A
S315000048E0D2E7039B191D1B68002B0391BBBF5B42DC
S315000048F042F0020207930793B8BF049223782E2B47
S315000049000CD163782A2B35D1039B02341A1D1B6800
S31500004910002B0392B8BF4FF0FF330593DFF8C8A012
S3150000492003222178504600F0F7F940B14023A0EB6E
S315000049300A00013403FA00F0049B0343049314F8BD
S31500004940011B062225488DF8281000F0E5F90028FD
S3150000495038D0234B1BBB039B073323F007030833D5
S315000049600393099B3344099367E70CFB02320C4619
S315000049700120A5E7002301344FF00A0C19460593E0
S31500004980204610F8012B303A092A03D9002BC5D04E
S315000049900591C3E70CFB012104460123F0E703ABB5
S315000049A02A4604A9384600930E4B00E000BF421C7D
S315000049B00646D6D1AB895B063FF52CAF09981DB0EC
S315000049C0BDE8F08F03AB2A4604A938460093054B91
S315000049D000F07CF8EBE700BFB4730000BE73000084
S315000049E00000000035470000BA7300002DE9F047CB
S315000049F0164699468A6807460B690C46DDF82080FC
S31500004A009342B8BF1346336091F843200AB101338D
S31500004A1033602368990642BF3368023333602568E2
S31500004A2015F0060506D104F1190AE36832689B1AE7
S31500004A30AB4229DC94F84320131E226818BF0123D9
S31500004A4092062ED404F1430249463846C047013047
S31500004A5021D023681A3454F80E5C03F0060332683A
S31500004A600026042B54F8123C08BFAD1A54F80A2C41
S31500004A7014BF002525EAE5759342C4BF9B1AED18BD
S31500004A80B5421AD1002008E001235246494638466D
S31500004A90C047013003D14FF0FF30BDE8F087013544
S31500004AA0C3E7E1185A1C30200233224481F8430040
S31500004AB094F8451082F84310C4E70123224649467C
S31500004AC03846C0470130E6D00136D9E72DE9FF4721
S31500004AD00F7E914680460C46782F9A460C9D01F132
S31500004AE0430207D8622F0AD8002F00F0D880582F2B
S31500004AF000F0A38004F1420584F842703AE0A7F181
S31500004B006303152BF6D801A151F823F0654B00007D
S31500004B10794B0000F54A0000F54A0000F54A00000E
S31500004B20F54A0000794B0000F54A0000F54A0000FE
S31500004B30F54A0000F54A0000854C0000A94B00002C
S31500004B40674C0000F54A0000F54A0000A74C00003B
S31500004B50F54A0000A94B0000F54A0000F54A00009E
S31500004B606F4C00002B681A1D1B682A6004F1420571
S31500004B7084F842300123A3E020682968060601F183
S31500004B8004030AD50E682B60002E03DA2D23764225
S31500004B9084F843305E480A2319E00E6810F0400F8F
S31500004BA02B6018BF36B2EFE72B682068191D296005
S31500004BB0010601D51E6802E04606FBD51E886F2F4A
S31500004BC053480CBF08230A23002184F84310656864
S31500004BD0002DA560A2BF216821F0040121600EB955
S31500004BE0002D4DD01546B6FBF3F103FB1167C75DEB
S31500004BF005F8017D37460E46BB42F4D9082B0BD18A
S31500004C002368DE0708D5236961689942DEBF302331
S31500004C1005F8013C05F1FF35521B22614B4603AAFC
S31500004C2021464046CDF800A0FFF7E0FE01304CD10A
S31500004C304FF0FF3004B0BDE8F087354881F8457085
S31500004C402968236851F8046B29601D0614D5DF070F
S31500004C5044BF43F0200323601EB9236823F02003DA
S31500004C6023601023B0E7236843F0200323607823F2
S31500004C70284884F84530E3E7590648BFB6B2E6E768
S31500004C801546BBE72B682668181D6169286035063E
S31500004C901B6801D5196002E07006FBD51980002358
S31500004CA015462361BAE72B6800211A1D2A601D6884
S31500004CB06268284600F030F808B1401B60606368FF
S31500004CC02361002384F84330A8E723692A4649462E
S31500004CD04046D0470130ABD023689B0713D4E06829
S31500004CE0039B9842B8BF1846A4E7012332464946BB
S31500004CF04046D04701309BD00135E36803995B1AE3
S31500004D00AB42F2DCEBE7002504F11906F5E700BF3C
S31500004D10C5730000D6730000C9B2024410B59042B4
S31500004D20034601D1002303E01C7801308C42F6D102
S31500004D30184610BD884210B501EB020402D9844220
S31500004D40234607D8431EA14208D011F8012B03F8C9
S31500004D50012FF8E7024401468A4200D110BD13F83C
S31500004D60014D02F8014DF7E737B5002943D051F858
S31500004D70043C0C1F0190002BB8BFE41800F014F996
S31500004D801E4A0198136833B96360146003B0BDE826
S31500004D90304000F00FB9A34208D9256861198B424B
S31500004DA001BF19685B6849192160EDE71A465B681F
S31500004DB00BB1A342FAD911685518A5420BD1246844
S31500004DC0214454181160A342E0D11C685B68214459
S31500004DD053601160DAE702D90C230360D6E7256831
S31500004DE061198B4202BF19685B684919636008BF85
S31500004DF021605460CAE703B030BD00BF64060020DE
S31500004E0070B50E4E0C460546316811B900F0BCF877
S31500004E1030602146284600F0B7F8431C0AD0C41C6F
S31500004E2024F00304A04207D0211A284600F0ACF86B
S31500004E30013001D14FF0FF34204670BD68060020D6
S31500004E402DE9F041CD1C074625F0030508350C2D4C
S31500004E5038BF0C25002D01DBA94205D90C230026FD
S31500004E603B603046BDE8F0812E4E00F09DF8336879
S31500004E701C4634BB29463846FFF7C2FF431C04468E
S31500004E804DD134682646002E40D123683146384637
S31500004E9004EB030800F078F880453AD12168033521
S31500004EA038466D1A25F0030508350C2D38BF0C253C
S31500004EB02946FFF7A5FF01302BD023682B4423603A
S31500004EC00EE02268521B1ED40B2A16D96119A34282
S31500004ED0256018BF5960636808BF316062514B6036
S31500004EE004F10B06384600F065F8231D26F0070688
S31500004EF0F21AB6D09B1BA350B3E76268A3420CBF5D
S31500004F0032605A60ECE723466468B2E73446766856
S31500004F10B9E70C2338463B6000F04CF8A1E7256062
S31500004F20DEE700BF640600202DE9F0418046144606
S31500004F300E4621B91146BDE8F041FFF781BF2AB9F7
S31500004F402546FFF711FF2846BDE8F08100F038F846
S31500004F508442074602D8B4EB500F12D82146404689
S31500004F60FFF76EFF05460028EDD0BC4222463146CB
S31500004F7028BF3A46FFF7A0FB31464046FFF7F4FE4E
S31500004F80E1E73546DFE7FFFF38B50023054D044668
S31500004F9008462B60FEF77CFD431C02D12B6803B14B
S31500004FA0236038BD6C060020014800F011B800BF30
S31500004FB070060020014800F00CB800BF7006002003
S31500004FC051F8043C181F002BBCBF0B58C018704783
S31500004FD070477047FFFFFFFF08B52DED048BB0EE5D
S31500004FE0408AF0EE608A00F0BFF8B0EE409AF0EE2C
S31500004FF0609AB0EE480AF0EE680A01F04BF978B113
S3150000500019A3D3E9002351EC180BFFF7F5FA70B991
S3150000501017A3D3E9002351EC180BFFF7CFFA98B981
S31500005020B0EE490AF0EE690ABDEC048B08BD9FEDAF
S315000050300A9BFFF73BFB2223B0EE490AF0EE690A12
S315000050400360BDEC048B08BDFFF730FB22239FED08
S31500005050049B0360E4E700BF000000000000F07F4F
S315000050600000000000000000EF39FAFE422E8640E4
S3150000507051302DD5104987C0F8B555EC114B2DEDA3
S31500005080028B57EC106B00F05BFA22462B4620464B
S315000050902946B0EE408AF0EE608A01F0AFFB78B99F
S315000050A00022002330463946FFF77EFAF0B100228F
S315000050B0002320462946FFF777FA40B19FED288B5B
S315000050C0B0EE480AF0EE680ABDEC028BF8BD45EC7E
S315000050D0104B01F0DFF80028F2D0204629460022C6
S315000050E00023FFF76BFA0028EAD02EE0B0EE480A5C
S315000050F0F0EE680A01F0CEF8A0B10022002351ECD0
S31500005100180BFFF751FA0028DAD047EC106B01F0C4
S31500005110C1F80028D4D045EC104B01F0BBF80028AC
S31500005120CED012E047EC106B01F0B4F80028E4D0C2
S3150000513045EC104B01F0AEF80028DED053EC182BEE
S3150000514051EC180B01F05AFB20B9FFF7AFFA2223F6
S315000051500360B5E7FFF7AAFA21230360B0E700BFB3
S31500005160000000000000F03F2DE9F04F55EC104B19
S3150000517025F00042DC49EE0F8A422DED028B83B00A
S315000051800ED9DA498A4274D9C5F3130310EE102AF0
S31500005190234340F06281002E66D09FEDBB0B63E097
S315000051A0D34B9A4200F22281D24B9A4240F23D8181
S315000051B022462B462046294601F00EF906460F46A2
S315000051C0B3A3D3E9002301F007F9B3A3D3E900237E
S315000051D0FEF7DCFF32463B4601F0FEF8B0A3D3E90A
S315000051E00023FEF7D5FF32463B4601F0F5F8AEA3A5
S315000051F0D3E90023FEF7CAFF32463B4601F0ECF83E
S31500005200ABA3D3E90023FEF7C3FF32463B4601F0CA
S31500005210E3F802460B4620462946FEF7B7FF0A4644
S315000052200146914688460A4620464B46294601F0E5
S31500005230D3F806460F4600224FF0804340464946C3
S31500005240FEF7A4FF02460B463046394601F0EEF95A
S3150000525022462B46FEF79AFF02460B460020A64939
S31500005260FEF794FF41EC100B03B0BDEC028BBDE8DA
S31500005270F08F91A3D3E9002310EE100A2946FFF719
S31500005280BBF90746002840F0F480204629468CA347
S31500005290D3E90023FFF792F9002840F04981974BA4
S315000052A02046294603EBC60687A3D3E9002301F06F
S315000052B093F8D6E90023FEF76BFF01F0B5FA0190EB
S315000052C0FFF7B2F806460F4681A3D3E9002301F0A3
S315000052D083F802460B4620462946FEF757FF8046CE
S315000052E08946304639467CA3D3E9002301F074F899
S315000052F041EC180B53EC182B40464946FEF746FF87
S3150000530002460B4682468B4601F066F804460D4679
S315000053105FA3D3E9002301F05FF85FA3D3E900237D
S31500005320FEF734FF22462B4601F056F85CA3D3E97C
S315000053300023FEF72DFF22462B4601F04DF85AA317
S31500005340D3E90023FEF722FF22462B4601F044F85C
S3150000535057A3D3E90023FEF71BFF22462B465446EC
S3150000536001F03AF802460B46504659465D46FEF7AE
S315000053700DFF019B0F46064601463A46002B3FF4B9
S3150000538050AF32463B465046594601F025F8044692
S315000053900D4632463B4600204FF08041FEF7F6FEB2
S315000053A002460B462046294601F040F902460B46C6
S315000053B051EC180BFEF7EAFE42464B46FEF7E6FEB8
S315000053C00B4602464C490020FEF7E0FE6FF47F7361
S315000053D0019C9C42C0F29A80024601EB045343ECC6
S315000053E0102B03B0BDEC028BBDE8F08F444B9A4204
S315000053F03FF655AF434B10EE100A2946F40003EB77
S31500005400C603C6F1010AD3E90023FEF7BFFE3E4BF1
S3150000541080468946234493ED007BAAEB0603B0EE53
S31500005420478AF0EE678A019364E72DA3D3E9002348
S3150000543010EE100A2946FEF7ABFE00222E4BFFF7B0
S31500005440DBF800283FF4B4AE00222B4B2046294659
S31500005450FEF79EFE41EC100B06E72B46204629463A
S31500005460FEF796FE41EC100B03B0BDEC028BBDE8D7
S31500005470F08F002003B0BDEC028BBDE8F04F00F0CA
S31500005480F5BE00BFAFF30080000000000000000082
S31500005490D0A4BE726937663EF16BD2C541BDBB3E34
S315000054A02CDE25AF6A56113F93BDBE166CC1663F12
S315000054B03E5555555555C53FEF39FAFE422E8640A5
S315000054C051302DD5104987C0FE822B654715F73F11
S315000054D00000E0FE422EE63F763C7935EF39EA3DA4
S315000054E09C7500883CE4377E412E8640FFFFEF7FA7
S315000054F0422ED63FFFFFEF3D0000F03F487400000C
