S01000005A4D4F44345858582E737265639E
S315000000003809002091280000BD2600008D28000038
S315000000108D2800008D2800008D2800008D28000006
S315000000200000000000000000000000008D28000015
S315000000308D280000000000008D2800008D2800009B
S31500000040C91600003916000059170000A117000054
S31500000050CD2000000D22000001230000C92300006E
S31500000060000000000000000000000000000000008A
S31500000070000000000000000000000000000000007A
S31500000080000000000000000000000000000000006A
S31500000090000000000000000000000000000000005A
S315000000A0000000000000000000000000000000004A
S315000000B0000000000000000000000000000000003A
S315000000C0000000000000000000000000000000002A
S315000000D0000000000000000000000000000000001A
S315000000E0000000000000000000000000000000000A
S315000000F000000000000000000000000000000000FA
S3150000010000000000000000000000000000000000E9
S3150000011000000000000000000000000000000000D9
S3150000012000000000000000000000000000000000C9
S3150000013000000000000000000000000000000000B9
S3150000014000000000000000000000000000000000A9
S315000001500000000000000000000000000000000099
S315000001600000000000000000000000000000000089
S315000001700000000000000000000000000000000079
S315000001800000000000000000000000000000000069
S315000001900000000000000000000000000000000059
S315000001A00000000000000000000000000000000049
S315000001B00000000000000000000000000000000039
S315000001C0FFFFFFFFFFFFFFFFFFFFFFFFFFFFFFFF39
S315000001D0FFFFFFFFFFFFFFFFFFFFFFFFFFFFFFFF29
S315000001E0FFFFFFFFFFFFFFFFFFFFFFFFFFFFFFFF19
S315000001F0FFFFFFFFFFFFFFFFFFFFFFFFFFFFFFFF09
S3150000020010B5054C237833B9044B13B1044800E00C
S3150000021000BF0123237010BD9801002000000000DC
S31500000220F05D000008B5034B1BB10349034800E02D
S3150000023000BF08BD000000009C010020F05D00002A
S31500000240022800D07047024B0248596801F04CBCA6
S3150000025038580000F80100200379022B02D1012250
S31500000260014B1A70704700BFB6010020002310B57D
S315000002700A4C82B02370019003F030F901990246CE
S31500000280074800F0E1FF237833B90121084602F060
S31500000290E1F92378002BF8D002B010BDB60100209A
S315000002A02002002008B5074B9B68D3E901121868A5
S315000002B01268904700B908BDED21034B034A044874
S315000002C002F0C0F90000002098560000DC5700003C
S315000002D0AC5600000379044A052B137002D00122A4
S315000002E0024B1A70704700BFB4010020B501002010
S315000002F008B5012240F20731164801F0BDFA4FF465
S315000003007A710A2002F0A6F9002240F2073111485C
S3150000031001F0B2FA4FF47A710A2002F09BF9012239
S3150000032040F207310B4801F0A7FA4FF47A710A2020
S3150000033002F090F9084BD3E9011218681268904749
S3150000034000B908BD4FF49A71044B054A054802F0FE
S3150000035079F900BFF8010020C05800009856000047
S31500000360BC570000AC56000000222DE9F0472F4B89
S315000003702F4C1E689D68804688B030466B68227098
S315000003809847002844D12378002BFCD00023294F1E
S31500000390DFF8B49023703046EB684FF0000A9847B8
S315000003A060BB2378002BFCD0694630462B6984F865
S315000003B000A09847B84217D0002830D12378002BE8
S315000003C0FCD04FF0000C4246694630466B6984F813
S315000003D000C09847C8B14845DDD040F28B11164B96
S315000003E0164A174802F02EF932204FF47A7102F0BD
S315000003F031F93046EB6898470028D2D040F26311B5
S31500000400104B0E4A0E4802F01DF908B0BDE8F08701
S3150000041040F24D110B4B094A094802F013F94FF40B
S31500000420BA71084B054A064802F00CF9C05800009C
S31500000430B501002002000300C056000078570000F6
S31500000440AC56000098560000010003002DE9F04F5D
S315000004502DED028B024BBBB01E881EB9FEE700BF16
S31500000460145D000000255B68DFF85883C422294626
S3150000047009A8019303EB4606089503F006F8C6495A
S31500000480404600F027FFDFF840E30DF1200CBEE800
S315000004900F00ACE80F009EE80700ACE803002CF85C
S315000004A0022B120C8CF8002008A8FFF7DFFEFFF7DE
S315000004B0F9FEDFF818E30DF1200CBEE80F00ACE8FA
S315000004C00F009EE803004CF8040BACF8001008A8D7
S315000004D0FFF7CCFEFFF70CFFDFF8F4E20DF1200C7E
S315000004E0BEE80F00ACE80F009EE80700ACE803008A
S315000004F008A88CF800209FEDA98A4FF0010B2F4623
S31500000500A74CDFF8D092DFF8D0A2FFF7AFFEA54BDD
S3150000051008A80893277002F0E1FF08A902464046A2
S3150000052000F092FE237833B90121084602F092F8D2
S315000005302378002BF8D0EFF310828BF31088D9F8CC
S31500000540003023B98AF8033040238AF80330D9F8FB
S3150000055000300133C9F8003082F3108892480199BF
S31500000560DFF878C231F8022B130A1B0153FA82F224
S3150000057050F82230B14203EA0C0343EA050343F084
S31500000580040340F82230EDD1EFF310828BF310888C
S31500000590D9F8003023B1D9F80030013BC9F8003052
S315000005A0D9F8003023B98AF8033080238AF803305B
S315000005B082F3108802A8FFF7D7FEDDED027ABDEEC2
S315000005C0E77AF8EEC76A77EEE67A67EE887AFDEEA6
S315000005D0E77A17EE102A17EE903A744908A802F047
S315000005E05DFF08A8277002F079FF08A90246404679
S315000005F000F02AFE2378C5F10105EDB233B90121D9
S31500000600084602F027F82378002BF8D0DDED037AB0
S31500000610BDEEE77AF8EEC76A77EEE67A67EE887A95
S31500000620FDEEE77A17EE102A17EE903A604908A811
S3150000063002F034FF08A8277002F050FF08A902460E
S31500000640404600F001FE237833B90121084602F046
S3150000065001F82378002BF8D0DDED047ABDEEE77AB9
S31500000660F8EEC76A77EEE67A67EE887AFDEEE77A05
S3150000067017EE102A17EE903A4E4908A802F00EFF20
S3150000068008A8277002F02AFF08A90246404600F093
S31500000690DBFD237833B90121084601F0DBFF23781F
S315000006A0002BF8D0DDED057ABDEEE77AF8EEC76AE5
S315000006B077EEE67A67EE887AFDEEE77A17EE102A8D
S315000006C017EE903A3C4908A802F0E8FE08A8277001
S315000006D002F004FF08A90246404600F0B5FD237863
S315000006E033B90121084601F0B5FF2378002BF8D075
S315000006F0DDED067ABDEEE77AF8EEC76A77EEE67AC2
S3150000070067EE887AFDEEE77A17EE102A17EE903A32
S315000007102A4908A802F0C2FE08A8277002F0DEFEE9
S3150000072008A90246404600F08FFD237833B901211F
S31500000730084601F08FFF2378002BF8D0DDED077A0D
S31500000740BDEEE77AF8EEC76A77EEE67A67EE887A64
S31500000750FDEEE77A17EE102A17EE903A184908A828
S3150000076002F09CFE08A8277002F0B8FE08A902460F
S31500000770404600F069FD237833B90121084601F0AF
S3150000078069FF2378002BF8D04FF47A714FF4FA7092
S3150000079001F060FFBBE600BF8C5800000000C842B5
S315000007A0B60100201B5B48000008084018570000EF
S315000007B028570000385700004857000058570000D7
S315000007C06857000020020020C8560000E4560000CA
S315000007D0FC56000090030020000D0840FE3FFEFF7F
S315000007E008B5FFF733FE002008BD00BF062070479E
S315000007F0062070470620704706207047C06D38B542
S31500000800056A14462B460A46D0E9061002F040FB5C
S31500000810002810DB2A686B68A9680128E86822604E
S3150000082063602A696B69E060A1600448226118BFB1
S315000008300020636138BD012038BD00BF0100030000
S3150000084008B5C36D93ED010AD3E9061002F020F94D
S31500000850003818BF012008BD0620704706207047E3
S31500000860062070470620704706207047062070470E
S31500000870062070470620704706207047C36DDB6868
S315000008805B691847C36DDB689B691847C36DDB68F6
S31500000890DB691847C36DDB681B6A1847C36DDB68E5
S315000008A05B6A1847C36DDB689B6A1847C36DDB68D4
S315000008B0DB6A18470346DB6D002083ED090AC3EDAA
S315000008C00A0A70474379002B4AD04FF0000C9FED7F
S315000008D0254ADFED254A9FED255ADFED255A70B5ED
S315000008E01379846806EE903A0CF1010E14F80C5058
S315000008F014F80E305479967803EB052304FA83F343
S3150000090007EE903AF8EEE66A07EE106AD378F8EE4C
S31500000910E77A06EE103AB8EE477A76EE846AB8EED3
S31500000920C66A27EE057A67EEA67A37EE067A77EE7E
S31500000930E47A67EE677A87EEA57AFCEEC77A17EE59
S31500000940903AC3F3072501F80C5001F80E304379AD
S315000009500CF102045FFA84FC6345C1D8002070BD27
S3150000096000207047000020440000FA480000804341
S3150000097000803B4B10B50446836D9A68186853682F
S315000009809847236E13B1204600F090FB00202060AC
S3150000099010BD00BF70B5144B0546006898421CBFD9
S315000009A0002385F85030AB6D9868C4681868A04776
S315000009B00646A8B90C4B2A689A4211D0652406E06F
S315000009C0013C01212846A4B200F04EFB54B195F833
S315000009D05030002BF4D095F85230002B18BF122659
S315000009E0304670BD1426FBE7444F4D5A932301460B
S315000009F0022221F8043FFFF7CDBF00BF022210B448
S31500000A009324C16D80F84820896904714C6A011DE0
S31500000A1094F800C080F805C05DF8044BFFF7BABF34
S31500000A2070B584B001AC84E80E00164B026805462A
S31500000A309A421CBF002380F85030836D9A6818686C
S31500000A40166994E80E00B0470646A8B90D4B2A6809
S31500000A509A4211D0652406E0013C01212846A4B241
S31500000A6000F002FB5CB195F85030002BF4D095F8FD
S31500000A705230002B18BF1226304604B070BD142623
S31500000A80FAE700BF444F4D5A90F84820012A01D09A
S31500000A900F48704784B05FFA82FC8DF80CC04FF0A7
S31500000AA0020C02460291C16D80F848C08B695B6AF0
S31500000AB093F8241002F8441F93F8253001928DF81C
S31500000AC00D3004AB13E90E0004B0FFF7A9BF00BF59
S31500000AD00200030003460121B72240F2011C84B044
S31500000AE080F8471003F8442F011D0193ADF80CC0A0
S31500000AF0029104AB13E90E0004B0FFF791BF00BFEB
S31500000B002DE9F04F0B688A46C9680446084600225C
S31500000B1002258BB00091DAF80410C4E915A3C4E9E4
S31500000B201701DAF808106166DAF81010A166DAF82B
S31500000B30141084F8462084F8485084F847209A68B0
S31500000B40E1661268D3E9000190470546002846D1C0
S31500000B50236E23B1204600F08FFA00283ED1E36DC4
S31500000B609869D3E9042101611989026281811B78A0
S31500000B700190022B37D03032019B04F1040B5A62EC
S31500000B801EE027466FF06B0340F2011907F8443F59
S31500000B90CDF81C800697ADF82090204696E80E000A
S31500000BA0FFF73EFFD0B9C821204600F05DFAA8B98C
S31500000BB09DF90C30002B18DAB5F57A7F00F0948198
S31500000BC04FF09303022259462046A380FFF7E2FE28
S31500000BD00DF10C0806AE01350028D2D00546284690
S31500000BE00BB0BDE8F08F6032C6E7B5F57A7F00F04E
S31500000BF07B8140F20123CDE9067BADF8203084F8F5
S31500000C00440096E80E002046FFF70AFF0028E5D1CB
S31500000C10A388019A5BBA92899BB29A4201D00625B3
S31500000C20DDE706238DF821302023019D84F844302A
S31500000C306B1C0793204696E80E00FFF7F1FE00288E
S31500000C40CCD1262384F844302B69204607936B6A5F
S31500000C5093F82C308DF8213096E80E00FFF7E0FE71
S31500000C6005460028BBD1B723E26D9269CDE9037B27
S31500000C70ADF81490CDE90600CDE90800019284F89C
S31500000C804430204698E80E00FFF7CAFE05460028C5
S31500000C90A5D1019A3146106A0132FFF713FE0546C7
S31500000CA000289CD1019A136A1A7922715A7942B1A5
S31500000CB0012311F8015B581C23441D71C3B29A42EB
S31500000CC0F7D2594620460132FFF764FE0546002852
S31500000CD085D1019B1B6A1A7B22715A7B19690123F4
S31500000CE03AB111F8015B581C23441D71C3B29A42F4
S31500000CF0F7D2594620460132FFF74CFE054600283A
S31500000D007FF46DAF019B1B6A1A7D22715A7D99692A
S31500000D1001233AB111F8015B581C23441D71C3B27B
S31500000D209A42F7D2594620460132FFF733FE05466E
S31500000D3000287FF454AF019B1B6A1A7F22715A7FE9
S31500000D40196A01233AB111F8015B581C23441D713D
S31500000D50C3B29A42F7D2594620460132FFF71AFE2D
S31500000D60054600287FF43BAF236E0BB184F8510093
S31500000D7093232371019B02221B6A59461B78204646
S31500000D806371FFF707FE054600287FF428AF236E40
S31500000D90002B00F0AB8094F85130002BFBD00023E1
S31500000DA084F851304FF00109019A2046136A93F8EE
S31500000DB02420039784F84420CDF810B08DF81490C1
S31500000DC093F825308DF8153098E80E00FFF728FEC9
S31500000DD0054600287FF403AFA388019A5BBA5381C6
S31500000DE0E38831465BBA1381E36D9F69CDE906005E
S31500000DF0CDE9080007EB0902786AFFF763FD0546AF
S31500000E0000287FF4ECAE7B6A1A7922715A7952B1C6
S31500000E1016F8011B09F10103A14489F804105FFAD1
S31500000E2083F94A45F4D2594620460132FFF7B2FD0E
S31500000E30054600287FF4D3AE7B6A1A7B22715A7B63
S31500000E40196901233AB111F8015B581C23441D713D
S31500000E50C3B29A42F7D2594620460132FFF79AFDAD
S31500000E60054600287FF4BBAE7B6A1A7D22715A7D47
S31500000E70996901233AB111F8015B581C23441D718D
S31500000E80C3B29A42F7D2594620460132FFF782FD95
S31500000E90054600287FF4A3AE7B6A1A7F22715A7F2B
S31500000EA0196A01233AB111F8015B581C23441D71DC
S31500000EB0C3B29A42F7D2594620460132FFF76AFD7D
S31500000EC0054600287FF48BAE009B5146DB68204622
S31500000ED01B689847054600287FF481AE2846144BC8
S31500000EE023600BB0BDE8F08F142578E64FF0940927
S31500000EF00BE03221204600F0B7F800287FF46EAEF2
S31500000F009DF90B30002BBFF64DAF0DF10B0304938B
S31500000F1040F201130397ADF81430204698E80E000E
S31500000F2084F84490FFF77CFD0028E2D0054656E69B
S31500000F30444F4D5A03464FF0020C0121942200B54E
S31500000F4040F2011E85B080F848C080F8461003F8CC
S31500000F50442F00F145010193ADF80CE0029104AB7A
S31500000F6013E90E0005B05DF804EBFFF759BD00BFAD
S31500000F7030B503680279D96D586E83B08C690090DC
S31500000F806AB105228DF804202A491868884220D0C3
S31500000F90012183F8501083F8522003B030BD8DF83C
S31500000FA0042024481D688542F2D193F8462062B396
S31500000FB00A7802F0FB01012916D0092A14D093F908
S31500000FC04520002A1ADB01228DF8042083F84820E8
S31500000FD017E093F8462093F847209B6E002BDCD051
S31500000FE06846984703B030BD626A93F84510527F51
S31500000FF001F01F015208013A8A42E4D002228DF81C
S315000010000420002283F84620E7E793F84720002AC9
S31500001010E3D01A79510608D4120644BF03228DF88C
S315000010200420002283F84720D7E704228DF8042005
S31500001030F7E700BF444F4D5A03681A681AB90122F0
S3150000104083F851207047012200B5586ED96E83B0DF
S3150000105000908DF8042083F8482009B16846884737
S3150000106003B05DF804FB00BF08B508464FF47A717B
S3150000107001F0F0FA002008BD70B5046E0546D4E90B
S31500001080011320681B68984768B9A16803462A4679
S315000010902068CD680449A84728B9A36820685B681A
S315000010A0BDE87040184770BD3910000008B5036EE2
S315000010B09A68186813699847002008BD034610B45B
S315000010C0CC68074AC3E900148C6800209C604C6811
S315000010D00969DA60C3E906415DF8044B704700BF51
S315000010E021332C3203460022596810464A60DA60E2
S315000010F0704700BF00F05AB800F070B884B00DF128
S31500001100040C8CE80E009CE80E0004B000F07EB8DB
S3150000111070B5046803796268E169023B82B0012B0D
S315000011209268009116D8002561698DF80450C1B106
S31500001130936810685E6822692B46B047C4E9045577
S3150000114030B10122A3698DF804200BB16846984797
S3150000115002B070BD93681068DB68984701238DF86C
S315000011600430A369002BF1D102B070BD43685A6800
S31500001170824217D070B59D688368A96804460E69D7
S315000011801A7B99682868B04758B9A96862684E6999
S315000011900346B4462868044954602246BDE87040B8
S315000011A0604770BD002070471111000043682DE9AB
S315000011B0F04104460D4616469F68FFF7D7FF58B91B
S315000011C0C4E904000346B868324644682946A44682
S315000011D03868BDE8F0416047BDE8F08143682DE915
S315000011E0F04104460D4616469F68FFF7BFFF58B903
S315000011F0C4E904000346B868324684682946A44612
S315000012003868BDE8F0416047BDE8F08130B585B08B
S3150000121004AC04E90E00436804469D68FFF7A6FF88
S3150000122080B9A968029A9DF80D3028688D68C4E9CE
S315000012300432AC4601239DF80C20019905B0BDE8A7
S315000012403040604705B030BD10B4046AA37803F09F
S315000012507B03A370837803F00303D21A0B44026165
S31500001260A278C360837842F0800203F00303022B66
S31500001270A27005D00B780020E3705DF8044B704730
S315000012800B88002043F47E43E3815DF8044B7047EE
S31500001290F0B5846A85B005460F4694466E46B4B1ED
S315000012A094E80F0086E80F00EB6920461B7884F867
S315000012B004C02360EB6AC4E902736B6A9847AC6AA0
S315000012C01CB196E80F0084E80F0005B0F0BD344667
S315000012D0EAE700BF0022F0B501240B78027003F59F
S315000012E0800303F58C531B0203624B698D694362CD
S315000012F08378C16164F301038262C56283704B78AF
S3150000130023B90222837862F301038370012491F9E1
S315000013100B50C44A6B0905F01F07203304FA07F780
S315000013208E7A42F82370BFF34F8FBFF36F8FBE4B99
S3150000133005F1C00753F827C06FF3104C43F827C0D8
S3150000134053F82770B94F360102EB050CF6B28CF84C
S31500001350006347F8250091F905500E794FEA551CB0
S3150000136005F01F0E0CF1200C04FA0EFE42F82CE0DC
S31500001370BFF34F8FBFF36F8F05F1C00C53F82CE00E
S315000013806FF3104E43F82CE053F82CC0360102EBF5
S31500001390050CF6B28CF8006347F8250091F9075062
S315000013A08E794FEA551C05F01F0E0CF1200C04FA3D
S315000013B00EFE42F82CE0BFF34F8FBFF36F8F05F19F
S315000013C0C00C53F82CE06FF3104E43F82CE053F8A2
S315000013D02CC0360102EB050CF6B28CF8006347F818
S315000013E0250091F909500E7A4FEA551C05F01F0E9B
S315000013F00CF1200C04FA0EFE42F82CE0BFF34F8FDE
S31500001400BFF36F8F05F1C00C53F82CE06FF3104E4D
S3150000141043F82CE053F82C303301DBB22A4482F82F
S31500001420003347F82500EFF3108584F310884FF05A
S3150000143000447F4B0E785A68F44022EA04025A6050
S315000014405B6885F31088002240F2F934036A40F2A3
S31500001450F9359A701A715A729A72DA725A830A7840
S3150000146024FA02F2D60744BF4022DA740622CC6977
S315000014701A770A784E78D540ED078F78CA7848BF34
S315000014804FF478414FEAC20248BF9982032E42EADE
S31500001490071200F0C280002E14BFF221E221D2B260
S315000014A01A709971227B082A0EBF0A22520002F096
S315000014B002025A736278A178D201490101F0200133
S315000014C0D2B20A430021197294F800C0ACF10201AD
S315000014D0012940F29880D2B2DA7162689178557823
S315000014E05970197865F301011970D17812789974D9
S315000014F0D97902F05C0201F0A3010A43DA710022F5
S31500001500C16902618261C260426191F90550464B30
S3150000151005F1C00153F8216062F3104643F82160DB
S3150000152053F82110BFF35F8F01266909890005F082
S315000015301F0501F1604101F5614106FA05F5C1F8A3
S3150000154080510D60C16991F90B5005F1C00153F846
S31500001550217062F3104743F8217053F82110BFF34E
S315000015605F8F6909890005F01F0501F1604106FAE0
S3150000157005F501F56141C1F880510D60C16991F928
S3150000158007E00EF1C00153F8215062F3104543F80D
S31500001590215053F82110BFF35F8F4FEA5E11890087
S315000015A00EF01F0E01F1604106FA0EF501F56141DC
S315000015B0C1F880510D60C16991F9091001F1C005AA
S315000015C053F8257062F3104743F8257053F8253019
S315000015D0BFF35F8F4B099B0001F01F0103F16043CE
S315000015E08E4003F56143C3F880611E60036A0CF008
S315000015F0030C4CF0700C618983F802C00D4B01811D
S3150000160043601046F0BDFF21BCF1020F08BF42F057
S315000016101002D2B25970DA7171E7F22142F040023B
S315000016203DE700BF00E100E00060004094030020B9
S31500001630004008405549435330B4EFF30383103B51
S315000016401F4A5BB203F1C00152F821006FF310404C
S3150000165042F8210052F821201A4A52F82300C369A1
S315000016601B691BB103691BB130BC704703697BB9A9
S31500001670D0E908240021937803F07F0343F00403A4
S315000016809370C160002CEFD030BC8022FFF700BE03
S31500001690827802F003010229C1680BD0046A91F82E
S315000016A000C084F803C002F003029B1A0A44C0E992
S315000016B00323D8E70C88056A44F47E44EC81F2E7FC
S315000016C0006000409403002010B582B0EFF303835E
S315000016D0103B1F4A5BB203F1C00152F821006FF3C1
S315000016E0104042F8210052F821201A4A52F82340AD
S315000016F0A27802F00303022B236A0CBF198A5979D8
S31500001700A3690CBFC1F30801C9B2019143B9636A69
S31500001710B3B10422204602B0BDE81040FFF7B8BDC1
S3150000172002F0030201A9606901F0A2FED4E90521D5
S31500001730A37803F003031A44C91AC4E9052109B1C1
S3150000174002B010BD636A002BFAD00122E2E700BFA7
S31500001750006000409403002010B5EFF303830E4AA7
S31500001760103B5CB252F82400D0E90821937803F0CC
S315000017707B03937019B102220021FFF789FD074A06
S3150000178004F1C00352F823106FF3104142F82310FE
S3150000179052F8233010BD00BF9403002000600040C3
S315000017A010B5EFF303831A4A103B5CB252F82400DB
S315000017B0837803F00303022B036A0CBF198A597955
S315000017C093F804C00CBFC1F30801C9B21CF0100F96
S315000017D00CF0380206D093F81CC01CF0010F08BFAD
S315000017E042F0400293F804C00CF0C70C83F804C022
S315000017F0436A0BB1FFF74CFD064A04F1C00352F8E9
S3150000180023106FF3104142F8231052F8233010BD15
S3150000181094030020006000400022034610461A6030
S31500001820704700BF0B0A10B41B01064C53FA81F136
S3150000183054F821300020C3F340035DF8044B1370C5
S31500001840704700BF00080840090A490101F18041BC
S3150000185001F500214B68002013807047090A4901F1
S3150000186023EA020C01F180411A4001F5002142EA07
S315000018700C4200208A6070470123C8B283404AB9EF
S315000018801A040B0A5B0103F1804303F500230020D1
S315000018909A6070479AB2F4E7090A490101F180415A
S315000018A001F5002110B40C6802EA030C4CEA040CA2
S315000018B062EA030202EA0C0200205DF8044B0A60A9
S315000018C0704700BF090A490101F1804101F5002175
S315000018D04B680020C3F30F4313807047012310B4F5
S315000018E04FEA112C4FEA4C1C0CF1804C0CF5002CE5
S315000018F0DCF80440C9B203FA01F18BB201EA1441E3
S31500001900C91AB1FA81F1490900205DF8044B11703A
S31500001910704700BF090A490123EA020C01F1804120
S315000019201A4001F5002142EA0C420020CA607047C5
S31500001930012A14D04FF480300B0A5B0103F1804377
S3150000194003F5002310B4CAB2DC6800FA02F222439F
S31500001950120C120400205DF8044BDA6070470B0A83
S315000019605B0103F1804303F50023D868C9B28A40BE
S31500001970024392B20020DA60704700BF38B504888F
S31500001980002C4CD00021436840F20245043303EB9F
S31500001990C40040F2034C40F2044E0C460FE0624590
S315000019A02FD153F8042C02F0B852B2F1807F14BF45
S315000019B041F0020144F002040833834210D01A8831
S315000019C0AA42ECD153F8042C083302F0B852B2F113
S315000019D0807F14BF41F0010144F001048342EED13F
S315000019E0C943CDB2012000F005FF0E4B012093F84C
S315000019F0BB2414432C4083F8BB44BDE8384000F0B8
S31500001A00C9BE7245D8D153F8042C02F0B852B2F1CF
S31500001A10807F0CBF44F0040441F00401CCE7FF25AD
S31500001A20E0E700BF00E00140F8B50446FFF7A6FF77
S31500001A30EFF31082012383F31088284E33681BB915
S31500001A402749CB704023CB7033680133336082F370
S31500001A50108823887BB3626803F1FF3E1FFA8EFE6F
S31500001A6002F108011F4C01EBCE0E08E0D2B21B01B9
S31500001A7013448E450A4644F823001CD008311068EA
S31500001A80928810F4803F4FEA1223EFD0130AD2B2A5
S31500001A9002EB031C54F82C701B01134420F4803510
S31500001AA06FF310478E4544F82C700A4644F82C50C4
S31500001AB044F82300E2D1EFF31082012383F3108868
S31500001AC0336813B13368013B336033681BB9802038
S31500001AD00349CB70C87082F31088F8BD90030020CC
S31500001AE0000D08400008084008B5034B036008468F
S31500001AF0FFF79AFF002008BD54524F5008B508461C
S31500001B00FFF792FF002008BD70B5012684B002AB36
S31500001B1068460C4615460193ADF80060ADF80C100A
S31500001B200292FFF72BFFEFF3108286F310881D4910
S31500001B300B681BB940261C48C370C6700B6801337E
S31500001B400B6082F31088EA034FEA1423E4B219D437
S31500001B501B01164A234442F82350EFF31082012357
S31500001B6083F310880B6813B10B68013B0B600B689D
S31500001B701BB980200C49CB70C87082F310880020F6
S31500001B8004B070BD094A04EB031052F820601B0133
S31500001B906FF3104642F8206025F4803642F8206044
S31500001BA0D7E700BF90030020000D0840000808405A
S31500001BB00346002059601A72704700BF8446002011
S31500001BC0CCE90E32CCF83410704700BF0346044A05
S31500001BD0DB6800209B1AB3FA83F35B090B7070472E
S31500001BE04349495230B5836B83B004460A466D4675
S31500001BF0A3B193E8030085E80300E16B1A71184668
S31500001C00626B19609047A36B1BB195E8030083E8EC
S31500001C100300002384F82B3003B030BD2B46ECE7DD
S31500001C2030B4344B82B01B6A026903F00F23019370
S31500001C300199019D137C90F82C409CB9C1F30321B6
S31500001C40DBB2A1EB15618B409B0806D10823184631
S31500001C5002B030BC7047013BF8D05178C909FAD1BF
S31500001C60B323D371002390F82640016880F82740FB
S31500001C7080F82830846980F82B30036280F82D3094
S31500001C8080F82E3080F82F3080F830304B6AC461EF
S31500001C9093F800C05C78BCF1010F0CBF0523042348
S31500001CA043EA4403DBB2D370537943F00103537123
S31500001CB091F90F30002B08DB012203F01F040E49B7
S31500001CC05B09A24041F823200269BF23D37190F833
S31500001CD02C1001F0FF0339B10022134680F82C20A6
S31500001CE0184602B030BC704702211846517002B047
S31500001CF030BC704700E0014000E100E090F808C009
S31500001D00C0E90512BCF1010F80F82A3008D1002283
S31500001D10436880F826C05B0080F8243080F82520D0
S31500001D20002380F82930FFF77BBF00BF90F808C07A
S31500001D30C0E90512BCF1010F80F82A300AD1002251
S31500001D40436880F826C05B0043F0010380F8243026
S31500001D5080F82520012380F82930FFF761BF00BFF6
S31500001D602DE9F0434FF01F0C5F27DF260269DFF8ED
S31500001D709C9182F800C01770167006684FF0000E2E
S31500001D80776AD6F804C03E794FF0B30846F0E0060D
S31500001D901674FE785A4C46F0E0065674BE78594DD5
S31500001DA0360106F0700646F0080696703E787F7893
S31500001DB0012E0CBF05260426CC450CBF4FF0F70CB0
S31500001DC04FF0770C46EA4706F6B2D67082F805C0A1
S31500001DD082F806E082F807804E7B91F911203601E1
S31500001DE0494BA718F6B287F8006302F1C00645F81A
S31500001DF0220053F826706EF3104743F8267053F806
S31500001E002660BFF35F8F4FF0010C5609B60002F053
S31500001E101F0206F1604606F561460CFA02F2C6F8A4
S31500001E20802132604E7B91F90F203601A718F6B259
S31500001E3087F8006302F1C00645F8220053F82670C1
S31500001E406EF3104743F8267053F82660BFF35F8F92
S31500001E505609B60002F01F0206F160460CFA02F2BD
S31500001E6006F56146C6F8802132604E7B91F9102056
S31500001E703601A718F6B287F8006302F1C00645F8E6
S31500001E80220053F826706EF3104743F8267053F875
S31500001E902660BFF35F8F5609B60002F01F0206F1F7
S31500001EA060460CFA02F206F56146C6F880213260F9
S31500001EB04E7B91F90E2031011444C9B284F8001307
S31500001EC002F1C00145F8220053F821406EF3104498
S31500001ED043F8214053F82130BFF35F8F53099B002D
S31500001EE002F01F0203F160430CFA02F203F56143AC
S31500001EF0C3F880211A609F2203691A70BDE8F08337
S31500001F0000E100E0940300200060004040420F0022
S31500001F1070B500250A78016002F5800202F51F629D
S31500001F20120202618A6842600A7B0272CA694263CF
S31500001F300A6AC0E90E52EFF3108C012282F3108870
S31500001F400B78C3F109039A400C4B5E6826EA02023D
S31500001F505A605B688CF31088FFF702FF084B80F825
S31500001F602950C0E9075580F82A50456180F82B5062
S31500001F70856180F82C50C360284670BD004008403B
S31500001F8043494952C36913B990F82C30A3B110B52F
S31500001F90002403690168DC71FFF7E2FE90F8262051
S31500001FA0836980F82820B32203620369C46180F83C
S31500001FB02C400020DA7110BD90F82B30002BE6D1B2
S31500001FC0B32203690020DA71704700BF38B5C369D0
S31500001FD01BB990F82C30002B6ED0002403690168E1
S31500001FE0DC71FFF7BDFE90F826208369C46180F896
S31500001FF02820036280F82C4000214FF0B30C012307
S315000020000269056882F807C0D171C16095F911208F
S315000020102C4C4FEA521C02F01F0203FA02F20CF19A
S31500002020200C44F82C20BFF34F8FBFF36F8F02684C
S3150000203092F90E204FEA521C02F01F0203FA02F236
S315000020400CF1200C44F82C20BFF34F8FBFF36F8F99
S31500002050026892F910204FEA521C02F01F0203FA9E
S3150000206002F20CF1200C44F82C20BFF34F8FBFF383
S315000020706F8F026892F90F204FEA521C02F01F027E
S3150000208003FA02F20CF1200C44F82C20BFF34F8F18
S31500002090BFF36F8FEFF3108483F3108800680A4A4A
S315000020A00078C0F1090083405068034353605368C9
S315000020B084F31088084638BD90F82B30002B9BD04F
S315000020C08BE700BF00E100E00040084010B483B099
S315000020D0EFF30383103B4A4A5BB2C03352F8231036
S315000020E06FF3104142F8231052F82330EFF30383C5
S315000020F0444A103B5BB252F8233093F82D20BAB90C
S315000021009A69012A1A6982BF117941F04001117159
S31500002110D969012917D00121D27CD2B28DF80720C6
S315000021209DF8072083F82D1003B05DF8044B704727
S31500002130DA69002AF8D0032A0ED0022A4ED0012AE4
S3150000214021D019690DE0117941F010011171117951
S3150000215041F008011171DEE719690A7942F040027F
S315000021600A71C87C1A6A59698854D3E90721013172
S31500002170013AC3E90721002AD6D119690B7962F31E
S3150000218086130B71D0E793F82A1089B319681E4C91
S3150000219091F90F10480901F01F0102FA01F12030F0
S315000021A044F82010BFF34F8FBFF36F8F4FF0040C2E
S315000021B01969C87940F08000C871087940F01000AC
S315000021C0087108796FF3C300087181F801C0487976
S315000021D06FF30000487183F82C20C2E719690A7969
S315000021E042F010020A710A7942F008020A71B8E751
S315000021F0082019694A7A02F0F7024A724870B0E775
S31500002200006000409403002000E100E0EFF3038348
S31500002210103B384A5BB2C03352F823106FF31041BB
S3150000222042F8231052F82330EFF30383324A103B6F
S315000022305BB252F8232092F82730002B3AD192F85D
S315000022402930002B35D1D36910B4002B44D1106945
S31500002250C179C0236FF3C711C17101E0013B02D000
S31500002260C179C909FAD11368224A93F9103003F1EA
S31500002270C00152F821406FF3104442F8214052F851
S315000022802120002B09DB01215A091C4C03F01F03F6
S31500002290603201FA03F344F82230C3795DF8044B47
S315000022A043F04003C3717047022909D192F8300008
S315000022B030B9704792F82610032992F82810F3D007
S315000022C092F824C010690131013B80F812C082F8EF
S315000022D0281082F827307047116AD2E90404645C3A
S315000022E0013B01318474C2E90731002BB0D05DF89F
S315000022F0044B7047006000409403002000E100E0BA
S3150000230010B4EFF303832D4A103B5BB252F823302F
S3150000231093F829201AB193F82720012A49D0DA69BF
S31500002320E2B11969CA79C0236FF38612CA7101E056
S31500002330013B02D0CA795206FAD4EFF30383103B6D
S315000023401F4A5BB2C03352F823106FF3104142F8B4
S31500002350231052F823305DF8044B704793F82A1087
S31500002360F9B14FF0010C1968164C91F90F10480994
S3150000237001F01F0120300CFA01F144F82010BFF3E0
S315000023804F8FBFF36F8F1969C87940F08000C8710D
S3150000239004204870487962F30000487183F82CC025
S315000023A0C0E7082219694B7A03F0F7034B724A70AB
S315000023B0B8E793F83020002AB1D1B2E794030020A1
S315000023C00060004000E100E010B5EFF30383E02178
S315000023D04C4A103B5BB252F8230003695A7A597291
S315000023E05FFA82FC02F00304D2061DD55A78510624
S315000023F049D40121C26980F82B10002A5FD000243D
S315000024000168DC71FFF7ACFC90F82610826903695D
S31500002410C46180F82810026280F82C40B3220121A2
S31500002420DA71FFF7DFFB12E0002CE2D11CF0080F97
S315000024301CD090F82B20002A4AD190F82910B322FC
S31500002440002914BF02210321DA71FFF7CBFBEFF35A
S315000024500383103B2C4A5BB2C03352F823106FF350
S31500002460104142F8231052F8233010BD90F82C206A
S31500002470002AECD01CF0040FE9D090F82B200121A3
S31500002480002AE2D1D9E7002CB3D15A78C2F38011E1
S315000024905206CBD5082480F82B105A7A016802F030
S315000024A0F702496A5A725C700A78012A0CBF032245
S315000024B00222DA705A7942F001025A71C7E790F89F
S315000024C02C20002A9BD190F82B20002AA6D096E734
S315000024D0C2696AB10022816990F82640C0E90721E5
S315000024E080F8284080F82C20B3220121DA71ACE76D
S315000024F090F82C20002AEDD190F82B20002AF3D05A
S31500002500E8E700BF9403002000600040064B07493F
S3150000251093F826001A6A51F82030C2F30262044981
S31500002520D3400B60704700BF00E0014078010020F7
S3150000253020050020F8B54AF2035001233749384AEE
S31500002540A1F8FE03A2F80431B2F804319BB2002BC5
S31500002550FAD101214FF400454FF0090C314CDFF858
S31500002560DCE0314EC4F804E0DFF8D4E02B48C4F8D0
S315000025700CE02E4FA2F800112D4AB1603160626165
S31500002580276090F82620A5602561056A54F8222068
S31500002590C5F30265EA40274D2A6080F8133480F8B7
S315000025A0A2C090F8803493B300231C4981F881348B
S315000025B081F8803481F8363091F83C30DA07FBD563
S315000025C043F212100023154A088581F82A3092F842
S315000025D03C309B06FBD503200523114981F81C01DD
S315000025E015490120116282F8263092F82630116AC8
S315000025F054F82330C1F30261CB402B604FF42543DE
S3150000260082F8300082F85200A2F8FE33F8BD80F856
S31500002610801440F2C44000F01DF8C5E700E0014018
S3150000262000C001407801002000700040002D3101FB
S31500002630AA21EF09200500202112012000127A00AC
S3150000264000366E0100BEFEE7A0F101000028FBD1B6
S31500002650704700BF10B54FF47A72164C164B2468BB
S315000026604FF0000EB3FBF4FC4FF0FF3300FB01F11B
S31500002670A1FB020483427EEB040407D3B0FBFCF00B
S31500002680800880B1BDE81040FFF7DEBF4FEA8C0C32
S31500002690B1FBFCF1A1FB02128B427EEB020203D3DB
S315000026A008460028EED110BD1846BDE81040FFF7D9
S315000026B0CBBF00BF2005002000CA9A3B70B500249E
S315000026C00A4B0B4EB3F84051ADB225FA04F3DB07C3
S315000026D0E0B203D556F8243003B198470134102CE4
S315000026E0F3D1024BA3F8305170BD00BF006000402B
S315000026F05003002030B56FF0FF0585B0032000F0D1
S3150000270079F84FF0FF311F4C1F482246856400239D
S315000027100125CDE90111039104F1C00E32F8020F33
S31500002720590960B104A800EB810151F80C0C03F0C3
S315000027301F0C05FA0CFC20EA0C0041F80C0C724543
S3150000274003F10103EAD10199104B0F4A03201167E7
S31500002750C3F8801202995167C3F8841203999167EE
S31500002760C3F8881200F016F80023094803F1C002E6
S3150000277034F8021F0133602B40F82210F6D105B061
S3150000278030BD00BF6A5B00000080004000E100E051
S3150000279000600040EFF31081012383F31088124B91
S315000027A033F8102092B22AB133F81020013A92B2CF
S315000027B023F8102033F810309BB293B90B4A10B4AB
S315000027C0B2F8FE330A4C9BB234F8100043F42543AA
S315000027D023EA0003A2F8FE3381F310885DF8044B68
S315000027E0704781F3108870471405002000E001400F
S315000027F00C5D000030B4EFF31081012383F31088E1
S315000028000E4A32F810309BB26BB90D4C0D4DB4F830
S31500002810FE3335F810C09BB243EA0C0343F425435C
S315000028209BB2A4F8FE3332F8103001339BB222F883
S31500002830103081F3108830BC704700BF14050020AB
S3150000284000E001400C5D00000D4908B50A6803462A
S315000028504AB103330B4823F003031344834206D8DB
S3150000286010460B6008BD084802460860F1E700F014
S31500002870F9FD0C234FF0FF320360104608BD00BF80
S315000028801C050020380500203805002000BE7047D2
S3150000289008B500F003F8FDF7A3FFFEE74FF470025A
S315000028A070B5244B244CC3F8882000209C60FDF7AB
S315000028B0C7FCFFF73FFE0120FDF7C2FC2368A3F526
S315000028C0806383F30A881D481D4A0021121A00F00E
S315000028D0DCFD1C481C4A1D49121A00F0C9FD1C4D9E
S315000028E01C4B5B1B002B07DD00249E1055F8043B98
S315000028F001349847A642F9DCFFF708FE0320FFF7EC
S3150000290079FF00234FF6FF70134903F108020133E4
S31500002910092B21F81200F8D10320FFF73BFF022014
S31500002920FDF78EFCFFF7E6FEBDE87040002000F0E4
S3150000293015B800BF00ED00E000000000980100207F
S31500002940340500200000002078010020F45D00001E
S315000029507001002074010020000D0840704700BF80
S3150000296042F2103370B58A892DED028B9A4277D1E7
S315000029700B69F7EE086A1A78DFED3C7A07EE102A43
S31500002980B8EEC77A27EE267AF7EE004AC7EE276A30
S31500002990C4EEA67AC0ED0C7A5A789B7807EE902A98
S315000029A09FED335AB8EE677A06EE903A67EE057AEF
S315000029B0F8EEE66ADFED2F5A77EEA67A9FED2E6ADD
S315000029C067EEA57A87EE867AB5EEC07AF1EE10FA52
S315000029D004464FF0000580ED0D7A44D9B1EE408AE9
S315000029E0DFED267A0026C8EE277A254B80ED000A11
S315000029F04361067617EE900A00F004FC41EC100BDA
S31500002A0001F0C6F9002053EC102B1E4900F09AFA8B
S31500002A1000F0D8FCDFED1C7AC8EE277AA0602561AD
S31500002A2017EE900AE56125626562A562E562A681F8
S31500002A3000F0E8FB41EC100B01F0AAF9002053EC82
S31500002A40102B104900F07EFA00F0BCFC0F4BA5637A
S31500002A50E5636564606023643046BDEC028B70BD3F
S31500002A606FF01F06F8E76FF02006F5E700007F43DA
S31500002A70000080438096984A00FF7F4700009643F7
S31500002A800000C8420000F03F000020420000C8439A
S31500002A90FFF766BFFFFFFFFF38B52DED048B81ED15
S31500002AA0000A037E0D46FF2B04461AD00133DBB223
S31500002AB00F2B037615D8BDEC048B00234FF0000CCA
S31500002AC04169DD4A80ED040AA4F80CC00120696062
S31500002AD02B61EB60AB606A61A363E36363642264AA
S31500002AE038BDD4ED046A94ED026A70EE667A67EE3C
S31500002AF0867A77EEA67A9FEDD17A70EE676AF4EE63
S31500002B00C76AF1EE10FA00F308819FEDCD6AF4EE84
S31500002B10C66AF1EE10FA4ABF30EE077AC4ED047ABF
S31500002B2070EE476ADFEDC77AF4EEE76A48BF84EDD8
S31500002B30047AF1EE10FA00F3FE80DFEDC37AF4EECC
S31500002B40E76AF1EE10FA00F1F680A389002B40F057
S31500002B505881DFEDBE7AB4EEE70AF1EE10FA07D53A
S31500002B60DFEDBB7AB4EEE70AF1EE10FA00F3378137
S31500002B7094ED057AF7EE007AC7EE876A87EE808ACB
S31500002B8038EE668AB5EEC08AF1EE10FA206B48BFC1
S31500002B909FEDB08A00F036FBD4ED0D7A68EE277A09
S31500002BA041EC190B17EE900A00F02CFBB0EE491A17
S31500002BB0F0EE691A41EC100B01F03AF9002251ECE3
S31500002BC0100BA54B02F0E4FA00F0FCFBDFEDA37A54
S31500002BD008EE100AB4EEE78AF1EE10FA00F1CB80A7
S31500002BE000F010FBDFED9E8A41EC100B68EE288AA0
S31500002BF09FED8B1B01F01CF98BA3D3E9002351EC4D
S31500002C00100B02F0C5FA00F0DDFB237E07EE100A7A
S31500002C10012B40F2B780D4ED073A94ED016A78EEC5
S31500002C20E36A66EE866AD4ED0A7A76EEA36A042B28
S31500002C3076EEE77A40F2CE8094ED005ADFED895ABF
S31500002C409FED894A65EE255AF1EE004A85EE846AC3
S31500002C5026EE246AF4EEC67AF1EE10FA40F39B8073
S31500002C6094ED0B6A76EEE37A77EE867AC4ED0B7A0C
S31500002C7076EEE77ADFED7D5A9FED7D6A67EEA57AFF
S31500002C80F4EEC67AF1EE10FA65D5DFED7A5AF0EE7B
S31500002C90467A36EEE56A84ED0B6A94ED0E4AD4ED7B
S31500002CA00F4A94ED115AD4ED105AB5EE006A38EE7B
S31500002CB0448A78EEE48A37EE457A77EEE57A28EEAE
S31500002CC0068A68EE868A27EE067A67EE867A38EEF8
S31500002CD0048A78EEA48A37EE057A77EEA57A616AD9
S31500002CE0226A636984ED0E8AC4ED0F8AC4ED083A40
S31500002CF0C4ED076A84ED117AC4ED107AA1626262AE
S31500002D00002085ED048AC5ED038ABDEC048B85EDB4
S31500002D10027AC5ED057A6B6038BD30EE477ADFED95
S31500002D20497A70EE476AF4EEE76AF1EE10FA84ED3E
S31500002D30047A7FF702AFDFED4D6A94ED007AC6EEB6
S31500002D40877AFCEEE77A17EE903A9BB2A381002BC6
S31500002D507FF40EAFFDE69FED486AF4EEC67AF1EE1B
S31500002D6010FA9ADD9FED456A36EEC66AF0EE657A90
S31500002D7084ED0B6A91E7DFED428A9FED2D0BB0EEF5
S31500002D80678A35E7D4ED0B7AD4ED073AF0EE686A38
S31500002D9078EEE77A6EE79FED3B6A25EE065A85EEFA
S31500002DA0046A66EE244AF4EEE47AF1EE10FA11D5DE
S31500002DB0F7EE007AF4EEE73AF1EE10FA28DD94ED3C
S31500002DC00B6A26EE866AC6EE237AC4ED0B7A76EE99
S31500002DD0E77A4FE7D4ED0B7A76EEE77A4AE794ED99
S31500002DE0057AB4EEC07AF1EE10FA70EE477AC4BFF7
S31500002DF0DFED256A67EEA67A37EE877A84ED057AE7
S31500002E00B8E6013B9BB2A381002B7FF4B1AEA0E6EE
S31500002E100023F0EE667AE3622CE700BFAFF3008092
S31500002E20000000000000D03F0000006066660A4017
S31500002E3000000060EF44813F0000C8430050434853
S31500002E40005043C800409C4600409CC60024F449FC
S31500002E5000401C4600000000000024407B270A3C7E
S31500002E60D7A3F03F9A99993E00007042000096431E
S31500002E700000C843ABAAAA3F00409C455555854172
S31500002E806EDD813C9A9999BE72211536FFFFFFFFD0
S31500002E9038B52DED028B1288B1F80AE052BA92B21B
S31500002EA0964504461D4691F801C0088939D29042DC
S31500002EB00BD89FED1F8A2946B0EE480ABDEC028B5F
S31500002EC02046BDE83840FFF7E7BD07EE90CAA2EB03
S31500002ED00E03B8EEE77A07EE903A821AF8EEE76A42
S31500002EE0DFED145A07EE902AB8EEE76A67EE257A08
S31500002EF067EEA67A87EE868A18EE100A00F082F947
S31500002F0009A3D3E9002300F053FA0028D1D1DFED5D
S31500002F100A7AB4EE678AF1EE10FA48BFB0EE678A15
S31500002F20C9E79FED058AC6E7000000A2941A6D4224
S31500002F30A5D4685300007A440000C84281F00041DD
S31500002F4002E000BF83F0004330B54FEA41044FEA88
S31500002F50430594EA050F08BF90EA020F1FBF54EA23
S31500002F60000C55EA020C7FEA645C7FEA655C00F0BF
S31500002F70E2804FEA5454D4EB5555B8BF6D420CDD90
S31500002F802C4480EA020281EA030382EA000083EA13
S31500002F90010180EA020281EA0303362D88BF30BDB3
S31500002FA011F0004F4FEA01314FF4801C4CEA113109
S31500002FB002D0404261EB410113F0004F4FEA033368
S31500002FC04CEA133302D0524263EB430394EA050FF3
S31500002FD000F0A780A4F10104D5F1200E0DDB02FA62
S31500002FE00EFC22FA05F2801841F1000103FA0EF2F6
S31500002FF0801843FA05F359410EE0A5F120050EF1BC
S31500003000200E012A03FA0EFC28BF4CF0020C43FAEC
S3150000301005F3C01851EBE37101F0004507D54FF0F9
S31500003020000EDCF1000C7EEB00006EEB0101B1F549
S31500003030801F1BD3B1F5001F0CD349085FEA30008F
S315000030404FEA3C0C04F101044FEA445212F5800F9A
S3150000305080F09A80BCF1004F08BF5FEA500C50F137
S31500003060000041EB045141EA050130BD5FEA4C0C1A
S31500003070404141EB0101013C28BFB1F5801FE9D277
S3150000308091F0000F04BF01460020B1FA81F308BF9A
S315000030902033A3F10B03B3F120020CDA0C3208DD66
S315000030A002F1140CC2F10C0201FA0CF021FA02F141
S315000030B00CE002F11402D8BFC2F1200C01FA02F1B1
S315000030C020FA0CFCDCBF41EA0C019040E41AA2BFD6
S315000030D001EB0451294330BD6FEA04041F3C1CDA9E
S315000030E00C340EDC04F11404C4F1200220FA04F0BE
S315000030F001FA02F340EA030021FA04F345EA030168
S3150000310030BDC4F10C04C4F1200220FA02F001FA29
S3150000311004F340EA0300294630BD21FA04F02946AB
S3150000312030BD94F0000F83F4801306BF81F4801144
S315000031300134013D4EE77FEA645C18BF7FEA655CB7
S3150000314029D094EA050F08BF90EA020F05D054EA89
S31500003150000C04BF1946104630BD91EA030F1EBF8E
S315000031600021002030BD5FEA545C05D14000494192
S3150000317028BF41F0004130BD14F580043CBF01F585
S31500003180801130BD01F0004545F0FE4141F470016B
S315000031904FF0000030BD7FEA645C1ABF1946104646
S315000031A07FEA655C1CBF0B46024650EA013406BF47
S315000031B052EA033591EA030F41F4002130BD00BF06
S315000031C090F0000F04BF0021704730B54FF48064C3
S315000031D004F132044FF000054FF0000150E700BF44
S315000031E090F0000F04BF0021704730B54FF48064A3
S315000031F004F1320410F0004548BF40424FF0000190
S315000032003EE700BF42004FEAE2014FEA31014FEAD2
S3150000321002701FBF12F07F4393F07F4F81F0605121
S31500003220704732F07F4208BF704793F07F4F04BF6C
S3150000323041F40021704730B54FF4607401F0004549
S3150000324021F000411CE700BF50EA010208BF7047A9
S3150000325030B54FF000050AE050EA010208BF70479A
S3150000326030B511F0004502D5404261EB41014FF403
S31500003270806404F132045FEA915C3FF4D8AE4FF00B
S3150000328003025FEADC0C18BF03325FEADC0C18BFEE
S31500003290033202EBDC02C2F1200300FA03FC20FA3F
S315000032A002F001FA03FE40EA0E0021FA02F114448C
S315000032B0BDE600BF4FF0FF3C06E000BF4FF0010C3B
S315000032C002E000BF4FF0010C4DF804CD4FEA410C6F
S315000032D07FEA6C5C4FEA430C18BF7FEA6C5C1BD03C
S315000032E001B050EA410C0CBF52EA430C91EA030FBD
S315000032F002BF90EA020F0020704710F1000F91EA1A
S31500003300030F58BF994208BF90422CBFD8176FEAE7
S31500003310E37040F0010070474FEA410C7FEA6C5CB5
S3150000332002D150EA013C07D14FEA430C7FEA6C5CBC
S31500003330D6D152EA033CD3D05DF8040B704700BFE8
S315000033408446104662468C461946634600E000BF36
S3150000335001B5FFF7B7FF002848BF10F1000F01BD08
S315000033604DF808EDFFF7F4FF0CBF012000205DF8D3
S3150000337008FB00BF4DF808EDFFF7EAFF34BF012058
S3150000338000205DF808FB00BF4DF808EDFFF7E0FFF1
S3150000339094BF012000205DF808FB00BF4DF808ED42
S315000033A0FFF7CEFF94BF012000205DF808FB00BFA9
S315000033B04DF808EDFFF7C4FF34BF012000205DF88B
S315000033C008FB00BF4FEA4102B2F1E04324BFB3F568
S315000033D0001CDCF1FE5C0DD901F0004C4FEAC00286
S315000033E04CEA5070B2F1004F40EB830008BF20F06A
S315000033F00100704711F0804F21D113F13872BCBF24
S3150000340001F00040704741F480114FEA5252C2F178
S315000034101802C2F1200C10FA0CF320FA02F018BFC1
S3150000342040F001004FEAC1234FEAD32303FA0CFC14
S3150000343040EA0C0023FA02F34FEA4303CCE77FEAA3
S31500003440625307D150EA01331EBF4FF0FE4040F4ED
S315000034504000704701F0004040F0FE4040F400009C
S31500003460704700BF014B1868704700BF0C01002071
S315000034700A44431E914200D1704710B511F8014B22
S31500003480914203F8014FF9D110BD0244034693421D
S3150000349000D1704703F8011BF9E7FFFF0EB400B532
S315000034A09CB06FF000411DAB02900690079104910D
S315000034B00848094953F8042B059102A900680193AD
S315000034C000F070F8029B00221A701CB05DF804EB45
S315000034D003B070470C0100200802FFFF034613F8F3
S315000034E0012B002AFBD1181A013870472DE9F04745
S315000034F08E6882460C4690469E421F4638D88A8978
S3150000350012F4906F32D0256801330969A5EB0109E1
S31500003510656905EB45054B4405EBD5756D109D4278
S3150000352038BF1D46530531D5294600F065FB0646D2
S3150000353050B90C234FF0FF30CAF80030A38943F08E
S315000035404003A381BDE8F0874A462169FFF790FF53
S31500003550A38923F4906343F08003A38126614E443C
S315000035606561A5EB090526603E46A560BE4200D909
S315000035703E4632464146206800F0B8FAA36800206D
S315000035809B1BA360236833442360DBE72A4600F0D5
S31500003590A7FB06460028E1D12169504600F0C0FA93
S315000035A0C7E7FFFF2DE9F04F98468B899DB0074688
S315000035B01B060D4614460ED50B6963B9402100F073
S315000035C01BFB2860286120B90C233B604FF0FF30BD
S315000035D0D1E040236B610023CDF80C804FF0010948
S315000035E0DFF8AC81099320238DF8293030238DF83C
S315000035F02A3023469A4613F8012B0AB1252AF9D117
S31500003600BAEB040B0BD05B46224629463846FFF739
S315000036106DFF013000F0AA80099A5A4409929AF87F
S315000036200030002B00F0A28000234FF0FF320AF199
S31500003630010A049307938DF853301A93CDE90523B5
S3150000364054460522524814F8011B00F041FA049A28
S31500003650D8B9D00644BF20238DF85330110744BF94
S315000036602B238DF853309AF800302A2B15D0079A61
S31500003670544600204FF00A0C214611F8013B303B1E
S31500003680092B4ED9B0B1079214E0A0EB0803A2466D
S3150000369009FA03F313430493D2E7039B191D1B682E
S315000036A0002B0391BBBF5B4242F0020207930793D4
S315000036B0B8BF049223782E2B0CD163782A2B35D1F0
S315000036C0039B02341A1D1B68002B0392B8BF4FF0F0
S315000036D0FF330593DFF8C8A003222178504600F097
S315000036E0F7F940B14023A0EB0A00013403FA00F0D9
S315000036F0049B0343049314F8011B062225488DF806
S31500003700281000F0E5F9002838D0234B1BBB039B9B
S31500003710073323F0070308330393099B33440993C4
S3150000372067E70CFB02320C460120A5E700230134B3
S315000037304FF00A0C19460593204610F8012B303A33
S31500003740092A03D9002BC5D00591C3E70CFB01213B
S3150000375004460123F0E703AB2A4604A93846009342
S315000037600E4B00E000BF421C0646D6D1AB895B0675
S315000037703FF52CAF09981DB0BDE8F08F03AB2A4684
S3150000378004A938460093054B00F07CF8EBE700BF30
S31500003790285D0000325D000000000000ED340000EE
S315000037A02E5D00002DE9F047164699468A680746C1
S315000037B00B690C46DDF820809342B8BF1346336090
S315000037C091F843200AB1013333602368990642BF5A
S315000037D0336802333360256815F0060506D104F117
S315000037E0190AE36832689B1AAB4229DC94F8432035
S315000037F0131E226818BF012392062ED404F1430239
S3150000380049463846C047013021D023681A3454F857
S315000038100E5C03F0060332680026042B54F8123CB3
S3150000382008BFAD1A54F80A2C14BF002525EAE57521
S315000038309342C4BF9B1AED18B5421AD1002008E086
S315000038400123524649463846C047013003D14FF05E
S31500003850FF30BDE8F0870135C3E7E1185A1C302078
S315000038600233224481F8430094F8451082F843104D
S31500003870C4E70123224649463846C0470130E6D010
S315000038800136D9E72DE9FF470F7E914680460C4663
S31500003890782F9A460C9D01F1430207D8622F0AD869
S315000038A0002F00F0D880582F00F0A38004F14205C5
S315000038B084F842703AE0A7F16303152BF6D801A10C
S315000038C051F823F01D39000031390000AD380000F1
S315000038D0AD380000AD380000AD38000031390000C9
S315000038E0AD380000AD380000AD380000AD3800003E
S315000038F03D3A0000613900001F3A0000AD38000073
S31500003900AD3800005F3A0000AD38000061390000B4
S31500003910AD380000AD380000273A00002B681A1DAC
S315000039201B682A6004F1420584F842300123A3E0B3
S3150000393020682968060601F104030AD50E682B6083
S31500003940002E03DA2D23764284F843305E480A239C
S3150000395019E00E6810F0400F2B6018BF36B2EFE783
S315000039602B682068191D2960010601D51E6802E032
S315000039704606FBD51E886F2F53480CBF08230A2323
S31500003980002184F843106568002DA560A2BF216858
S3150000399021F0040121600EB9002D4DD01546B6FB6D
S315000039A0F3F103FB1167C75D05F8017D37460E4647
S315000039B0BB42F4D9082B0BD12368DE0708D523694F
S315000039C061689942DEBF302305F8013C05F1FF35F9
S315000039D0521B22614B4603AA21464046CDF800A061
S315000039E0FFF7E0FE01304CD14FF0FF3004B0BDE8E8
S315000039F0F087354881F845702968236851F8046BCB
S31500003A0029601D0614D5DF0744BF43F02003236059
S31500003A101EB9236823F0200323601023B0E7236830
S31500003A2043F0200323607823284884F84530E3E7F1
S31500003A30590648BFB6B2E6E71546BBE72B682668C7
S31500003A40181D6169286035061B6801D5196002E0FA
S31500003A507006FBD51980002315462361BAE72B684B
S31500003A6000211A1D2A601D686268284600F030F899
S31500003A7008B1401B606063682361002384F843300B
S31500003A80A8E723692A4649464046D0470130ABD0CD
S31500003A9023689B0713D4E068039B9842B8BF184677
S31500003AA0A4E70123324649464046D04701309BD021
S31500003AB00135E36803995B1AAB42F2DCEBE70025BC
S31500003AC004F11906F5E700BF395D00004A5D000004
S31500003AD0C9B2024410B59042034601D1002303E067
S31500003AE01C7801308C42F6D1184610BD884210B5BC
S31500003AF001EB020402D98442234607D8431EA142A1
S31500003B0008D011F8012B03F8012FF8E7024401460B
S31500003B108A4200D110BD13F8014D02F8014DF7E7B6
S31500003B2037B5002943D051F8043C0C1F0190002BF7
S31500003B30B8BFE41800F014F91E4A0198136833B9A7
S31500003B406360146003B0BDE8304000F00FB9A342D3
S31500003B5008D9256861198B4201BF19685B68491944
S31500003B602160EDE71A465B680BB1A342FAD91168EA
S31500003B705518A5420BD12468214454181160A3425C
S31500003B80E0D11C685B68214453601160DAE702D912
S31500003B900C230360D6E7256861198B4202BF1968BA
S31500003BA05B684919636008BF21605460CAE703B0C7
S31500003BB030BD00BF2405002070B50E4E0C460546EC
S31500003BC0316811B900F0BCF830602146284600F093
S31500003BD0B7F8431C0AD0C41C24F00304A04207D043
S31500003BE0211A284600F0ACF8013001D14FF0FF341D
S31500003BF0204670BD280500202DE9F041CD1C074662
S31500003C0025F0030508350C2D38BF0C25002D01DBEA
S31500003C10A94205D90C2300263B603046BDE8F08159
S31500003C202E4E00F09DF833681C4634BB29463846B4
S31500003C30FFF7C2FF431C04464DD134682646002ECA
S31500003C4040D123683146384604EB030800F078F883
S31500003C5080453AD12168033538466D1A25F00305AB
S31500003C6008350C2D38BF0C252946FFF7A5FF013076
S31500003C702BD023682B4423600EE02268521B1ED4EF
S31500003C800B2A16D96119A342256018BF59606368CB
S31500003C9008BF316062514B6004F10B06384600F0F4
S31500003CA065F8231D26F00706F21AB6D09B1BA35013
S31500003CB0B3E76268A3420CBF32605A60ECE7234662
S31500003CC06468B2E734467668B9E70C2338463B6049
S31500003CD000F04CF8A1E72560DEE700BF24050020D0
S31500003CE02DE9F041804614460E4621B91146BDE83D
S31500003CF0F041FFF781BF2AB92546FFF711FF284695
S31500003D00BDE8F08100F038F88442074602D8B4EBEB
S31500003D10500F12D821464046FFF76EFF0546002891
S31500003D20EDD0BC422246314628BF3A46FFF7A0FBFB
S31500003D3031464046FFF7F4FEE1E73546DFE7FFFF91
S31500003D4038B50023054D044608462B60FEF77CFD7A
S31500003D50431C02D12B6803B1236038BD2C0500201B
S31500003D60014800F011B800BF30050020014800F0FE
S31500003D700CB800BF3005002051F8043C181F002B7A
S31500003D80BCBF0B58C018704770477047FFFFFFFF56
S31500003D9008B52DED048BB0EE408AF0EE608A00F097
S31500003DA0BFF8B0EE409AF0EE609AB0EE480AF0EE38
S31500003DB0680A01F04BF978B119A3D3E9002351EC55
S31500003DC0180BFFF7F5FA70B917A3D3E9002351ECE6
S31500003DD0180BFFF7CFFA98B9B0EE490AF0EE690A68
S31500003DE0BDEC048B08BD9FED0A9BFFF73BFB22232E
S31500003DF0B0EE490AF0EE690A0360BDEC048B08BD1B
S31500003E00FFF730FB22239FED049B0360E4E700BF2E
S31500003E10000000000000F07F00000000000000002D
S31500003E20EF39FAFE422E864051302DD5104987C013
S31500003E30F8B555EC114B2DED028B57EC106B00F0DD
S31500003E405BFA22462B4620462946B0EE408AF0EE23
S31500003E50608A01F0AFFB78B900220023304639466C
S31500003E60FFF77EFAF0B10022002320462946FFF72D
S31500003E7077FA40B19FED288BB0EE480AF0EE680A5B
S31500003E80BDEC028BF8BD45EC104B01F0DFF80028C5
S31500003E90F2D02046294600220023FFF76BFA0028BD
S31500003EA0EAD02EE0B0EE480AF0EE680A01F0CEF84D
S31500003EB0A0B10022002351EC180BFFF751FA00289D
S31500003EC0DAD047EC106B01F0C1F80028D4D045ECED
S31500003ED0104B01F0BBF80028CED012E047EC106B77
S31500003EE001F0B4F80028E4D045EC104B01F0AEF830
S31500003EF00028DED053EC182B51EC180B01F05AFBBE
S31500003F0020B9FFF7AFFA22230360B5E7FFF7AAFA55
S31500003F1021230360B0E700BF000000000000F03F6F
S31500003F202DE9F04F55EC104B25F00042DC49EE0F21
S31500003F308A422DED028B83B00ED9DA498A4274D9B2
S31500003F40C5F3130310EE102A234340F06281002EBE
S31500003F5066D09FEDBB0B63E0D34B9A4200F2228101
S31500003F60D24B9A4240F23D8122462B4620462946B4
S31500003F7001F00EF906460F46B3A3D3E9002301F07C
S31500003F8007F9B3A3D3E90023FEF7DCFF32463B462D
S31500003F9001F0FEF8B0A3D3E90023FEF7D5FF3246C1
S31500003FA03B4601F0F5F8AEA3D3E90023FEF7CAFFBE
S31500003FB032463B4601F0ECF8ABA3D3E90023FEF70B
S31500003FC0C3FF32463B4601F0E3F802460B46204665
S31500003FD02946FEF7B7FF0A460146914688460A4635
S31500003FE020464B46294601F0D3F806460F460022E6
S31500003FF04FF0804340464946FEF7A4FF02460B4673
S315000040003046394601F0EEF922462B46FEF79AFF76
S3150000401002460B460020A649FEF794FF41EC100B22
S3150000402003B0BDEC028BBDE8F08F91A3D3E900236A
S3150000403010EE100A2946FFF7BBF90746002840F0A4
S31500004040F480204629468CA3D3E90023FFF792F992
S31500004050002840F04981974B2046294603EBC606C7
S3150000406087A3D3E9002301F093F8D6E90023FEF7EE
S315000040706BFF01F0B5FA0190FFF7B2F806460F465E
S3150000408081A3D3E9002301F083F802460B462046BC
S315000040902946FEF757FF80468946304639467CA3B7
S315000040A0D3E9002301F074F841EC180B53EC182BFC
S315000040B040464946FEF746FF02460B4682468B4679
S315000040C001F066F804460D465FA3D3E9002301F02C
S315000040D05FF85FA3D3E90023FEF734FF22462B46A1
S315000040E001F056F85CA3D3E90023FEF72DFF224624
S315000040F02B4601F04DF85AA3D3E90023FEF722FF21
S3150000410022462B4601F044F857A3D3E90023FEF7D5
S315000041101BFF22462B46544601F03AF802460B4650
S31500004120504659465D46FEF70DFF019B0F46064673
S3150000413001463A46002B3FF450AF32463B465046C6
S31500004140594601F025F804460D4632463B46002006
S315000041504FF08041FEF7F6FE02460B462046294602
S3150000416001F040F902460B4651EC180BFEF7EAFE49
S3150000417042464B46FEF7E6FE0B4602464C490020F9
S31500004180FEF7E0FE6FF47F73019C9C42C0F29A80BA
S31500004190024601EB045343EC102B03B0BDEC028B3B
S315000041A0BDE8F08F444B9A423FF655AF434B10EEB5
S315000041B0100A2946F40003EBC603C6F1010AD3E947
S315000041C00023FEF7BFFE3E4B80468946234493ED0F
S315000041D0007BAAEB0603B0EE478AF0EE678A0193EE
S315000041E064E72DA3D3E9002310EE100A2946FEF753
S315000041F0ABFE00222E4BFFF7DBF800283FF4B4AEEF
S3150000420000222B4B20462946FEF79EFE41EC100B62
S3150000421006E72B4620462946FEF796FE41EC100B94
S3150000422003B0BDEC028BBDE8F08F002003B0BDECFF
S31500004230028BBDE8F04F00F0F5BE00BFAFF3008083
S315000042400000000000000000D0A4BE726937663E80
S31500004250F16BD2C541BDBB3E2CDE25AF6A56113F80
S3150000426093BDBE166CC1663F3E5555555555C53F67
S31500004270EF39FAFE422E864051302DD5104987C0BF
S31500004280FE822B654715F73F0000E0FE422EE63F13
S31500004290763C7935EF39EA3D9C7500883CE4377EFB
S315000042A0412E8640FFFFEF7F422ED63FFFFFEF3DB8
S315000042B00000F03FC05D0000B1A2F03FD05D0000FD
S315000042C0E05D0000019A4FF0B87302F57A7A002299
S315000042D001EB0A55294600F05BFF41EC100B03B0D9
S315000042E0BDEC028BBDE8F08F384603B0BDEC028B07
S315000042F0BDE8F04F00F08CBE2DE9F04F55EC114BA8
S3150000430025F0004A5AEA04012DED0C8B57EC106B90
S3150000431087B029D1B31987F40022654852419942E2
S3150000432070EB020319D222462B4630463946FEF779
S315000043300BFE41EC100B07B0BDEC0C8BBDE8F08F0B
S315000043405C4B43441A43EED1231985F400215848A7
S3150000435049419A4270EB0103E5D39FED530B07B039
S31500004360BDEC0C8BBDE8F08F534927F00049B846E9
S3150000437010EE102A8945E3DCAB4611EE103A01D166
S31500004380002ED0D14C498A45DADC01D1002BD7D199
S31500004390B8F1000F43DB0021009183B9464B9A45E3
S315000043A059D0464B9A4569D0BBF1804F00F0B8848E
S315000043B0434B9B4503D1B8F1000F80F2088502926A
S315000043C047EC106B00F038FE029A4AB928F04043D9
S315000043D03A4A934200F0A783B9F1000F00F0A38395
S315000043E04FEAD873009A013B049313434DD0354BE3
S315000043F09A456DDD03F104739A45334B40F32284ED
S31500004400994540F39784BBF1000F40F39784002051
S3150000441007B0BDEC0C8BBDE8F04F00F003BE2B4996
S315000044208A4528DCA1F154718A45B4DD4FEA2A5148
S31500004430A1F2FF31142940F38384C1F1340123FA38
S3150000444001F000FA01F19942A5D100F00100C0F196
S3150000445002010091A1E7174B4B4413433FF47DAF94
S31500004460194B994540F3A483BBF1000FC0F28A842F
S3150000447045EC104B5FE7022100918EE7BBF1000F80
S31500004480C0F2448447EC106B55E732463B46104673
S315000044901946FEF757FD02460B4600F0A3FF41EC16
S315000044A0100B48E7AFF30080000000000000F03F6B
S315000044B00000F0FF000010C00000F07F0000F03F99
S315000044C00000E03F0000E041FFFFEF3FFFFF3F43FA
S315000044D0E34B002208EA030353B9E24B51EC100BFD
S315000044E000F056FE6FF0340241EC100B10EE909A7D
S315000044F04FEA2953C9F31309DB4EA3F2FF3349EA06
S3150000450006069A18D94B9945059207DDD84B994569
S3150000451040F324840132A6F58016059200279FED0C
S31500004520B87B9FEDB96BB0EE47DAF0EE67DAB0EE26
S3150000453047CAF0EE67CA51EC160B53EC102B334604
S31500004540761043EC192B41EC1A0B02460B4646F04B
S31500004550005651EC190BFEF7F5FC8046894653ECE4
S315000045601A2B51EC190BFEF7EFFC02460B46002006
S31500004570BD4900F037FF41EC1B0B53EC1B2B4046AB
S31500004580494600F005FE0A4606F5002341EC180BE5
S3150000459001460020CDE9021200210646024602919C
S315000045A0D919DDE902AB0F460B465046594600F0D5
S315000045B0EFFD02460B4640464946FEF7C3FC8046E1
S315000045C089463046394653EC1A2BFEF7BBFC0246A9
S315000045D00B4651EC190BFEF7B5FC52465B4600F054
S315000045E0D7FD02460B4640464946FEF7ABFC53EC68
S315000045F01B2B00F0CDFD53EC182B41EC190B51ECA5
S31500004600180B00F0C5FD06460F4681A3D3E900232B
S3150000461000F0BEFD80A3D3E90023FEF795FC3246E9
S315000046203B4600F0B5FD7EA3D3E90023FEF78CFCE4
S3150000463032463B4600F0ACFD7BA3D3E90023FEF7F0
S3150000464083FC32463B4600F0A3FD79A3D3E9002361
S31500004650FEF77AFC32463B4600F09AFD76A3D3E994
S315000046600023FEF771FC8046894632463B463046BB
S31500004670394600F08DFD02460B464046494600F09D
S3150000468087FD524606460F465B4651EC180BFEF771
S315000046905BFC53EC192B00F07BFD32463B460026B3
S315000046A0FEF752FC5246804689465B4650465946BE
S315000046B000F06EFD02460B4643EC1A2B00226D4BB2
S315000046C0FEF742FC42464B46FEF73EFC0F4632469C
S315000046D050463B46594600F05BFD002282468B461B
S315000046E0644B30463946FEF72DFC53EC1A2BFEF789
S315000046F029FC02460B4640464946FEF723FC53EC8E
S31500004700182B00F045FD8046894632463B4651EC63
S31500004710190B00F03DFD02460B4640464946FEF7A2
S3150000472013FC804689465046424659464B46FEF79C
S315000047300BFC0F46304642A3D3E9002300F028FDC8
S3150000474052465B4641EC190B30463946FEF7FAFBFA
S3150000475002460B4640464946FEF7F4FB3AA3D3E928
S31500004760002300F015FD804689463046394638A3B9
S31500004770D3E9002300F00CFD02460B4640464946AD
S31500004780FEF7E2FB53EC1C2BFEF7DEFB06460F465C
S315000047900598FEF725FD3246804689463B4651EC94
S315000047A0190BFEF7D1FB53EC1D2BFEF7CDFB424652
S315000047B04B46FEF7C9FB002042464B4682468B46D7
S315000047C0FEF7C0FB53EC1D2BFEF7BCFB53EC192B7D
S315000047D0FEF7B8FB02460B4630463946FEF7B2FBFB
S315000047E0009B049A013B134341EC180B40F0D9811E
S315000047F09FED197BB0EE479AF0EE679A3CE000BF5A
S315000048000000000000000000000000000000F03F73
S31500004810EF4E454A287ECA3F65DBC9934A86CD3F9F
S3150000482001411DA96074D13F4D268F515555D53F85
S31500004830FFAB6FDBB66DDB3F033333333333E33F1D
S31500004840000000E009C7EE3FFD033ADC09C7EE3F72
S31500004850F5015B14E02F3EBE000000000000F0BF33
S315000048600000F07F000040430000F03F8E980300F8
S3150000487079B60B0000000840002320462946CDE902
S3150000488000450093DDE9008942464B46FEF75AFB98
S3150000489052465B4600F07CFC06460F4622462B46F7
S315000048A051EC180B00F074FC02460B4630463946B4
S315000048B0FEF74AFB42464B4606460F4650465946C9
S315000048C000F066FC04460D463046394622462B4625
S315000048D0FEF73AFBD44B8046894699428A4640F316
S315000048E03A81D24B0B44034340F058823046394656
S315000048F0B7A3D3E90023FEF727FB22462B4641EC5C
S31500004900180B40464946FEF71DFB02460B4651EC86
S31500004910180BFEF74DFD002840F04082CAF30A53FB
S315000049204FF48012A3F2FE33C149002042FA03F38A
S31500004930BAF1000F5344C3F30A52A2F2FF3241FA0E
S3150000494002FCC3F31301C2F1140241F4801141FACF
S3150000495002F223EA0C0100920B46024602DA0099A3
S315000049604942009120462946FEF7ECFA009B024692
S3150000497004461B050D46304602930B463946FEF7A4
S31500004980E3FA89464FF00008494693A3D3E900238A
S31500004990404600F0FDFB224682468B462B464046AB
S315000049A04946FEF7CFFA02460B4630463946FEF731
S315000049B0C9FA8BA3D3E9002300F0EAFB04460D46AF
S315000049C04046494688A3D3E9002300F0E1FB0246AE
S315000049D00B4620462946FEF7B7FA06460F465046CE
S315000049E0324659463B46FEF7AFFA524604460D4656
S315000049F05B46FEF7A7FA02460B4630463946FEF7F7
S31500004A00A1FA224682468B462B462046294600F0CE
S31500004A10BFFB06460F4676A3D3E9002300F0B8FB9A
S31500004A2075A3D3E90023FEF78DFA32463B4600F024
S31500004A30AFFB73A3D3E90023FEF786FA32463B4663
S31500004A4000F0A6FB70A3D3E90023FEF77BFA3246FB
S31500004A503B4600F09DFB6EA3D3E90023FEF774FAF4
S31500004A6032463B4600F094FB02460B46204629465A
S31500004A70FEF768FA06460F462046324629463B466A
S31500004A8000F086FB804689463046394600224FF0C4
S31500004A908043FEF757FA02460B464046494600F069
S31500004AA0A1FC524606460F465B462046294600F0C4
S31500004AB06FFB52465B46FEF747FA02460B46304608
S31500004AC03946FEF73FFA22462B46FEF73BFA0246E8
S31500004AD00B4600205749FEF735FA0C460B4602995D
S31500004AE002460C44B4F5801FC0F2508110462146A0
S31500004AF053EC192B00F04CFB41EC100B1BE447EC7C
S31500004B00106B009200F098FA009A002A7FF4BDAC70
S31500004B1028F04043474A934203D0B9F1000F7FF48F
S31500004B20B4AC00230093BBF1000F07DA0020414923
S31500004B3053EC102B00F056FC41EC100BB8F1000FB3
S31500004B40BFF6F9AB3C4B009A4B44134340F031811E
S31500004B5053EC102B9BE421F00043DFF8E4C06345DF
S31500004B6040F3CC80354B0B4403430AD122462B46F7
S31500004B70FEF7E8F932463B46FEF710FC00283FF404
S31500004B80CDAE0022002351EC190BFEF7F3FB0038E3
S31500004B9018BF012007B0BDEC0C8BBDE8F04F00F04C
S31500004BA037BA9FED1D7BB0EE479AF0EE679A63E643
S31500004BB0BBF1000F9FED1A0BBFF6BDAB05F100432D
S31500004BC000EE104A00EE903AFFF7B5BBAFF3008057
S31500004BD0FE822B654715973C00000000432EE63FFA
S31500004BE0EF39FAFE422EE63F396CA80C615C20BE16
S31500004BF0D0A4BE726937663EF16BD2C541BDBB3EDD
S31500004C002CDE25AF6A56113F93BDBE166CC1663FBA
S31500004C103E5555555555C53F000000000000F03F74
S31500004C200000000000000000FFFF8F40000070BF82
S31500004C30FFFF0F000000F03F000010C000346F3F80
S31500004C40FFCB9040994575DB7B4B99453FF7DBAB36
S31500004C500022794B51EC100BFEF774F906460F460D
S31500004C6065A3D3E9002300F093FA82468B463046CB
S31500004C70394663A3D3E9002300F08AFA00226F4B7A
S31500004C8041EC180B3046394600F082FA02460B46D4
S31500004C905DA1D1E90001FEF755F932463B4600F029
S31500004CA077FA02460B4600206549FEF74BF9804627
S31500004CB0894632463B463046394600F069FA024696
S31500004CC00B464046494600F063FA51A3D3E9002358
S31500004CD000F05EFA02460B4651EC180BFEF732F96D
S31500004CE006460F465046594632463B46FEF72CF9D5
S31500004CF0002052465B4682468B4669E5504A9342FF
S31500004D0075DCDDE90012029100913BE600204A497C
S31500004D1032463B4600F066FB41EC100BFFF70BBB3F
S31500004D2032463B463046394600F032FA41EC100B2B
S31500004D30FFF701BBBBF1000FFFF669AB002029E7C7
S31500004D40002B7FF4DCAEC1F114014AFA01F000FA3F
S31500004D5001F1514544D00093FFF723BB9FED2E7B15
S31500004D604FF48027B0EE47DAF0EE67DA9FED2C7B42
S31500004D70B0EE47CAF0EE67CA9FED2B7B51EC170BDE
S31500004D80FFF7DBBB9FED2A0BFFF7D5BA009843EC84
S31500004D90102B00F069F951EC100BA9E60022002354
S31500004DA051EC190BFEF7E6FA003818BF0120FFF7A1
S31500004DB02FBB009B012B7FF4BEAA10EE901A10EEBB
S31500004DC0102A01F1004343EC102BFFF7B4BA47EC6D
S31500004DD0106B07B0BDEC0C8BBDE8F04F00F032B89D
S31500004DE000F00100C0F102030093FFF7DABA1B15C9
S31500004DF096E500BFAFF30080000000604715F73F5F
S31500004E0044DF5DF80BAE543E555555555555D53FC7
S31500004E10FE822B654715F73F0000004003B8E23FCE
S31500004E2006D0CF43EBFD4C3E000000000000F83FEB
S31500004E3000000000000000000000F03F0000D03F2E
S31500004E400000E03F5E492DE9F04155EC104BA943C7
S31500004E5000F09480002D2B4610EE102A5ADD2815FE
S31500004E6067D0C3F31303C107A0F2FF3743F48013DF
S31500004E7003D45B0003EBD2735200D10F00267F10E0
S31500004E804FF0160C01EB4303B64652004FF40011E7
S31500004E900EEB0100984203DC1B1A00EB010E0E44D8
S31500004EA05B00BCF1010C4FEA510103EBD2734FEAF0
S31500004EB04202EDD1654620244FF0004114E00AD1AC
S31500004EC0904208D8002800EB010C1DDBF0460023B9
S31500004ED0121A0D44C646D00F013C4FEA510100EBB1
S31500004EE043034FEA420233D0734501EB0C00E6DD83
S31500004EF0002800EB010C07DBF046A3EB0E03904203
S31500004F0088BF03F1FF33E3E7BCF1000FF4DB0EF1DA
S31500004F100108F2E725F00041214328D0002D3DD1BC
S31500004F202846D10A153852050B460029F9D0CF027A
S31500004F3041D400245B0025460134DE02FAD5194629
S31500004F401346A240C4F12004E340401B0B4388E70C
S31500004F5013430ED16C08F3071A4948BF44F00044C6
S31500004F6001EB6601224601EB075343EC102BBDE82B
S31500004F70F0816A1C1DD06C1C6408ECE710EE102A48
S31500004F802B4610EE100A294600F002F922462B465F
S31500004F90FDF7DAFF41EC100BBDE8F081204629460B
S31500004FA0FDF7D0FF02460B4600F01CFA41EC100B51
S31500004FB0DDE70136CFE7134620244FF0FF35C3E780
S31500004FC00000F07F0000E03FD0B506460F461446CD
S31500004FD0FEF748FA0346394630461C60D0BD00BF8E
S31500004FE000B583B080B1104603F10041CDE9000160
S31500004FF010461946DDE9002300F0CAF8222203B064
S315000050005DF804EBFFF7E0BF10461946EEE700BF78
S3150000501008B500224FF08053FFF7E2FF41EC100B7A
S3150000502008BD00BF08B500224FF0E043FFF7D8FFE8
S3150000503041EC100B08BD00BF51EC100B10EE102A0E
S3150000504021F0004343EC102B704700BF82B00548A7
S315000050508DED000B019B23F000431844C00F02B0F6
S31500005060704700BF0000108038B553EC102BC3F317
S315000050700A519C46044689BB23F0004C10EE101AD8
S315000050805CEA010129D03E4D194600223D4B10EE47
S31500005090100A00F07DF8AC4202460B4616DB8C4641
S315000050A0C1F30A513639214440F2FE70814221DCB7
S315000050B0002947DC11F1350F34DA4CF250318C42BD
S315000050C018DC002B26A1D1E9000143DB24A3D3E998
S315000050D0002300F05DF841EC100B38BD40F2FF7E76
S315000050E07145E0D110EE100A1946FDF72DFF41EC8F
S315000050F0100B38BD002B1CA1D1E9000107DB1AA358
S31500005100D3E9002300F044F841EC100B38BD18A198
S31500005110D1E9000114A3D3E9002300F039F841ECEA
S31500005120100BF3E7184836311446184B0CEA00000A
S31500005130002240EA01552046294600F029F841ECB4
S31500005140100B38BD10480CEA000040EA015343EC4E
S31500005150102B38BD08A1D1E90001B7E7AFF30080F5
S3150000516059F3F8C21F6EA5019C7500883CE4377E92
S315000051709C7500883CE437FE59F3F8C21F6EA58182
S31500005180B03CFFFF00005043FFFF0F800000903C43
S3150000519070B54FF0FF0C4CF4E06C1CEA11541DBFC7
S315000051A01CEA135594EA0C0F95EA0C0F00F0DEF892
S315000051B02C4481EA030621EA4C5123EA4C5350EA77
S315000051C0013518BF52EA033541F4801143F48013C8
S315000051D038D0A0FB02CE4FF00005E1FB02E506F059
S315000051E00042E0FB03E54FF00006E1FB03569CF0AE
S315000051F0000F18BF4EF0010EA4F1FF04B6F5007FB4
S3150000520064F5407404D25FEA4E0E6D4146EB060625
S3150000521042EAC62141EA55514FEAC52040EA5E50AE
S315000052204FEACE2EB4F1FD0C88BFBCF5E06F1ED858
S31500005230BEF1004F08BF5FEA500E50F1000041EB8F
S31500005240045170BD06F0004646EA010140EA02003C
S3150000525081EA0301B4EB5C04C2BFD4EB0C0541EA5E
S31500005260045170BD41F480114FF0000E013C00F373
S31500005270AB8014F1360FDEBF002001F0004170BD97
S31500005280C4F10004203C35DA0C341BDC04F11404B0
S31500005290C4F1200500FA05F320FA04F001FA05F23C
S315000052A040EA020001F0004221F0004110EBD37009
S315000052B021FA04F642EB06015EEA430E08BF20EA35
S315000052C0D37070BDC4F10C04C4F1200500FA04F3D8
S315000052D020FA05F001FA04F240EA020001F000416A
S315000052E010EBD37041F100015EEA430E08BF20EADD
S315000052F0D37070BDC4F1200500FA05F24EEA020E25
S3150000530020FA04F301FA05F243EA020321FA04F053
S3150000531001F0004121FA04F220EA020000EBD3700A
S315000053205EEA430E08BF20EAD37070BD94F0000F0A
S315000053300FD101F00046400041EB010111F4801F3E
S3150000534008BF013CF7D041EA060195F0000F18BFEF
S31500005350704703F00046520043EB030313F4801F2B
S3150000536008BF013DF7D043EA0603704794EA0C0FE5
S315000053700CEA135518BF95EA0C0F0CD050EA4106FB
S3150000538018BF52EA4306D1D181EA030101F0004178
S315000053904FF0000070BD50EA410606BF10461946A0
S315000053A052EA430619D094EA0C0F02D150EA0136AC
S315000053B013D195EA0C0F05D152EA03361CBF1046ED
S315000053C019460AD181EA030101F0004141F0FE418C
S315000053D041F470014FF0000070BD41F0FE4141F410
S315000053E0780170BD70B54FF0FF0C4CF4E06C1CEA10
S315000053F011541DBF1CEA135594EA0C0F95EA0C0FC5
S3150000540000F0A7F8A4EB050481EA030E52EA03357F
S315000054104FEA013100F088804FEA03334FF08055A0
S3150000542045EA131343EA12634FEA022245EA1115CD
S3150000543045EA10654FEA00260EF000419D4208BF7E
S31500005440964244F1FD0404F5407402D25B084FEA2B
S315000054503202B61A65EB03055B084FEA32024FF4D7
S3150000546080104FF4002CB6EB020E75EB030E22BF34
S31500005470B61A754640EA0C005B084FEA3202B6EBF4
S31500005480020E75EB030E22BFB61A754640EA5C00A3
S315000054905B084FEA3202B6EB020E75EB030E22BF33
S315000054A0B61A754640EA9C005B084FEA3202B6EB34
S315000054B0020E75EB030E22BFB61A754640EADC00F3
S315000054C055EA060E18D04FEA051545EA16754FEA55
S315000054D006164FEAC30343EA52734FEAC2025FEA73
S315000054E01C1CC0D111F4801F0BD141EA00014FF002
S315000054F000004FF0004CB6E711F4801F04BF0143D3
