S00D00004D6F746F722E7372656306
S3150000000038070020F11E00001D1D0000ED1E000037
S31500000010ED1E0000ED1E0000ED1E0000ED1E0000AE
S31500000020000000000000000000000000ED1E0000BF
S31500000030ED1E000000000000ED1E0000ED1E000099
S315000000402D1700006D18000061190000291A000024
S31500000050290D0000990C0000B90D0000010E0000EA
S31500000060000000000000000000000000000000008A
S31500000070000000000000000000000000000000007A
S31500000080000000000000000000000000000000006A
S31500000090000000000000000000000000000000005A
S315000000A0000000000000000000000000000000004A
S315000000B0000000000000000000000000000000003A
S315000000C0000000000000000000000000000000002A
S315000000D0000000000000000000000000000000001A
S315000000E0000000000000000000000000000000000A
S315000000F000000000000000000000000000000000FA
S3150000010000000000000000000000000000000000E9
S3150000011000000000000000000000000000000000D9
S3150000012000000000000000000000000000000000C9
S3150000013000000000000000000000000000000000B9
S3150000014000000000000000000000000000000000A9
S315000001500000000000000000000000000000000099
S315000001600000000000000000000000000000000089
S315000001700000000000000000000000000000000079
S315000001800000000000000000000000000000000069
S315000001900000000000000000000000000000000059
S315000001A00000000000000000000000000000000049
S315000001B00000000000000000000000000000000039
S315000001C0FFFFFFFFFFFFFFFFFFFFFFFFFFFFFFFF39
S315000001D0FFFFFFFFFFFFFFFFFFFFFFFFFFFFFFFF29
S315000001E0FFFFFFFFFFFFFFFFFFFFFFFFFFFFFFFF19
S315000001F0FFFFFFFFFFFFFFFFFFFFFFFFFFFFFFFF09
S3150000020010B5054C237833B9044B13B1044800E00C
S3150000021000BF0123237010BD9800002000000000DD
S31500000220482F000008B5034B1BB10349034800E003
S3150000023000BF08BD000000009C000020482F000001
S31500000240022800D07047024B0248596800F07CBF74
S31500000250582A0000F800002008B5074B9B68D3E930
S31500000260011218681268904700B908BDF821034BBF
S31500000270034A044801F016FD000000205029000042
S31500000280F029000064290000037913B90122014B0B
S315000002901A707047B400002008B5074BD3E9011265
S315000002A018681268904700B908BD40F21711034B51
S315000002B0034A044801F0F6FC642A000050290000B5
S315000002C0D8290000642900000379022B02D10122FB
S315000002D0014B1A70704700BFB500002038B50346C1
S315000002E04FF4E86505FB03F3174C9B08A4FB034397
S315000002F001229B0840F20F11144803F5087400F020
S31500000300EBFD90B905460121204601F0D3FC2A46B3
S3150000031040F20F110D4800F0DFFD68B9BDE8384026
S315000003204FF47A71142001F0C5BC40F24511084B18
S31500000330084A094801F0B6FC4FF4A571044B054A7A
S31500000340054801F0AFFC00BF176CC116F80000208D
S3150000035050290000CC290000642900002DE9F04F47
S315000003602DED048B024BC1B01E881EB9FEE700BFFF
S31500000370A02E000000255B68C42229460FA803931F
S315000003800E9501F030FEB149B14800F0D3FAFFF7FF
S3150000039063FFFFF781FF40F26B133B22ADF8183085
S315000003A040F601638DF817200DF11702DFF8E4829D
S315000003B007920AAA0892A748022206A9CDE90A5579
S315000003C088F800500C95ADF83450ADF8243000F0A4
S315000003D0C3F998F80030002BFBD09F499F4800F0E6
S315000003E0B3FE002840F0858182465A258146039B4C
S315000003F09B4C9C4FDFF858B203EB46062846FFF7A6
S315000004006DFF524640F20451944800F065FDEFF34B
S315000004101082012383F31088934B1B681BB9934901
S31500000420CB704023CB7090490B6801330B6082F38D
S3150000043010888F48039931F8022B130A1B0153FACF
S3150000044082F257F82230B14203EA000343EA0A0374
S3150000045043F0040347F82230EDD1EFF31082012375
S3150000046083F3108880490B6813B10B68013B0B605E
S315000004707D4B1B681BB97D49CB708023CB7082F303
S31500000480108807ABCAF1010A72480ECB5FFA8AFAE6
S3150000049088F8009000F062F998F80030002BFBD045
S315000004A0BDF82E50734B6DBAADB2A3FB0535BDF842
S315000004B0283071495BBA9AB2BDF82A300EA85BBAE9
S315000004C09BB20093BDF82C3002925BBA9BB20193AB
S315000004D0BDF830302D0A5BBA9BB208EE103ABDF873
S315000004E0323024355BBA9BB208EE903ABDF8343010
S315000004F05BBA9BB209EE103A01F07EFD0EA884F8B5
S31500000500009001F099FD0EA90246584600F0CCF97C
S31500000510237833B90121084601F0CCFB2378002B60
S31500000520F8D0009A55490EA801F066FD0EA884F889
S31500000530009001F081FD0EA90246584600F0B4F97C
S31500000540237833B90121084601F0B4FB2378002B48
S31500000550F8D0019A4A490EA801F04EFD0EA884F87B
S31500000560009001F069FD0EA90246584600F09CF97C
S31500000570237833B90121084601F09CFB2378002B30
S31500000580F8D02A463F490EA801F036FD0EA884F899
S31500000590009001F051FD0EA90246584600F084F97C
S315000005A0237833B90121084601F084FB2378002B18
S315000005B0F8D018EE102A34490EA801F01DFD0EA839
S315000005C084F8009001F038FD0EA90246584600F066
S315000005D06BF9237833B90121084601F06BFB2378C8
S315000005E0002BF8D018EE902A28490EA801F004FD39
S315000005F00EA884F8009001F01FFD0EA90246584689
S3150000060000F052F9237833B90121084601F052FB74
S315000006102378002BF8D019EE102A1D490EA801F0F8
S31500000620EBFC0EA884F8009001F006FD0EA9024628
S31500000630584600F039F9237873BB0121084601F0CA
S3150000064039FB2378002BF8D026E000BFAC2A000047
S315000006502001002000010020E02A0000F800002010
S31500000660B50000200008084090010020000D084059
S31500000670FE3FFEFFC1C0C0C07829000084290000EB
S31500000680902900009C290000A8290000B429000038
S31500000690C0290000B400002047F22F55029BAB4250
S315000006A025DD009BAB4222DD019BAB42CCBFB425CE
S315000006B000254FF47A714FF4FA7001F0FBFA104BF3
S315000006C00EA80E9384F8009001F0B6FC0EA902461F
S315000006D0584600F0E9F82378002B7FF48FAE01210D
S315000006E0084601F0E7FA2378002BF8D086E60025C5
S315000006F0DFE77921034B044A044801F0D3FA00BF2F
S315000007001B5B480050290000102A000064290000E5
S3150000071008B5FFF723FE002008BD00BF034610B44E
S31500000720CC68074AC3E900148C6800209C604C68BA
S315000007300969DA60C3E906415DF8044B704700BFFA
S3150000074021332C3203460022596810464A60DA608B
S31500000750704700BF00F05AB800F070B884B00DF1D1
S31500000760040C8CE80E009CE80E0004B000F07EB885
S3150000077070B5046803796268E169023B82B0012BB7
S315000007809268009116D8002561698DF80450C1B1B0
S31500000790936810685E6822692B46B047C4E9045521
S315000007A030B10122A3698DF804200BB16846984741
S315000007B002B070BD93681068DB68984701238DF816
S315000007C00430A369002BF1D102B070BD43685A68AA
S315000007D0824217D070B59D688368A96804460E6981
S315000007E01A7B99682868B04758B9A96862684E6943
S315000007F00346B4462868044954602246BDE8704062
S31500000800604770BD002070477107000043682DE9FE
S31500000810F04104460D4616469F68FFF7D7FF58B9C4
S31500000820C4E904000346B868324644682946A4462B
S315000008303868BDE8F0416047BDE8F08143682DE9BE
S31500000840F04104460D4616469F68FFF7BFFF58B9AC
S31500000850C4E904000346B868324684682946A446BB
S315000008603868BDE8F0416047BDE8F08130B585B035
S3150000087004AC04E90E00436804469D68FFF7A6FF32
S3150000088080B9A968029A9DF80D3028688D68C4E978
S315000008900432AC4601239DF80C20019905B0BDE851
S315000008A03040604705B030BD10B4046AA37803F049
S315000008B07B03A370837803F00303D21A0B4402610F
S315000008C0A278C360837842F0800203F00303022B10
S315000008D0A27005D00B780020E3705DF8044B7047DA
S315000008E00B88002043F47E43E3815DF8044B704798
S315000008F0F0B5846A85B005460F4694466E46B4B197
S3150000090094E80F0086E80F00EB6920461B7884F810
S3150000091004C02360EB6AC4E902736B6A9847AC6A49
S315000009201CB196E80F0084E80F0005B0F0BD344610
S31500000930EAE700BF0022F0B501240B78027003F548
S31500000940800303F58C531B0203624B698D69436276
S315000009508378C16164F301038262C56283704B7858
S3150000096023B90222837862F301038370012491F98B
S315000009700B50C44A6B0905F01F07203304FA07F72A
S315000009808E7A42F82370BFF34F8FBFF36F8FBE4B43
S3150000099005F1C00753F827C06FF3104C43F827C082
S315000009A053F82770B94F360102EB050CF6B28CF8F6
S315000009B0006347F8250091F905500E794FEA551C5A
S315000009C005F01F0E0CF1200C04FA0EFE42F82CE086
S315000009D0BFF34F8FBFF36F8F05F1C00C53F82CE0B8
S315000009E06FF3104E43F82CE053F82CC0360102EB9F
S315000009F0050CF6B28CF8006347F8250091F907500C
S31500000A008E794FEA551C05F01F0E0CF1200C04FAE6
S31500000A100EFE42F82CE0BFF34F8FBFF36F8F05F148
S31500000A20C00C53F82CE06FF3104E43F82CE053F84B
S31500000A302CC0360102EB050CF6B28CF8006347F8C1
S31500000A40250091F909500E7A4FEA551C05F01F0E44
S31500000A500CF1200C04FA0EFE42F82CE0BFF34F8F87
S31500000A60BFF36F8F05F1C00C53F82CE06FF3104EF7
S31500000A7043F82CE053F82C303301DBB22A4482F8D9
S31500000A80003347F82500EFF3108584F310884FF004
S31500000A9000447F4B0E785A68F44022EA04025A60FA
S31500000AA05B6885F31088002240F2F934036A40F24D
S31500000AB0F9359A701A715A729A72DA725A830A78EA
S31500000AC024FA02F2D60744BF4022DA740622CC6921
S31500000AD01A770A784E78D540ED078F78CA7848BFDE
S31500000AE04FF478414FEAC20248BF9982032E42EA88
S31500000AF0071200F0C280002E14BFF221E221D2B20A
S31500000B001A709971227B082A0EBF0A22520002F03F
S31500000B1002025A736278A178D201490101F02001DC
S31500000B20D2B20A430021197294F800C0ACF1020156
S31500000B30012940F29880D2B2DA71626891785578CC
S31500000B405970197865F301011970D1781278997482
S31500000B50D97902F05C0201F0A3010A43DA7100229E
S31500000B60C16902618261C260426191F90550464BDA
S31500000B7005F1C00153F8216062F3104643F8216085
S31500000B8053F82110BFF35F8F01266909890005F02C
S31500000B901F0501F1604101F5614106FA05F5C1F84D
S31500000BA080510D60C16991F90B5005F1C00153F8F0
S31500000BB0217062F3104743F8217053F82110BFF3F8
S31500000BC05F8F6909890005F01F0501F1604106FA8A
S31500000BD005F501F56141C1F880510D60C16991F9D2
S31500000BE007E00EF1C00153F8215062F3104543F8B7
S31500000BF0215053F82110BFF35F8F4FEA5E11890031
S31500000C000EF01F0E01F1604106FA0EF501F5614185
S31500000C10C1F880510D60C16991F9091001F1C00553
S31500000C2053F8257062F3104743F8257053F82530C2
S31500000C30BFF35F8F4B099B0001F01F0103F1604377
S31500000C408E4003F56143C3F880611E60036A0CF0B1
S31500000C50030C4CF0700C618983F802C00D4B0181C6
S31500000C6043601046F0BDFF21BCF1020F08BF42F001
S31500000C701002D2B25970DA7171E7F22142F04002E5
S31500000C803DE700BF00E100E0006000409401002065
S31500000C90004008405549435330B4EFF30383103BFB
S31500000CA01F4A5BB203F1C00152F821006FF31040F6
S31500000CB042F8210052F821201A4A52F82300C3694B
S31500000CC01B691BB103691BB130BC704703697BB953
S31500000CD0D0E908240021937803F07F0343F004034E
S31500000CE09370C160002CEFD030BC8022FFF700BEAD
S31500000CF0827802F003010229C1680BD0046A91F8D8
S31500000D0000C084F803C002F003029B1A0A44C0E93B
S31500000D100323D8E70C88056A44F47E44EC81F2E7A5
S31500000D20006000409401002010B582B0EFF3038309
S31500000D30103B1F4A5BB203F1C00152F821006FF36A
S31500000D40104042F8210052F821201A4A52F8234056
S31500000D50A27802F00303022B236A0CBF198A597981
S31500000D60A3690CBFC1F30801C9B2019143B9636A13
S31500000D70B3B10422204602B0BDE81040FFF7B8BD6B
S31500000D8002F0030201A9606901F020F9D4E9052106
S31500000D90A37803F003031A44C91AC4E9052109B16B
S31500000DA002B010BD636A002BFAD00122E2E700BF51
S31500000DB0006000409401002010B5EFF303830E4A53
S31500000DC0103B5CB252F82400D0E90821937803F076
S31500000DD07B03937019B102220021FFF789FD074AB0
S31500000DE004F1C00352F823106FF3104142F82310A8
S31500000DF052F8233010BD00BF94010020006000406F
S31500000E0010B5EFF303831A4A103B5CB252F8240084
S31500000E10837803F00303022B036A0CBF198A5979FE
S31500000E2093F804C00CBFC1F30801C9B21CF0100F3F
S31500000E300CF0380206D093F81CC01CF0010F08BF56
S31500000E4042F0400293F804C00CF0C70C83F804C0CB
S31500000E50436A0BB1FFF74CFD064A04F1C00352F892
S31500000E6023106FF3104142F8231052F8233010BDBF
S31500000E7094010020006000400022034610461A60DC
S31500000E80704700BF0B0A10B41B01064C53FA81F1E0
S31500000E9054F821300020C3F340035DF8044B13706F
S31500000EA0704700BF00080840090A490101F1804166
S31500000EB001F500214B68002013807047090A49019B
S31500000EC023EA020C01F180411A4001F5002142EAB1
S31500000ED00C4200208A6070470123C8B283404AB999
S31500000EE01A040B0A5B0103F1804303F5002300207B
S31500000EF09A6070479AB2F4E7090A490101F1804104
S31500000F0001F5002110B40C6802EA030C4CEA040C4B
S31500000F1062EA030202EA0C0200205DF8044B0A6052
S31500000F20704700BF090A490101F1804101F500211E
S31500000F304B680020C3F30F4313807047012310B49E
S31500000F404FEA112C4FEA4C1C0CF1804C0CF5002C8E
S31500000F50DCF80440C9B203FA01F18BB201EA14418C
S31500000F60C91AB1FA81F1490900205DF8044B1170E4
S31500000F70704700BF090A490123EA020C01F18041CA
S31500000F801A4001F5002142EA0C420020CA6070476F
S31500000F90012A14D04FF480300B0A5B0103F1804321
S31500000FA003F5002310B4CAB2DC6800FA02F2224349
S31500000FB0120C120400205DF8044BDA6070470B0A2D
S31500000FC05B0103F1804303F50023D868C9B28A4068
S31500000FD0024392B20020DA60704700BF38B5048839
S31500000FE0002C4CD00021436840F20245043303EB49
S31500000FF0C40040F2034C40F2044E0C460FE062453A
S315000010002FD153F8042C02F0B852B2F1807F14BFEE
S3150000101041F0020144F002040833834210D01A88DA
S31500001020AA42ECD153F8042C083302F0B852B2F1BC
S31500001030807F14BF41F0010144F001048342EED1E8
S31500001040C943CDB2012000F005FF0E4B012093F8F5
S31500001050BB2414432C4083F8BB44BDE8384000F061
S31500001060C9BE7245D8D153F8042C02F0B852B2F179
S31500001070807F0CBF44F0040441F00401CCE7FF2557
S31500001080E0E700BF00E00140F8B50446FFF7A6FF21
S31500001090EFF31082012383F31088284E33681BB9BF
S315000010A02749CB704023CB7033680133336082F31A
S315000010B0108823887BB3626803F1FF3E1FFA8EFE19
S315000010C002F108011F4C01EBCE0E08E0D2B21B0163
S315000010D013448E450A4644F823001CD00831106894
S315000010E0928810F4803F4FEA1223EFD0130AD2B24F
S315000010F002EB031C54F82C701B01134420F48035BA
S315000011006FF310478E4544F82C700A4644F82C506D
S3150000111044F82300E2D1EFF31082012383F3108811
S31500001120336813B13368013B336033681BB98020E1
S315000011300349CB70C87082F31088F8BD9001002077
S31500001140000D08400008084008B5034B0360084638
S31500001150FFF79AFF002008BD54524F5008B50846C5
S31500001160FFF792FF002008BD70B5012684B002ABE0
S3150000117068460C4615460193ADF80060ADF80C10B4
S315000011800292FFF72BFFEFF3108286F310881D49BA
S315000011900B681BB940261C48C370C6700B68013328
S315000011A00B6082F31088EA034FEA1423E4B219D4E1
S315000011B01B01164A234442F82350EFF31082012301
S315000011C083F310880B6813B10B68013B0B600B6847
S315000011D01BB980200C49CB70C87082F310880020A0
S315000011E004B070BD094A04EB031052F820601B01DD
S315000011F06FF3104642F8206025F4803642F82060EE
S31500001200D7E700BF90010020000D08400008084005
S315000012100346002059601A72704700BF84460020BA
S31500001220CCE90E32CCF83410704700BF0346044AAE
S31500001230DB6800209B1AB3FA83F35B090B707047D7
S315000012404349495230B5836B83B004460A466D461E
S31500001250A3B193E8030085E80300E16B1A71184611
S31500001260626B19609047A36B1BB195E8030083E896
S315000012700300002384F82B3003B030BD2B46ECE787
S3150000128030B4344B82B01B6A026903F00F2301931A
S315000012900199019D137C90F82C409CB9C1F3032160
S315000012A0DBB2A1EB15618B409B0806D108231846DB
S315000012B002B030BC7047013BF8D05178C909FAD169
S315000012C0B323D371002390F82640016880F82740A5
S315000012D080F82830846980F82B30036280F82D303E
S315000012E080F82E3080F82F3080F830304B6AC46199
S315000012F093F800C05C78BCF1010F0CBF05230423F2
S3150000130043EA4403DBB2D370537943F001035371CC
S3150000131091F90F30002B08DB012203F01F040E4960
S315000013205B09A24041F823200269BF23D37190F8DC
S315000013302C1001F0FF0339B10022134680F82C204F
S31500001340184602B030BC704702211846517002B0F0
S3150000135030BC704700E0014000E100E090F808C0B2
S31500001360C0E90512BCF1010F80F82A3008D100222D
S31500001370436880F826C05B0080F8243080F825207A
S31500001380002380F82930FFF77BBF00BF90F808C024
S31500001390C0E90512BCF1010F80F82A300AD10022FB
S315000013A0436880F826C05B0043F0010380F82430D0
S315000013B080F82520012380F82930FFF761BF00BFA0
S315000013C02DE9F0434FF01F0C5F27DF260269DFF897
S315000013D09C9182F800C01770167006684FF0000ED8
S315000013E0776AD6F804C03E794FF0B30846F0E006B7
S315000013F01674FE785A4C46F0E0065674BE78594D7F
S31500001400360106F0700646F0080696703E787F783C
S31500001410012E0CBF05260426CC450CBF4FF0F70C59
S315000014204FF0770C46EA4706F6B2D67082F805C04A
S3150000143082F806E082F807804E7B91F9112036018A
S31500001440494BA718F6B287F8006302F1C00645F8C3
S31500001450220053F826706EF3104743F8267053F8AF
S315000014602660BFF35F8F4FF0010C5609B60002F0FD
S315000014701F0206F1604606F561460CFA02F2C6F84E
S31500001480802132604E7B91F90F203601A718F6B203
S3150000149087F8006302F1C00645F8220053F826706B
S315000014A06EF3104743F8267053F82660BFF35F8F3C
S315000014B05609B60002F01F0206F160460CFA02F267
S315000014C006F56146C6F8802132604E7B91F9102000
S315000014D03601A718F6B287F8006302F1C00645F890
S315000014E0220053F826706EF3104743F8267053F81F
S315000014F02660BFF35F8F5609B60002F01F0206F1A1
S3150000150060460CFA02F206F56146C6F880213260A2
S315000015104E7B91F90E2031011444C9B284F80013B0
S3150000152002F1C00145F8220053F821406EF3104441
S3150000153043F8214053F82130BFF35F8F53099B00D6
S3150000154002F01F0203F160430CFA02F203F5614355
S31500001550C3F880211A609F2203691A70BDE8F083E0
S3150000156000E100E0940100200060004040420F00CE
S3150000157070B500250A78016002F5800202F51F6247
S31500001580120202618A6842600A7B0272CA69426379
S315000015900A6AC0E90E52EFF3108C012282F310881A
S315000015A00B78C3F109039A400C4B5E6826EA0202E7
S315000015B05A605B688CF31088FFF702FF084B80F8CF
S315000015C02950C0E9075580F82A50456180F82B500C
S315000015D0856180F82C50C360284670BD00400840E5
S315000015E043494952C36913B990F82C30A3B110B5D9
S315000015F0002403690168DC71FFF7E2FE90F82620FB
S31500001600836980F82820B32203620369C46180F8E5
S315000016102C400020DA7110BD90F82B30002BE6D15B
S31500001620B32203690020DA71704700BF38B5C36979
S315000016301BB990F82C30002B6ED00024036901688A
S31500001640DC71FFF7BDFE90F826208369C46180F83F
S315000016502820036280F82C4000214FF0B30C0123B0
S315000016600269056882F807C0D171C16095F9112039
S315000016702C4C4FEA521C02F01F0203FA02F20CF144
S31500001680200C44F82C20BFF34F8FBFF36F8F0268F6
S3150000169092F90E204FEA521C02F01F0203FA02F2E0
S315000016A00CF1200C44F82C20BFF34F8FBFF36F8F43
S315000016B0026892F910204FEA521C02F01F0203FA48
S315000016C002F20CF1200C44F82C20BFF34F8FBFF32D
S315000016D06F8F026892F90F204FEA521C02F01F0228
S315000016E003FA02F20CF1200C44F82C20BFF34F8FC2
S315000016F0BFF36F8FEFF3108483F3108800680A4AF4
S315000017000078C0F109008340506803435360536872
S3150000171084F31088084638BD90F82B30002B9BD0F8
S315000017208BE700BF00E100E00040084010B483B042
S31500001730EFF30383103B4A4A5BB2C03352F82310DF
S315000017406FF3104142F8231052F82330EFF303836E
S31500001750444A103B5BB252F8233093F82D20BAB9B5
S315000017609A69012A1A6982BF117941F04001117103
S31500001770D969012917D00121D27CD2B28DF8072070
S315000017809DF8072083F82D1003B05DF8044B7047D1
S31500001790DA69002AF8D0032A0ED0022A4ED0012A8E
S315000017A021D019690DE0117941F0100111711179FB
S315000017B041F008011171DEE719690A7942F0400229
S315000017C00A71C87C1A6A59698854D3E9072101311C
S315000017D0013AC3E90721002AD6D119690B7962F3C8
S315000017E086130B71D0E793F82A1089B319681E4C3B
S315000017F091F90F10480901F01F0102FA01F120309A
S3150000180044F82010BFF34F8FBFF36F8F4FF0040CD7
S315000018101969C87940F08000C871087940F0100055
S31500001820087108796FF3C300087181F801C048791F
S315000018306FF30000487183F82C20C2E719690A7912
S3150000184042F010020A710A7942F008020A71B8E7FA
S31500001850082019694A7A02F0F7024A724870B0E71E
S31500001860006000409401002000E100E0EFF30383F4
S31500001870103B384A5BB2C03352F823106FF3104165
S3150000188042F8231052F82330EFF30383324A103B19
S315000018905BB252F8232092F82730002B3AD192F807
S315000018A02930002B35D1D36910B4002B44D11069EF
S315000018B0C179C0236FF3C711C17101E0013B02D0AA
S315000018C0C179C909FAD11368224A93F9103003F194
S315000018D0C00152F821406FF3104442F8214052F8FB
S315000018E02120002B09DB01215A091C4C03F01F03A0
S315000018F0603201FA03F344F82230C3795DF8044BF1
S3150000190043F04003C3717047022909D192F83000B1
S3150000191030B9704792F82610032992F82810F3D0B0
S3150000192092F824C010690131013B80F812C082F898
S31500001930281082F827307047116AD2E90404645CE3
S31500001940013B01318474C2E90731002BB0D05DF848
S31500001950044B7047006000409401002000E100E065
S3150000196010B4EFF303832D4A103B5BB252F82330D9
S3150000197093F829201AB193F82720012A49D0DA6969
S31500001980E2B11969CA79C0236FF38612CA7101E000
S31500001990013B02D0CA795206FAD4EFF30383103B17
S315000019A01F4A5BB2C03352F823106FF3104142F85E
S315000019B0231052F823305DF8044B704793F82A1031
S315000019C0F9B14FF0010C1968164C91F90F1048093E
S315000019D001F01F0120300CFA01F144F82010BFF38A
S315000019E04F8FBFF36F8F1969C87940F08000C871B7
S315000019F004204870487962F30000487183F82CC0CF
S31500001A00C0E7082219694B7A03F0F7034B724A7054
S31500001A10B8E793F83020002AB1D1B2E7940100204C
S31500001A200060004000E100E010B5EFF30383E02121
S31500001A304C4A103B5BB252F8230003695A7A59723A
S31500001A405FFA82FC02F00304D2061DD55A785106CD
S31500001A5049D40121C26980F82B10002A5FD00024E6
S31500001A600168DC71FFF7ACFC90F826108269036907
S31500001A70C46180F82810026280F82C40B32201214C
S31500001A80DA71FFF7DFFB12E0002CE2D11CF0080F41
S31500001A901CD090F82B20002A4AD190F82910B322A6
S31500001AA0002914BF02210321DA71FFF7CBFBEFF304
S31500001AB00383103B2C4A5BB2C03352F823106FF3FA
S31500001AC0104142F8231052F8233010BD90F82C2014
S31500001AD0002AECD01CF0040FE9D090F82B2001214D
S31500001AE0002AE2D1D9E7002CB3D15A78C2F380118B
S31500001AF05206CBD5082480F82B105A7A016802F0DA
S31500001B00F702496A5A725C700A78012A0CBF0322EE
S31500001B100222DA705A7942F001025A71C7E790F848
S31500001B202C20002A9BD190F82B20002AA6D096E7DD
S31500001B30C2696AB10022816990F82640C0E907218E
S31500001B4080F8284080F82C20B3220121DA71ACE716
S31500001B5090F82C20002AEDD190F82B20002AF3D003
S31500001B60E8E700BF9401002000600040064B0749EB
S31500001B7093F826001A6A51F82030C2F3026204492B
S31500001B80D3400B60704700BF00E001407C0000209E
S31500001B9020030020F8B54AF2035001233749384A9A
S31500001BA0A1F8FE03A2F80431B2F804319BB2002B6F
S31500001BB0FAD101214FF400454FF0090C314CDFF802
S31500001BC0DCE0314EC4F804E0DFF8D4E02B48C4F87A
S31500001BD00CE02E4FA2F800112D4AB160316062610F
S31500001BE0276090F82620A5602561056A54F8222012
S31500001BF0C5F30265EA40274D2A6080F8133480F861
S31500001C00A2C090F8803493B300231C4981F8813434
S31500001C1081F8803481F8363091F83C30DA07FBD50C
S31500001C2043F212100023154A088581F82A3092F8EB
S31500001C303C309B06FBD503200523114981F81C0186
S31500001C4015490120116282F8263092F82630116A71
S31500001C5054F82330C1F30261CB402B604FF4254387
S31500001C6082F8300082F85200A2F8FE33F8BD80F800
S31500001C70801440F2C44000F01DF8C5E700E00140C2
S31500001C8000C001407C00002000700040002D3101A2
S31500001C90AA21EF09200300202112012000127A0058
S31500001CA000366E0100BEFEE7A0F101000028FBD160
S31500001CB0704700BF10B54FF47A72164C164B246865
S31500001CC04FF0000EB3FBF4FC4FF0FF3300FB01F1C5
S31500001CD0A1FB020483427EEB040407D3B0FBFCF0B5
S31500001CE0800880B1BDE81040FFF7DEBF4FEA8C0CDC
S31500001CF0B1FBFCF1A1FB02128B427EEB020203D385
S31500001D0008460028EED110BD1846BDE81040FFF782
S31500001D10CBBF00BF2003002000CA9A3B70B5002449
S31500001D200A4B0B4EB3F84051ADB225FA04F3DB076C
S31500001D30E0B203D556F8243003B198470134102C8D
S31500001D40F3D1024BA3F8305170BD00BF00600040D4
S31500001D505001002030B56FF0FF0585B0032000F07C
S31500001D6079F84FF0FF311F4C1F4822468564002347
S31500001D700125CDE90111039104F1C00E32F8020FDD
S31500001D80590960B104A800EB810151F80C0C03F06D
S31500001D901F0C05FA0CFC20EA0C0041F80C0C7245ED
S31500001DA003F10103EAD10199104B0F4A0320116791
S31500001DB0C3F8801202995167C3F884120399916798
S31500001DC0C3F8881200F016F80023094803F1C00290
S31500001DD034F8021F0133602B40F82210F6D105B00B
S31500001DE030BD00BF6E2D00000080004000E100E025
S31500001DF000600040EFF31081012383F31088124B3B
S31500001E0033F8102092B22AB133F81020013A92B278
S31500001E1023F8102033F810309BB293B90B4A10B454
S31500001E20B2F8FE330A4C9BB234F8100043F4254353
S31500001E3023EA0003A2F8FE3381F310885DF8044B11
S31500001E40704781F3108870471403002000E00140BA
S31500001E50982E000030B4EFF31081012383F310882D
S31500001E600E4A32F810309BB26BB90D4C0D4DB4F8DA
S31500001E70FE3335F810C09BB243EA0C0343F4254306
S31500001E809BB2A4F8FE3332F8103001339BB222F82D
S31500001E90103081F3108830BC704700BF1403002057
S31500001EA000E00140982E00000D4908B50A68034677
S31500001EB04AB103330B4823F003031344834206D885
S31500001EC010460B6008BD084802460860F1E700F0BE
S31500001ED077F80C234FF0FF320360104608BD00BFB1
S31500001EE01C030020380300203803002000BE704782
S31500001EF008B500F003F8FEF70BFCFEE74FF470029E
S31500001F0070B5244B244CC3F8882000209C60FEF753
S31500001F1097F9FFF73FFE0120FEF792F92368A3F534
S31500001F20806383F30A881D481D4A0021121A00F0B7
S31500001F305AF81C481C4A1D49121A00F047F81C4D55
S31500001F401C4B5B1B002B07DD00249E1055F8043B41
S31500001F5001349847A642F9DCFFF708FE0320FFF795
S31500001F6079FF00234FF6FF70134903F1080201338E
S31500001F70092B21F81200F8D10320FFF73BFF0220BE
S31500001F80FEF75EF9FFF7E6FEBDE87040002000F0C0
S31500001F9015B800BF00ED00E000000000980000202A
S31500001FA034030020000000207C0000204C2F00009D
S31500001FB07400002078000020000D0840704700BF24
S31500001FC0014B1868704700BF100000200A44431EEA
S31500001FD0914200D1704710B511F8014B914203F8B8
S31500001FE0014FF9D110BD02440346934200D1704718
S31500001FF003F8011BF9E7FFFF0EB400B59CB06FF0C4
S3150000200000411DAB029006900791049108480949CA
S3150000201053F8042B059102A90068019300F070F8AB
S31500002020029B00221A701CB05DF804EB03B07047E7
S31500002030100000200802FFFF034613F8012B002AB8
S31500002040FBD1181A013870472DE9F0478E68824691
S315000020500C4690469E421F4638D88A8912F4906FE5
S3150000206032D0256801330969A5EB0109656905EBDD
S3150000207045054B4405EBD5756D109D4238BF1D4691
S31500002080530531D5294600F065FB064650B90C23A9
S315000020904FF0FF30CAF80030A38943F04003A38114
S315000020A0BDE8F0874A462169FFF790FFA38923F42C
S315000020B0906343F08003A38126614E446561A5EBDE
S315000020C0090526603E46A560BE4200D93E46324618
S315000020D04146206800F0B8FAA36800209B1BA36065
S315000020E0236833442360DBE72A4600F0A7FB064655
S315000020F00028E1D12169504600F0C0FAC7E7FFFF8A
S315000021002DE9F04F98468B899DB007461B060D4674
S3150000211014460ED50B6963B9402100F01BFB2860FD
S31500002120286120B90C233B604FF0FF30D1E04023FB
S315000021306B610023CDF80C804FF00109DFF8AC810C
S31500002140099320238DF8293030238DF82A30234631
S315000021509A4613F8012B0AB1252AF9D1BAEB040BDA
S315000021600BD05B46224629463846FFF76DFF013005
S3150000217000F0AA80099A5A4409929AF80030002B76
S3150000218000F0A28000234FF0FF320AF1010A049307
S3150000219007938DF853301A93CDE90523544605224B
S315000021A0524814F8011B00F041FA049AD8B9D00637
S315000021B044BF20238DF85330110744BF2B238DF8DD
S315000021C053309AF800302A2B15D0079A544600202F
S315000021D04FF00A0C214611F8013B303B092B4ED932
S315000021E0B0B1079214E0A0EB0803A24609FA03F384
S315000021F013430493D2E7039B191D1B68002B03911D
S31500002200BBBF5B4242F0020207930793B8BF04923A
S3150000221023782E2B0CD163782A2B35D1039B0234DD
S315000022201A1D1B68002B0392B8BF4FF0FF330593AE
S31500002230DFF8C8A003222178504600F0F7F940B134
S315000022404023A0EB0A00013403FA00F0049B034389
S31500002250049314F8011B062225488DF8281000F077
S31500002260E5F9002838D0234B1BBB039B073323F02B
S31500002270070308330393099B3344099367E70CFB71
S3150000228002320C460120A5E7002301344FF00A0C68
S3150000229019460593204610F8012B303A092A03D92E
S315000022A0002BC5D00591C3E70CFB01210446012391
S315000022B0F0E703AB2A4604A9384600930E4B00E02C
S315000022C000BF421C0646D6D1AB895B063FF52CAF54
S315000022D009981DB0BDE8F08F03AB2A4604A938461D
S315000022E00093054B00F07CF8EBE700BFB42E00002E
S315000022F0BE2E00000000000049200000BA2E00009B
S315000023002DE9F047164699468A6807460B690C463A
S31500002310DDF820809342B8BF1346336091F843201E
S315000023200AB1013333602368990642BF336802332A
S315000023303360256815F0060506D104F1190AE3682D
S3150000234032689B1AAB4229DC94F84320131E22689C
S3150000235018BF012392062ED404F14302494638469B
S31500002360C047013021D023681A3454F80E5C03F0BC
S31500002370060332680026042B54F8123C08BFAD1A37
S3150000238054F80A2C14BF002525EAE5759342C4BF0C
S315000023909B1AED18B5421AD1002008E001235246D7
S315000023A049463846C047013003D14FF0FF30BDE8FB
S315000023B0F0870135C3E7E1185A1C30200233224466
S315000023C081F8430094F8451082F84310C4E70123CE
S315000023D0224649463846C0470130E6D00136D9E79D
S315000023E02DE9FF470F7E914680460C46782F9A4688
S315000023F00C9D01F1430207D8622F0AD8002F00F086
S31500002400D880582F00F0A38004F1420584F842706A
S315000024103AE0A7F16303152BF6D801A151F823F092
S31500002420792400008D2400000924000009240000FE
S3150000243009240000092400008D240000092400005E
S315000024400924000009240000092400009925000041
S31500002450BD2400007B25000009240000092400009B
S31500002460BB25000009240000BD240000092400004B
S3150000247009240000832500002B681A1D1B682A60AA
S3150000248004F1420584F842300123A3E0206829685C
S31500002490060601F104030AD50E682B60002E03DA46
S315000024A02D23764284F843305E480A2319E00E68ED
S315000024B010F0400F2B6018BF36B2EFE72B6820688C
S315000024C0191D2960010601D51E6802E04606FBD5E6
S315000024D01E886F2F53480CBF08230A23002184F857
S315000024E043106568002DA560A2BF216821F0040194
S315000024F021600EB9002D4DD01546B6FBF3F103FB56
S315000025001167C75D05F8017D37460E46BB42F4D913
S31500002510082B0BD12368DE0708D523696168994229
S31500002520DEBF302305F8013C05F1FF35521B226161
S315000025304B4603AA21464046CDF800A0FFF7E0FE31
S3150000254001304CD14FF0FF3004B0BDE8F08735487C
S3150000255081F845702968236851F8046B29601D06C7
S3150000256014D5DF0744BF43F0200323601EB9236858
S3150000257023F0200323601023B0E7236843F02003F1
S3150000258023607823284884F84530E3E7590648BF96
S31500002590B6B2E6E71546BBE72B682668181D6169E3
S315000025A0286035061B6801D5196002E07006FBD568
S315000025B01980002315462361BAE72B6800211A1DEE
S315000025C02A601D686268284600F030F808B1401B92
S315000025D0606063682361002384F84330A8E72369B9
S315000025E02A4649464046D0470130ABD023689B0770
S315000025F013D4E068039B9842B8BF1846A4E70123AA
S31500002600324649464046D04701309BD00135E36803
S3150000261003995B1AAB42F2DCEBE7002504F11906DD
S31500002620F5E700BFC52E0000D62E0000C9B2024451
S3150000263010B59042034601D1002303E01C78013017
S315000026408C42F6D1184610BD884210B501EB020443
S3150000265002D98442234607D8431EA14208D011F866
S31500002660012B03F8012FF8E7024401468A4200D104
S3150000267010BD13F8014D02F8014DF7E737B50029F3
S3150000268043D051F8043C0C1F0190002BB8BFE4184E
S3150000269000F014F91E4A0198136833B96360146098
S315000026A003B0BDE8304000F00FB9A34208D9256851
S315000026B061198B4201BF19685B6849192160EDE712
S315000026C01A465B680BB1A342FAD911685518A542A0
S315000026D00BD12468214454181160A342E0D11C6830
S315000026E05B68214453601160DAE702D90C2303606A
S315000026F0D6E7256861198B4202BF19685B684919DC
S31500002700636008BF21605460CAE703B030BD00BFF4
S315000027102403002070B50E4E0C460546316811B9EB
S3150000272000F0BCF830602146284600F0B7F8431C9C
S315000027300AD0C41C24F00304A04207D0211A28465C
S3150000274000F0ACF8013001D14FF0FF34204670BDE7
S31500002750280300202DE9F041CD1C074625F003058E
S3150000276008350C2D38BF0C25002D01DBA94205D9F3
S315000027700C2300263B603046BDE8F0812E4E00F06B
S315000027809DF833681C4634BB29463846FFF7C2FF1E
S31500002790431C04464DD134682646002E40D123689A
S315000027A03146384604EB030800F078F880453AD104
S315000027B02168033538466D1A25F0030508350C2DBA
S315000027C038BF0C252946FFF7A5FF01302BD023681B
S315000027D02B4423600EE02268521B1ED40B2A16D906
S315000027E06119A342256018BF5960636808BF31604C
S315000027F062514B6004F10B06384600F065F8231D64
S3150000280026F00706F21AB6D09B1BA350B3E7626800
S31500002810A3420CBF32605A60ECE723466468B2E715
S3150000282034467668B9E70C2338463B6000F04CF82E
S31500002830A1E72560DEE700BF240300202DE9F04173
S31500002840804614460E4621B91146BDE8F041FFF711
S3150000285081BF2AB92546FFF711FF2846BDE8F0815A
S3150000286000F038F88442074602D8B4EB500F12D86D
S3150000287021464046FFF76EFF05460028EDD0BC42D4
S315000028802246314628BF3A46FFF7A0FB314640466E
S31500002890FFF7F4FEE1E73546DFE7FFFF38B5002333
S315000028A0054D044608462B60FFF7FEFA431C02D18D
S315000028B02B6803B1236038BD2C030020014800F0CB
S315000028C011B800BF30030020014800F00CB800BF6B
S315000028D03003002051F8043C181F002BBCBF0B58D6
S315000028E0C0187047704770474275696C74207769E5
S315000028F074682052656E6573617320416476616EFB
S3150000290063656420466C657869626C6520536F6602
S315000029107477617265205061636B616765207665C7
S315000029207273696F6E20342E322E3000342E322EA2
S315000029303000000000000204F8B500BFF8BC08BC77
S315000029409E467047F8B500BFF8BC08BC9E46704767
S315000029504653505F53554343455353203D3D2065F1
S31500002960727200002E2E2F7372632F68616C5F6582
S315000029706E7472792E6300FF4163583A20253664DF
S31500002980200A0D004163593A20253664200A0D00BD
S3150000299041635A3A20253664200A0D00546D703A78
S315000029A020253664200A0D004779583A20253664DA
S315000029B0200A0D004779593A20253664200A0D0071
S315000029C047795A3A20253664200A0D0073657453F8
S315000029D06572766F00FFFFFF675F4D5055363035E5
S315000029E0305F717569636B5F736574757000FFFFA7
S315000029F0675F636F6D6D735F6932635F62757330B6
S31500002A005F717569636B5F736574757000FFFFFFB7
S31500002A1068616C5F656E74727900FFFFB800002014
S31500002A20282A0000782E000001000000A086010080
S31500002A3000000000010C000102030000000000007D
S31500002A40000000007107000000000000502A00008E
S31500002A500101031716FFFFFFF8000020E02A00001F
S31500002A60442E000000010020702A0000302E0000D5
S31500002A70FFFFFFFF89020000842A000000000020FB
S31500002A8000000000000000000000000068000000D8
S31500002A90010000000000000000000000000000002F
S31500002AA00000000000000000000000000502000019
S31500002AB00C040C050C060C070000000000000000CA
S31500002AC0C902000000000000CC2A0000000100003E
S31500002AD00C0000200F00FFFF00000000FFFF0000B9
S31500002AE051000000E82A00000080000000000000FD
S31500002AF000800000010000000080000002000000CD
S31500002B0000800000030000001040000004000000E8
S31500002B101040000005000000104000000600000004
S31500002B201040000008000000008000000E000000B9
S31500002B30008000000F0000000000000004010000FB
S31500002B400000000005010000000C01000801000063
S31500002B50000000000B010000000C01120C01000037
S31500002B60000C01120D010000000C01120E01000004
S31500002B70040000000F010000000001050202000031
S31500002B800000010503020000000001050402000028
S31500002B90000001050502000000000000060200001A
S31500002BA0000000000702000000000000080200000C
S31500002BB0450C00000A020000000C01170B02000081
S31500002BC0000C01170E020000000C010000030000BB
S31500002BD0450C000003030000450C0000060300003E
S31500002BE0450C000007030000450C00000B03000025
S31500002BF0400C010700040000400C0107010400001E
S31500002C001040000002040000104000000304000011
S31500002C101040000004040000000C01170504000029
S31500002C20000C011706040000000C01130704000045
S31500002C30450C000009040000000C01060A0400000F
S31500002C40000C01060B040000000C01060C04000039
S31500002C50000C01060D040000000000000E04000038
S31500002C60000000000F040000000C01050005000034
S31500002C70000C010501050000000C0105020500001D
S31500002C800000000003050000040000000405000029
S31500002C900000000005050000000000000605000019
S31500002CA0000C010508050000400C01070B0500009B
S31500002CB0400C01070C050000040C00000106000092
S31500002CC0040C000002060000040C000003060000CD
S31500002CD0040C0000050600000000000008060000C5
S31500002CE0040C000009060000040C00000A0600009F
S31500002CF0000000000B060000400C01050D06000058
S31500002D00400C01050E060000000C01130F06000022
S31500002D10000C011700070000000C01170107000056
S31500002D20000C011702070000000C01170307000042
S31500002D30000C011704070000000C0117050700002E
S31500002D40000C010506070000000C0105070700003E
S31500002D500000000008070000004000000308000013
S31500002D600040000004080000000C0113080A0000DF
S31500002D70780079007A007B009E019F01A001A101E5
S31500002D80000000000000000000000000000000003D
S31500002D90000000000000000000000000000000002D
S31500002DA0000000000000000000000000000000001D
S31500002DB0000000000000000000000000000000000D
S31500002DC000000000000000000000000000000000FD
S31500002DD000000000000000000000000000000000ED
S31500002DE000000000000000000000000000000000DD
S31500002DF000000000000000000000000000000000CD
S31500002E0000000000000000000000000000000000BC
S31500002E1000000000000000000000000000000000AC
S31500002E20000000000000000000000000000000009C
S31500002E301D07000045070000550700005907000060
S31500002E405D07000049110000790E00005D110000C9
S31500002E50691100003D0F0000910F0000850E000073
S31500002E60D90E0000F90E0000250F0000750F0000B6
S31500002E70A90E0000BD0E0000711500008D130000A4
S31500002E805D130000E5150000111200001D12000080
S31500002E902D1200002D16000001000200080010008F
S31500002EA006000000A82E00000A0609060106020612
S31500002EB003060506232D302B2000686C4C00656642
S31500002EC06745464700303132333435363738394175
S31500002ED0424344454600303132333435363738398B
S31500002EE061626364656600FF000000000000000088
S31500002EF000000000000000000000000000000000CC
S31500002F0000000000000000000000000000000000BB
S31500002F1000000000000000000000000000000000AB
S31500002F20000000000000000000000000000000009B
S31500002F30000000000000000000000000000000008B
S31100002F400000000000000000000000007F
S31500002F4CFFFFFFFF000000001C2A000040002C00C1
S31500002F5C1400002000000000082F0000282F00009D
S31500002F6CE82E000000000000000000000000000039
S31500002F7C000000000000000000000000000000003F
S31500002F8C000000000000000000000000000000002F
S31500002F9C000000000000000000000000000000001F
S31500002FAC000000000000000000000000000000000F
S31100002FBC000000002502000001020000D9
S3150100A100FFFFFFFFFFFFFFFFFFFFFFFFFFFFFFFF58
S3090100A110FFFFFFFF48
S3090100A134FFFFFFFF24
S3150100A200FFFDFFFFFFFFFFFFFFFFFFFFFFFFFFFF59
S3150100A210FFFFFFFFFFFFFFFFFFFFFFFFFFFFFFFF47
S3150100A220FFFFFFFFFFFFFFFFFFFFFFFFFFFFFFFF37
S3150100A230FFFFFFFFFFFFFFFFFFFFFFFFFFFFFFFF27
S3150100A240FFFFFFFFFFFFFFFFFFFFFFFFFFFFFFFF17
S3150100A250FFFFFFFFFFFFFFFFFFFFFFFFFFFFFFFF07
S3150100A260FFFFFFFFFFFFFFFFFFFFFFFFFFFFFFFFF7
S3150100A270FFFFFFFFFFFFFFFFFFFFFFFFFFFFFFFFE7
S3150100A280F8F8FFFFFFFFFFFFFFFFFFFFFFFFFFFFE5
S3150100A290FFFFFFFFFFFFFFFFFFFFFFFFFFFFFFFFC7
S3150100A2A0FFFFFFFFFFFFFFFFFFFFFFFFFFFFFFFFB7
S3150100A2B0FFFFFFFFFFFFFFFFFFFFFFFFFFFFFFFFA7
S3150100A2C0FFFFFFFFFFFFFFFFFFFFFFFFFFFFFFFF97
S70500001EF1EB
